{
  "contractName": "Nomoriam",
  "abi": [
    {
      "inputs": [],
      "payable": false,
      "stateMutability": "nonpayable",
      "type": "constructor"
    },
    {
      "constant": true,
      "inputs": [
        {
          "internalType": "uint256",
          "name": "",
          "type": "uint256"
        }
      ],
      "name": "challenges",
      "outputs": [
        {
          "internalType": "string",
          "name": "title",
          "type": "string"
        },
        {
          "internalType": "string",
          "name": "desc",
          "type": "string"
        },
        {
          "internalType": "string",
          "name": "image",
          "type": "string"
        },
        {
          "internalType": "string",
          "name": "create_time",
          "type": "string"
        },
        {
          "internalType": "string",
          "name": "end_time",
          "type": "string"
        },
        {
          "internalType": "bool",
          "name": "finished",
          "type": "bool"
        },
        {
          "internalType": "bool",
          "name": "approved",
          "type": "bool"
        },
        {
          "internalType": "uint256",
          "name": "sum_point",
          "type": "uint256"
        },
        {
          "internalType": "uint256",
          "name": "countLeader",
          "type": "uint256"
        }
      ],
      "payable": false,
      "stateMutability": "view",
      "type": "function"
    },
    {
      "constant": true,
      "inputs": [],
      "name": "manager",
      "outputs": [
        {
          "internalType": "address",
          "name": "",
          "type": "address"
        }
      ],
      "payable": false,
      "stateMutability": "view",
      "type": "function"
    },
    {
      "constant": true,
      "inputs": [
        {
          "internalType": "uint256",
          "name": "",
          "type": "uint256"
        }
      ],
      "name": "players",
      "outputs": [
        {
          "internalType": "string",
          "name": "",
          "type": "string"
        }
      ],
      "payable": false,
      "stateMutability": "view",
      "type": "function"
    },
    {
      "constant": false,
      "inputs": [
        {
          "internalType": "string",
          "name": "title",
          "type": "string"
        },
        {
          "internalType": "string",
          "name": "desc",
          "type": "string"
        },
        {
          "internalType": "string",
          "name": "image",
          "type": "string"
        },
        {
          "internalType": "string",
          "name": "create_time",
          "type": "string"
        },
        {
          "internalType": "string",
          "name": "end_time",
          "type": "string"
        },
        {
          "internalType": "string",
          "name": "_owner",
          "type": "string"
        }
      ],
      "name": "createChallenge",
      "outputs": [],
      "payable": false,
      "stateMutability": "nonpayable",
      "type": "function"
    },
    {
      "constant": false,
      "inputs": [
        {
          "internalType": "uint256",
          "name": "index",
          "type": "uint256"
        }
      ],
      "name": "finishChallenge",
      "outputs": [],
      "payable": false,
      "stateMutability": "nonpayable",
      "type": "function"
    },
    {
      "constant": false,
      "inputs": [
        {
          "internalType": "uint256",
          "name": "index",
          "type": "uint256"
        },
        {
          "internalType": "string",
          "name": "uid",
          "type": "string"
        }
      ],
      "name": "joinChallenge",
      "outputs": [
        {
          "internalType": "string",
          "name": "",
          "type": "string"
        },
        {
          "internalType": "uint256",
          "name": "",
          "type": "uint256"
        },
        {
          "internalType": "uint256",
          "name": "",
          "type": "uint256"
        },
        {
          "internalType": "string",
          "name": "",
          "type": "string"
        },
        {
          "internalType": "uint256",
          "name": "",
          "type": "uint256"
        }
      ],
      "payable": false,
      "stateMutability": "nonpayable",
      "type": "function"
    },
    {
      "constant": false,
      "inputs": [
        {
          "internalType": "uint256",
          "name": "_index",
          "type": "uint256"
        },
        {
          "internalType": "string",
          "name": "title",
          "type": "string"
        },
        {
          "internalType": "string",
          "name": "image",
          "type": "string"
        },
        {
          "internalType": "string",
          "name": "category",
          "type": "string"
        },
        {
          "internalType": "uint256",
          "name": "times",
          "type": "uint256"
        }
      ],
      "name": "addActivity",
      "outputs": [],
      "payable": false,
      "stateMutability": "nonpayable",
      "type": "function"
    },
    {
      "constant": false,
      "inputs": [
        {
          "internalType": "uint256",
          "name": "_index",
          "type": "uint256"
        },
        {
          "internalType": "uint256",
          "name": "_count",
          "type": "uint256"
        },
        {
          "internalType": "string",
          "name": "uid",
          "type": "string"
        }
      ],
      "name": "doPost",
      "outputs": [
        {
          "internalType": "uint256",
          "name": "",
          "type": "uint256"
        }
      ],
      "payable": false,
      "stateMutability": "nonpayable",
      "type": "function"
    },
    {
      "constant": false,
      "inputs": [
        {
          "internalType": "uint256",
          "name": "_index",
          "type": "uint256"
        },
        {
          "internalType": "uint256",
          "name": "_count",
          "type": "uint256"
        },
        {
          "internalType": "string",
          "name": "uid",
          "type": "string"
        },
        {
          "internalType": "bytes32",
          "name": "qrcode",
          "type": "bytes32"
        }
      ],
      "name": "doQRCode",
      "outputs": [
        {
          "internalType": "uint256",
          "name": "",
          "type": "uint256"
        }
      ],
      "payable": false,
      "stateMutability": "nonpayable",
      "type": "function"
    },
    {
      "constant": false,
      "inputs": [
        {
          "internalType": "string",
          "name": "uid",
          "type": "string"
        }
      ],
      "name": "createPlayer",
      "outputs": [
        {
          "internalType": "bool",
          "name": "",
          "type": "bool"
        }
      ],
      "payable": false,
      "stateMutability": "nonpayable",
      "type": "function"
    },
    {
      "constant": false,
      "inputs": [
        {
          "internalType": "uint256",
          "name": "_index",
          "type": "uint256"
        },
        {
          "internalType": "string",
          "name": "_title",
          "type": "string"
        },
        {
          "internalType": "string",
          "name": "_image",
          "type": "string"
        }
      ],
      "name": "addMedal",
      "outputs": [],
      "payable": false,
      "stateMutability": "nonpayable",
      "type": "function"
    },
    {
      "constant": true,
      "inputs": [
        {
          "internalType": "uint256",
          "name": "_index",
          "type": "uint256"
        }
      ],
      "name": "getMedalByChallenge",
      "outputs": [
        {
          "internalType": "uint256",
          "name": "",
          "type": "uint256"
        }
      ],
      "payable": false,
      "stateMutability": "view",
      "type": "function"
    },
    {
      "constant": true,
      "inputs": [
        {
          "internalType": "uint256",
          "name": "_index",
          "type": "uint256"
        },
        {
          "internalType": "uint256",
          "name": "_count",
          "type": "uint256"
        }
      ],
      "name": "getMedalByIndex",
      "outputs": [
        {
          "internalType": "string",
          "name": "",
          "type": "string"
        },
        {
          "internalType": "string",
          "name": "",
          "type": "string"
        },
        {
          "internalType": "string",
          "name": "",
          "type": "string"
        }
      ],
      "payable": false,
      "stateMutability": "view",
      "type": "function"
    },
    {
      "constant": true,
      "inputs": [
        {
          "internalType": "uint256",
          "name": "_index",
          "type": "uint256"
        }
      ],
      "name": "getActivityCount",
      "outputs": [
        {
          "internalType": "uint256",
          "name": "",
          "type": "uint256"
        }
      ],
      "payable": false,
      "stateMutability": "view",
      "type": "function"
    },
    {
      "constant": true,
      "inputs": [
        {
          "internalType": "string",
          "name": "uid",
          "type": "string"
        }
      ],
      "name": "getChallengeCountByPlayer",
      "outputs": [
        {
          "internalType": "uint256",
          "name": "",
          "type": "uint256"
        }
      ],
      "payable": false,
      "stateMutability": "view",
      "type": "function"
    },
    {
      "constant": true,
      "inputs": [],
      "name": "getChallengeCount",
      "outputs": [
        {
          "internalType": "uint256",
          "name": "",
          "type": "uint256"
        }
      ],
      "payable": false,
      "stateMutability": "view",
      "type": "function"
    },
    {
      "constant": true,
      "inputs": [
        {
          "internalType": "string",
          "name": "uid",
          "type": "string"
        }
      ],
      "name": "getPlayer",
      "outputs": [
        {
          "internalType": "string",
          "name": "",
          "type": "string"
        },
        {
          "internalType": "uint256",
          "name": "",
          "type": "uint256"
        },
        {
          "internalType": "uint256",
          "name": "",
          "type": "uint256"
        },
        {
          "internalType": "uint256",
          "name": "",
          "type": "uint256"
        }
      ],
      "payable": false,
      "stateMutability": "view",
      "type": "function"
    },
    {
      "constant": true,
      "inputs": [
        {
          "internalType": "string",
          "name": "uid",
          "type": "string"
        }
      ],
      "name": "getMedalCountByPlayer",
      "outputs": [
        {
          "internalType": "uint256",
          "name": "",
          "type": "uint256"
        }
      ],
      "payable": false,
      "stateMutability": "view",
      "type": "function"
    },
    {
      "constant": true,
      "inputs": [
        {
          "internalType": "string",
          "name": "uid",
          "type": "string"
        },
        {
          "internalType": "uint256",
          "name": "_count",
          "type": "uint256"
        }
      ],
      "name": "getMedalByPlayer",
      "outputs": [
        {
          "internalType": "string",
          "name": "",
          "type": "string"
        },
        {
          "internalType": "string",
          "name": "",
          "type": "string"
        },
        {
          "internalType": "string",
          "name": "",
          "type": "string"
        }
      ],
      "payable": false,
      "stateMutability": "view",
      "type": "function"
    },
    {
      "constant": true,
      "inputs": [
        {
          "internalType": "uint256",
          "name": "index",
          "type": "uint256"
        },
        {
          "internalType": "uint256",
          "name": "count",
          "type": "uint256"
        },
        {
          "internalType": "string",
          "name": "uid",
          "type": "string"
        }
      ],
      "name": "getActivityChallengeByPlayer",
      "outputs": [
        {
          "internalType": "string",
          "name": "",
          "type": "string"
        },
        {
          "internalType": "uint256",
          "name": "",
          "type": "uint256"
        }
      ],
      "payable": false,
      "stateMutability": "view",
      "type": "function"
    },
    {
      "constant": true,
      "inputs": [
        {
          "internalType": "uint256",
          "name": "index",
          "type": "uint256"
        },
        {
          "internalType": "string",
          "name": "uid",
          "type": "string"
        }
      ],
      "name": "getJoinedChallenge",
      "outputs": [
        {
          "internalType": "bool",
          "name": "",
          "type": "bool"
        }
      ],
      "payable": false,
      "stateMutability": "view",
      "type": "function"
    },
    {
      "constant": true,
      "inputs": [
        {
          "internalType": "uint256",
          "name": "index",
          "type": "uint256"
        }
      ],
      "name": "getPlayerCountByChallenge",
      "outputs": [
        {
          "internalType": "uint256",
          "name": "",
          "type": "uint256"
        }
      ],
      "payable": false,
      "stateMutability": "view",
      "type": "function"
    },
    {
      "constant": true,
      "inputs": [
        {
          "internalType": "uint256",
          "name": "index",
          "type": "uint256"
        },
        {
          "internalType": "uint256",
          "name": "count",
          "type": "uint256"
        }
      ],
      "name": "getPlayerUID",
      "outputs": [
        {
          "internalType": "string",
          "name": "",
          "type": "string"
        }
      ],
      "payable": false,
      "stateMutability": "view",
      "type": "function"
    },
    {
      "constant": true,
      "inputs": [
        {
          "internalType": "uint256",
          "name": "index",
          "type": "uint256"
        },
        {
          "internalType": "string",
          "name": "uid",
          "type": "string"
        }
      ],
      "name": "getPlayerByChallenge",
      "outputs": [
        {
          "internalType": "string",
          "name": "",
          "type": "string"
        },
        {
          "internalType": "uint256",
          "name": "",
          "type": "uint256"
        }
      ],
      "payable": false,
      "stateMutability": "view",
      "type": "function"
    },
    {
      "constant": true,
      "inputs": [
        {
          "internalType": "uint256",
          "name": "_index",
          "type": "uint256"
        },
        {
          "internalType": "uint256",
          "name": "_count",
          "type": "uint256"
        },
        {
          "internalType": "uint256",
          "name": "_times",
          "type": "uint256"
        }
      ],
      "name": "getQRcodeByChallenge",
      "outputs": [
        {
          "internalType": "bytes32",
          "name": "",
          "type": "bytes32"
        }
      ],
      "payable": false,
      "stateMutability": "view",
      "type": "function"
    },
    {
      "constant": true,
      "inputs": [
        {
          "internalType": "uint256",
          "name": "_index",
          "type": "uint256"
        },
        {
          "internalType": "uint256",
          "name": "_count",
          "type": "uint256"
        }
      ],
      "name": "getActivityByChallenge",
      "outputs": [
        {
          "internalType": "string",
          "name": "",
          "type": "string"
        },
        {
          "internalType": "string",
          "name": "",
          "type": "string"
        },
        {
          "internalType": "string",
          "name": "",
          "type": "string"
        },
        {
          "internalType": "uint256",
          "name": "",
          "type": "uint256"
        },
        {
          "internalType": "uint256",
          "name": "",
          "type": "uint256"
        },
        {
          "internalType": "uint256",
          "name": "",
          "type": "uint256"
        }
      ],
      "payable": false,
      "stateMutability": "view",
      "type": "function"
    },
    {
      "constant": true,
      "inputs": [
        {
          "internalType": "uint256",
          "name": "index",
          "type": "uint256"
        }
      ],
      "name": "getOwnerByChallenge",
      "outputs": [
        {
          "internalType": "string",
          "name": "",
          "type": "string"
        }
      ],
      "payable": false,
      "stateMutability": "view",
      "type": "function"
    }
  ],
  "bytecode": "0x608060405234801561001057600080fd5b5060048054600160a060020a03191633179055615ef880620000336000396000f3fe608060405234801561001057600080fd5b50600436106101d6576000357c01000000000000000000000000000000000000000000000000000000009004806372218ffe11610116578063d7a23fd4116100b4578063e2a3b1771161008e578063e2a3b177146115c8578063e2b09603146116fc578063f4f4fa22146117b0578063f71d96cb1461185d576101d6565b8063d7a23fd414611239578063e005945914611256578063e05896611461159f576101d6565b8063a0258166116100f0578063a025816614610e40578063a95fffc614610fbc578063b586a74014610fdf578063d3ad3e3414611099576101d6565b806372218ffe1461097d5780638f1d377614610a2f5780639e3d2e6814610c83576101d6565b80633448b92311610183578063450b13321161015d578063450b1332146107d5578063481c6a751461087b578063573808fc146108ac5780635f10c410146108cb576101d6565b80633448b9231461067e5780633648ffae14610710578063408968091461072d576101d6565b806323f0a567116101b457806323f0a5671461048f57806333f33a42146105bb57806334484351146105d8576101d6565b80630933f467146101db5780631471a1ae146101f55780631f11b24f1461035c575b600080fd5b6101e361187a565b60408051918252519081900360200190f35b6102186004803603604081101561020b57600080fd5b5080359060200135611881565b60405180806020018060200180602001848103845287818151815260200191508051906020019080838360005b8381101561025d578181015183820152602001610245565b50505050905090810190601f16801561028a5780820380516001836020036101000a031916815260200191505b50848103835286518152865160209182019188019080838360005b838110156102bd5781810151838201526020016102a5565b50505050905090810190601f1680156102ea5780820380516001836020036101000a031916815260200191505b50848103825285518152855160209182019187019080838360005b8381101561031d578181015183820152602001610305565b50505050905090810190601f16801561034a5780820380516001836020036101000a031916815260200191505b50965050505050505060405180910390f35b6104026004803603602081101561037257600080fd5b81019060208101813564010000000081111561038d57600080fd5b82018360208201111561039f57600080fd5b803590602001918460018302840111640100000000831117156103c157600080fd5b91908080601f016020809104026020016040519081016040528093929190818152602001838380828437600092019190915250929550611acd945050505050565b6040518080602001858152602001848152602001838152602001828103825286818151815260200191508051906020019080838360005b83811015610451578181015183820152602001610439565b50505050905090810190601f16801561047e5780820380516001836020036101000a031916815260200191505b509550505050505060405180910390f35b61053c600480360360408110156104a557600080fd5b813591908101906040810160208201356401000000008111156104c757600080fd5b8201836020820111156104d957600080fd5b803590602001918460018302840111640100000000831117156104fb57600080fd5b91908080601f016020809104026020016040519081016040528093929190818152602001838380828437600092019190915250929550611d05945050505050565b6040518080602001838152602001828103825284818151815260200191508051906020019080838360005b8381101561057f578181015183820152602001610567565b50505050905090810190601f1680156105ac5780820380516001836020036101000a031916815260200191505b50935050505060405180910390f35b6101e3600480360360208110156105d157600080fd5b5035611ea3565b6101e3600480360360208110156105ee57600080fd5b81019060208101813564010000000081111561060957600080fd5b82018360208201111561061b57600080fd5b8035906020019184600183028401116401000000008311171561063d57600080fd5b91908080601f016020809104026020016040519081016040528093929190818152602001838380828437600092019190915250929550611ecc945050505050565b61069b6004803603602081101561069457600080fd5b5035611f37565b6040805160208082528351818301528351919283929083019185019080838360005b838110156106d55781810151838201526020016106bd565b50505050905090810190601f1680156107025780820380516001836020036101000a031916815260200191505b509250505060405180910390f35b6101e36004803603602081101561072657600080fd5b5035611fd6565b6102186004803603604081101561074357600080fd5b81019060208101813564010000000081111561075e57600080fd5b82018360208201111561077057600080fd5b8035906020019184600183028401116401000000008311171561079257600080fd5b91908080601f0160208091040260200160405190810160405280939291908181526020018383808284376000920191909152509295505091359250611fff915050565b6101e3600480360360208110156107eb57600080fd5b81019060208101813564010000000081111561080657600080fd5b82018360208201111561081857600080fd5b8035906020019184600183028401116401000000008311171561083a57600080fd5b91908080601f0160208091040260200160405190810160405280939291908181526020018383808284376000920191909152509295506121b5945050505050565b610883612220565b6040805173ffffffffffffffffffffffffffffffffffffffff9092168252519081900360200190f35b6108c9600480360360208110156108c257600080fd5b503561223c565b005b6101e3600480360360608110156108e157600080fd5b81359160208101359181019060608101604082013564010000000081111561090857600080fd5b82018360208201111561091a57600080fd5b8035906020019184600183028401116401000000008311171561093c57600080fd5b91908080601f01602080910402602001604051908101604052809392919081815260200183838082843760009201919091525092955061277f945050505050565b61053c6004803603606081101561099357600080fd5b8135916020810135918101906060810160408201356401000000008111156109ba57600080fd5b8201836020820111156109cc57600080fd5b803590602001918460018302840111640100000000831117156109ee57600080fd5b91908080601f016020809104026020016040519081016040528093929190818152602001838380828437600092019190915250929550612df1945050505050565b610a4c60048036036020811015610a4557600080fd5b5035612f89565b6040518080602001806020018060200180602001806020018a1515151581526020018915151515815260200188815260200187815260200186810386528f818151815260200191508051906020019080838360005b83811015610ab9578181015183820152602001610aa1565b50505050905090810190601f168015610ae65780820380516001836020036101000a031916815260200191505b5086810385528e818151815260200191508051906020019080838360005b83811015610b1c578181015183820152602001610b04565b50505050905090810190601f168015610b495780820380516001836020036101000a031916815260200191505b5086810384528d5181528d516020918201918f019080838360005b83811015610b7c578181015183820152602001610b64565b50505050905090810190601f168015610ba95780820380516001836020036101000a031916815260200191505b5086810383528c5181528c516020918201918e019080838360005b83811015610bdc578181015183820152602001610bc4565b50505050905090810190601f168015610c095780820380516001836020036101000a031916815260200191505b5086810382528b5181528b516020918201918d019080838360005b83811015610c3c578181015183820152602001610c24565b50505050905090810190601f168015610c695780820380516001836020036101000a031916815260200191505b509e50505050505050505050505050505060405180910390f35b6108c9600480360360a0811015610c9957600080fd5b81359190810190604081016020820135640100000000811115610cbb57600080fd5b820183602082011115610ccd57600080fd5b80359060200191846001830284011164010000000083111715610cef57600080fd5b91908080601f0160208091040260200160405190810160405280939291908181526020018383808284376000920191909152509295949360208101935035915050640100000000811115610d4257600080fd5b820183602082011115610d5457600080fd5b80359060200191846001830284011164010000000083111715610d7657600080fd5b91908080601f0160208091040260200160405190810160405280939291908181526020018383808284376000920191909152509295949360208101935035915050640100000000811115610dc957600080fd5b820183602082011115610ddb57600080fd5b80359060200191846001830284011164010000000083111715610dfd57600080fd5b91908080601f01602080910402602001604051908101604052809392919081815260200183838082843760009201919091525092955050913592506132a8915050565b610e6360048036036040811015610e5657600080fd5b50803590602001356135e7565b6040518080602001806020018060200187815260200186815260200185815260200184810384528a818151815260200191508051906020019080838360005b83811015610eba578181015183820152602001610ea2565b50505050905090810190601f168015610ee75780820380516001836020036101000a031916815260200191505b5084810383528951815289516020918201918b019080838360005b83811015610f1a578181015183820152602001610f02565b50505050905090810190601f168015610f475780820380516001836020036101000a031916815260200191505b5084810382528851815288516020918201918a019080838360005b83811015610f7a578181015183820152602001610f62565b50505050905090810190601f168015610fa75780820380516001836020036101000a031916815260200191505b50995050505050505050505060405180910390f35b61069b60048036036040811015610fd257600080fd5b50803590602001356138dd565b61108560048036036020811015610ff557600080fd5b81019060208101813564010000000081111561101057600080fd5b82018360208201111561102257600080fd5b8035906020019184600183028401116401000000008311171561104457600080fd5b91908080601f0160208091040260200160405190810160405280939291908181526020018383808284376000920191909152509295506139a3945050505050565b604080519115158252519081900360200190f35b611146600480360360408110156110af57600080fd5b813591908101906040810160208201356401000000008111156110d157600080fd5b8201836020820111156110e357600080fd5b8035906020019184600183028401116401000000008311171561110557600080fd5b91908080601f016020809104026020016040519081016040528093929190818152602001838380828437600092019190915250929550613b39945050505050565b604051808060200186815260200185815260200180602001848152602001838103835288818151815260200191508051906020019080838360005b83811015611199578181015183820152602001611181565b50505050905090810190601f1680156111c65780820380516001836020036101000a031916815260200191505b50838103825285518152855160209182019187019080838360005b838110156111f95781810151838201526020016111e1565b50505050905090810190601f1680156112265780820380516001836020036101000a031916815260200191505b5097505050505050505060405180910390f35b6101e36004803603602081101561124f57600080fd5b50356149ba565b6108c9600480360360c081101561126c57600080fd5b81019060208101813564010000000081111561128757600080fd5b82018360208201111561129957600080fd5b803590602001918460018302840111640100000000831117156112bb57600080fd5b91908080601f016020809104026020016040519081016040528093929190818152602001838380828437600092019190915250929594936020810193503591505064010000000081111561130e57600080fd5b82018360208201111561132057600080fd5b8035906020019184600183028401116401000000008311171561134257600080fd5b91908080601f016020809104026020016040519081016040528093929190818152602001838380828437600092019190915250929594936020810193503591505064010000000081111561139557600080fd5b8201836020820111156113a757600080fd5b803590602001918460018302840111640100000000831117156113c957600080fd5b91908080601f016020809104026020016040519081016040528093929190818152602001838380828437600092019190915250929594936020810193503591505064010000000081111561141c57600080fd5b82018360208201111561142e57600080fd5b8035906020019184600183028401116401000000008311171561145057600080fd5b91908080601f01602080910402602001604051908101604052809392919081815260200183838082843760009201919091525092959493602081019350359150506401000000008111156114a357600080fd5b8201836020820111156114b557600080fd5b803590602001918460018302840111640100000000831117156114d757600080fd5b91908080601f016020809104026020016040519081016040528093929190818152602001838380828437600092019190915250929594936020810193503591505064010000000081111561152a57600080fd5b82018360208201111561153c57600080fd5b8035906020019184600183028401116401000000008311171561155e57600080fd5b91908080601f0160208091040260200160405190810160405280939291908181526020018383808284376000920191909152509295506149e3945050505050565b6101e3600480360360608110156115b557600080fd5b5080359060208101359060400135614c02565b6108c9600480360360608110156115de57600080fd5b8135919081019060408101602082013564010000000081111561160057600080fd5b82018360208201111561161257600080fd5b8035906020019184600183028401116401000000008311171561163457600080fd5b91908080601f016020809104026020016040519081016040528093929190818152602001838380828437600092019190915250929594936020810193503591505064010000000081111561168757600080fd5b82018360208201111561169957600080fd5b803590602001918460018302840111640100000000831117156116bb57600080fd5b91908080601f016020809104026020016040519081016040528093929190818152602001838380828437600092019190915250929550614c45945050505050565b6101e36004803603608081101561171257600080fd5b81359160208101359181019060608101604082013564010000000081111561173957600080fd5b82018360208201111561174b57600080fd5b8035906020019184600183028401116401000000008311171561176d57600080fd5b91908080601f0160208091040260200160405190810160405280939291908181526020018383808284376000920191909152509295505091359250614dd1915050565b611085600480360360408110156117c657600080fd5b813591908101906040810160208201356401000000008111156117e857600080fd5b8201836020820111156117fa57600080fd5b8035906020019184600183028401116401000000008311171561181c57600080fd5b91908080601f01602080910402602001604051908101604052809392919081815260200183838082843760009201919091525092955061561b945050505050565b61069b6004803603602081101561187357600080fd5b50356156a3565b6003545b90565b60608060606003858154811061189357fe5b9060005260206000209060100201600d016000858152602001908152602001600020600001600386815481106118c557fe5b9060005260206000209060100201600d016000868152602001908152602001600020600101600387815481106118f757fe5b60009182526020808320898452601092909202909101600d01815260409182902084548351600260018316156101000260001901909216829004601f8101859004850282018501909552848152910192909185919083018282801561199d5780601f106119725761010080835404028352916020019161199d565b820191906000526020600020905b81548152906001019060200180831161198057829003601f168201915b5050855460408051602060026001851615610100026000190190941693909304601f810184900484028201840190925281815295985087945092508401905082828015611a2b5780601f10611a0057610100808354040283529160200191611a2b565b820191906000526020600020905b815481529060010190602001808311611a0e57829003601f168201915b5050845460408051602060026001851615610100026000190190941693909304601f810184900484028201840190925281815295975086945092508401905082828015611ab95780601f10611a8e57610100808354040283529160200191611ab9565b820191906000526020600020905b815481529060010190602001808311611a9c57829003601f168201915b505050505090509250925092509250925092565b606060008060006002856040518082805190602001908083835b60208310611b065780518252601f199092019160209182019101611ae7565b51815160209384036101000a6000190180199092169116179052920194855250604051938490038101842089519094600294508a9350918291908401908083835b60208310611b665780518252601f199092019160209182019101611b47565b51815160209384036101000a60001901801990921691161790529201948552506040519384900381018420600101548a519094600294508b9350918291908401908083835b60208310611bca5780518252601f199092019160209182019101611bab565b6001836020036101000a0380198251168184511680821785525050505050509050019150509081526020016040518091039020600201546002886040518082805190602001908083835b60208310611c335780518252601f199092019160209182019101611c14565b518151600019602094850361010090810a82019283169219939093169190911790925294909201968752604080519788900382018820600301548b54601f600260018316159098029095011695909504928301829004820288018201905281875292959450889350918401905082828015611cef5780601f10611cc457610100808354040283529160200191611cef565b820191906000526020600020905b815481529060010190602001808311611cd257829003601f168201915b5050505050935093509350935093509193509193565b6060600060038481548110611d1657fe5b9060005260206000209060100201600901836040518082805190602001908083835b60208310611d575780518252601f199092019160209182019101611d38565b51815160209384036101000a6000190180199092169116179052920194855250604051938490030190922060038054919350915086908110611d9557fe5b9060005260206000209060100201600901846040518082805190602001908083835b60208310611dd65780518252601f199092019160209182019101611db7565b518151600019602094850361010090810a820192831692199390931691909117909252949092019687526040805197889003820188206001908101548a54601f600293821615909802909501909416049485018290048202880182019052838752909594508693508401905082828015611e915780601f10611e6657610100808354040283529160200191611e91565b820191906000526020600020905b815481529060010190602001808311611e7457829003601f168201915b50505050509150915091509250929050565b600060038281548110611eb257fe5b60009182526020909120600c601090920201015492915050565b60006002826040518082805190602001908083835b60208310611f005780518252601f199092019160209182019101611ee1565b51815160209384036101000a6000190180199092169116179052920194855250604051938490030190922060040154949350505050565b6000818152602081815260409182902080548351601f6002600019610100600186161502019093169290920491820184900484028101840190945280845260609392830182828015611fca5780601f10611f9f57610100808354040283529160200191611fca565b820191906000526020600020905b815481529060010190602001808311611fad57829003601f168201915b50505050509050919050565b600060038281548110611fe557fe5b600091825260209091206008601090920201015492915050565b60608060606002856040518082805190602001908083835b602083106120365780518252601f199092019160209182019101612017565b51815160209384036101000a600019018019909216911617905292019485525060408051948590038201852060008a8152600590910183522089519094600294508a9350918291908401908083835b602083106120a45780518252601f199092019160209182019101612085565b51815160209384036101000a600019018019909216911617905292019485525060408051948590038201852060008b815260059091018352208a51600190910194600294508b9350918291908401908083835b602083106121165780518252601f1990920191602091820191016120f7565b518151600019602094850361010090810a8201928316921993909316919091179092529490920196875260408051978890038201882060008f8152600590910183528190208a54601f60026001831615909802909501168690049384018390048302890183019091528288529390930195945087935091840190508282801561199d5780601f106119725761010080835404028352916020019161199d565b60006002826040518082805190602001908083835b602083106121e95780518252601f1990920191602091820191016121ca565b51815160209384036101000a6000190180199092169116179052920194855250604051938490030190922060030154949350505050565b60045473ffffffffffffffffffffffffffffffffffffffff1681565b6003818154811061224957fe5b906000526020600020906010020160050160019054906101000a900460ff166122d357604080517f08c379a000000000000000000000000000000000000000000000000000000000815260206004820152600d60248201527f436865636b20417070726f766500000000000000000000000000000000000000604482015290519081900360640190fd5b600381815481106122e057fe5b600091825260209091206005601090920201015460ff161561236357604080517f08c379a000000000000000000000000000000000000000000000000000000000815260206004820152600e60248201527f436865636b2046696e6973686564000000000000000000000000000000000000604482015290519081900360640190fd5b60016003828154811061237257fe5b600091825260209091206010909102016005908101805460ff1916921515929092179091556060805190916123a991608090615bb7565b5060005b6001600384815481106123bc57fe5b9060005260206000209060100201600801805490500381101561277a57600383815481106123e657fe5b9060005260206000209060100201600a01546003848154811061240557fe5b90600052602060002090601002016009016003858154811061242357fe5b9060005260206000209060100201600801838154811061243f57fe5b9060005260206000200160405180828054600181600116156101000203166002900480156124a45780601f106124825761010080835404028352918201916124a4565b820191906000526020600020905b815481529060010190602001808311612490575b505091505090815260200160405180910390206001015414156127725760c86002600385815481106124d257fe5b906000526020600020906010020160080183815481106124ee57fe5b9060005260206000200160405180828054600181600116156101000203166002900480156125535780601f10612531576101008083540402835291820191612553565b820191906000526020600020905b81548152906001019060200180831161253f575b5050928352505060405190819003602001902060010180549091019055600380548490811061257e57fe5b9060005260206000209060100201600d016000600381526020019081526020016000206002600385815481106125b057fe5b906000526020600020906010020160080183815481106125cc57fe5b9060005260206000200160405180828054600181600116156101000203166002900480156126315780601f1061260f576101008083540402835291820191612631565b820191906000526020600020905b81548152906001019060200180831161261d575b50509150509081526020016040518091039020600501600060026003878154811061265857fe5b9060005260206000209060100201600801858154811061267457fe5b9060005260206000200160405180828054600181600116156101000203166002900480156126d95780601f106126b75761010080835404028352918201916126d9565b820191906000526020600020905b8154815290600101906020018083116126c5575b50509283525050604080516020928190038301902060040154835290820192909252016000208154612721908290849060026001821615610100026000190190911604615c02565b5060018201816001019080546001816001161561010002031660029004612749929190615c02565b506002828101805461276e928481019291600019610100600183161502011604615c02565b5050505b6001016123ad565b505050565b6000806002836040518082805190602001908083835b602083106127b45780518252601f199092019160209182019101612795565b51815160209384036101000a60001901801990921691161790529201948552506040805194859003820190942060008a815260069091018252848120898252600701909152929092206003015492909211915061284e905057604080517f08c379a0000000000000000000000000000000000000000000000000000000008152602060048201526000602482015290519081900360640190fd5b6002826040518082805190602001908083835b602083106128805780518252601f199092019160209182019101612861565b51815160001960209485036101000a810191821691199290921617909152939091019586526040805196879003820190962060008b8152600690910182528681208a825260070190915294909420600390810180549092019091558054909350879250821090506128ed57fe5b90600052602060002090601002016007016000848152602001908152602001600020600401546002836040518082805190602001908083835b602083106129455780518252601f199092019160209182019101612926565b51815160209384036101000a600019018019909216911617905292019485525060405193849003019092206002018054939093019092555050600380548590811061298c57fe5b9060005260206000209060100201600701600084815260200190815260200160002060050154600385815481106129bf57fe5b9060005260206000209060100201600901836040518082805190602001908083835b60208310612a005780518252601f1990920191602091820191016129e1565b51815160209384036101000a6000190180199092169116179052920194855250604051938490030190922060010180549390930190925550506003805485908110612a4757fe5b9060005260206000209060100201600a015460038581548110612a6657fe5b9060005260206000209060100201600901836040518082805190602001908083835b60208310612aa75780518252601f199092019160209182019101612a88565b6001836020036101000a0380198251168184511680821785525050505050509050019150509081526020016040518091039020600101541415612de6576003808581548110612af257fe5b9060005260206000209060100201600e01541015612de65760038481548110612b1757fe5b9060005260206000209060100201600d01600060038681548110612b3757fe5b9060005260206000209060100201600e015481526020019081526020016000206002836040518082805190602001908083835b60208310612b895780518252601f199092019160209182019101612b6a565b6001836020036101000a038019825116818451168082178552505050505050905001915050908152602001604051809103902060050160006002856040518082805190602001908083835b60208310612bf35780518252601f199092019160209182019101612bd4565b6001836020036101000a038019825116818451168082178552505050505050905001915050908152602001604051809103902060040180549050815260200190815260200160002060008201816000019080546001816001161561010002031660029004612c62929190615c02565b5060018201816001019080546001816001161561010002031660029004612c8a929190615c02565b5060028281018054612caf928481019291600019610100600183161502011604615c02565b509050506002826040518082805190602001908083835b60208310612ce55780518252601f199092019160209182019101612cc6565b6001836020036101000a03801982511681845116808217855250505050505090500191505090815260200160405180910390206004016002836040518082805190602001908083835b60208310612d4d5780518252601f199092019160209182019101612d2e565b51815160209384036101000a60001901801990921691161790529201948552506040519384900381019093206004015484546001810186556000958652939094209092019290925550506003805485908110612da557fe5b60009182526020909120600e60109092020101805460010190556003805485908110612dcd57fe5b9060005260206000209060100201600e01549050612dea565b5060005b9392505050565b606060006002836040518082805190602001908083835b60208310612e275780518252601f199092019160209182019101612e08565b51815160209384036101000a600019018019909216911617905292019485525060408051948590038201852060008b8152600690910183528181208a82526007018352208751909460029450889350918291908401908083835b60208310612ea05780518252601f199092019160209182019101612e81565b518151600019602094850361010090810a8201928316921993909316919091179092529490920196875260408051978890038201882060008f8152600690910183528181208e82526007018352819020600301548954601f600260018316159098029095011695909504928301829004820288018201905281875292959450869350918401905082828015612f765780601f10612f4b57610100808354040283529160200191612f76565b820191906000526020600020905b815481529060010190602001808311612f5957829003601f168201915b5050505050915091509150935093915050565b60038181548110612f9657fe5b60009182526020918290206010919091020180546040805160026001841615610100026000190190931692909204601f81018590048502830185019091528082529193509183919083018282801561302f5780601f106130045761010080835404028352916020019161302f565b820191906000526020600020905b81548152906001019060200180831161301257829003601f168201915b505050505090806001018054600181600116156101000203166002900480601f0160208091040260200160405190810160405280929190818152602001828054600181600116156101000203166002900480156130cd5780601f106130a2576101008083540402835291602001916130cd565b820191906000526020600020905b8154815290600101906020018083116130b057829003601f168201915b50505060028085018054604080516020601f600019610100600187161502019094169590950492830185900485028101850190915281815295969594509092509083018282801561315f5780601f106131345761010080835404028352916020019161315f565b820191906000526020600020905b81548152906001019060200180831161314257829003601f168201915b5050505060038301805460408051602060026001851615610100026000190190941693909304601f81018490048402820184019092528181529495949350908301828280156131ef5780601f106131c4576101008083540402835291602001916131ef565b820191906000526020600020905b8154815290600101906020018083116131d257829003601f168201915b5050505060048301805460408051602060026001851615610100026000190190941693909304601f810184900484028201840190925281815294959493509083018282801561327f5780601f106132545761010080835404028352916020019161327f565b820191906000526020600020905b81548152906001019060200180831161326257829003601f168201915b5050506005840154600a850154600e90950154939460ff80831695610100909304169350915089565b60045473ffffffffffffffffffffffffffffffffffffffff16331461330857604080517f08c379a0000000000000000000000000000000000000000000000000000000008152602060048201526000602482015290519081900360640190fd5b836003868154811061331657fe5b90600052602060002090601002016007016000613332886149ba565b81526020019081526020016000206000019080519060200190613356929190615c77565b50826003868154811061336557fe5b90600052602060002090601002016007016000613381886149ba565b815260200190815260200160002060010190805190602001906133a5929190615c77565b5081600386815481106133b457fe5b906000526020600020906010020160070160006133d0886149ba565b815260200190815260200160002060020190805190602001906133f4929190615c77565b50806003868154811061340357fe5b9060005260206000209060100201600701600061341f886149ba565b815260208101919091526040016000206003015561343c82615749565b6003868154811061344957fe5b90600052602060002090601002016007016000613465886149ba565b8152602081019190915260400160002060050155613482826157ec565b6003868154811061348f57fe5b906000526020600020906010020160070160006134ab886149ba565b8152602081019190915260400160002060040155806134c983615749565b02600386815481106134d757fe5b9060005260206000209060100201600a0160008282540192505081905550613534826040518060400160405280600681526020017f7172636f64650000000000000000000000000000000000000000000000000000815250615878565b156135a35760005b818110156135a15761354f85848361595f565b6003878154811061355c57fe5b90600052602060002090601002016007016000613578896149ba565b81526020808201929092526040908101600090812085825260060190925290205560010161353c565b505b600385815481106135b057fe5b90600052602060002090601002016006016135ca866149ba565b815460018101835560009283526020909220909101555050505050565b60608060606000806000600388815481106135fe57fe5b906000526020600020906010020160070160008881526020019081526020016000206000016003898154811061363057fe5b9060005260206000209060100201600701600089815260200190815260200160002060010160038a8154811061366257fe5b906000526020600020906010020160070160008a815260200190815260200160002060020160038b8154811061369457fe5b906000526020600020906010020160070160008b81526020019081526020016000206003015460038c815481106136c757fe5b906000526020600020906010020160070160008c81526020019081526020016000206005015460038d815481106136fa57fe5b600091825260208083208f845260076010909302019190910181526040918290206004015487548351601f600260001961010060018616150201909316929092049182018490048402810184019094528084529092918891908301828280156137a45780601f10613779576101008083540402835291602001916137a4565b820191906000526020600020905b81548152906001019060200180831161378757829003601f168201915b5050885460408051602060026001851615610100026000190190941693909304601f8101849004840282018401909252818152959b508a9450925084019050828280156138325780601f1061380757610100808354040283529160200191613832565b820191906000526020600020905b81548152906001019060200180831161381557829003601f168201915b5050875460408051602060026001851615610100026000190190941693909304601f8101849004840282018401909252818152959a50899450925084019050828280156138c05780601f10613895576101008083540402835291602001916138c0565b820191906000526020600020905b8154815290600101906020018083116138a357829003601f168201915b505050505093509550955095509550955095509295509295509295565b6060600383815481106138ec57fe5b9060005260206000209060100201600801828154811061390857fe5b600091825260209182902001805460408051601f60026000196101006001871615020190941693909304928301859004850281018501909152818152928301828280156139965780601f1061396b57610100808354040283529160200191613996565b820191906000526020600020905b81548152906001019060200180831161397957829003601f168201915b5050505050905092915050565b6000816002836040518082805190602001908083835b602083106139d85780518252601f1990920191602091820191016139b9565b51815160209384036101000a60001901801990921691161790529201948552506040519384900381019093208451613a199591949190910192509050615c77565b5060006002836040518082805190602001908083835b60208310613a4e5780518252601f199092019160209182019101613a2f565b51815160209384036101000a600019018019909216911617905292019485525060405193849003810184206001019490945550508351600092600292869290918291908401908083835b60208310613ab75780518252601f199092019160209182019101613a98565b51815160209384036101000a60001901801990921691161790529201948552506040519384900381019093206002019390935550600180548082018083556000929092528551919350613b32927fb10e2d527612073b26eecdfd717e6a320cf44b4afac2b0732d9fcbe2b7fa0cf69091019190860190615c77565b5050919050565b60606000806060600060038781548110613b4f57fe5b9060005260206000209060100201600b01866040518082805190602001908083835b60208310613b905780518252601f199092019160209182019101613b71565b51815160209384036101000a600019018019909216911617905292019485525060405193849003019092205460ff16159150613c09905057604080517f08c379a0000000000000000000000000000000000000000000000000000000008152602060048201526000602482015290519081900360640190fd5b8560038881548110613c1757fe5b9060005260206000209060100201600901876040518082805190602001908083835b60208310613c585780518252601f199092019160209182019101613c39565b51815160209384036101000a60001901801990921691161790529201948552506040519384900381019093208451613c999591949190910192509050615c77565b50600060038881548110613ca957fe5b9060005260206000209060100201600901876040518082805190602001908083835b60208310613cea5780518252601f199092019160209182019101613ccb565b51815160209384036101000a60001901801990921691161790529201948552506040519384900301909220600101929092555050600380546000919089908110613d3057fe5b9060005260206000209060100201600901876040518082805190602001908083835b60208310613d715780518252601f199092019160209182019101613d52565b51815160209384036101000a600019018019909216911617905292019485525060405193849003019092206002019290925550506003805488908110613db357fe5b600091825260208083206008601090930201919091018054600181018083559184529282902089519193613ded93910191908a0190615c77565b505060038781548110613dfc57fe5b90600052602060002090601002016002876040518082805190602001908083835b60208310613e3c5780518252601f199092019160209182019101613e1d565b51815160209384036101000a60001901801990921691161790529201948552506040519384900301909220600601915060009050613e79896121b5565b815260208101919091526040016000208154613eab908290849060026000196101006001841615020190911604615c02565b5060018201816001019080546001816001161561010002031660029004613ed3929190615c02565b5060028281018054613ef8928481019291600019610100600183161502011604615c02565b5060038201816003019080546001816001161561010002031660029004613f20929190615c02565b5060048201816004019080546001816001161561010002031660029004613f48929190615c02565b5060058281018054918301805460ff938416151560ff1990911617808255915461010090819004909316151590920261ff001990911617905560068083018054613f959284019190615ce4565b5060088281018054613faa9284019190615d23565b50600a82015481600a0155600c820181600c01908054613fcb929190615ce4565b50600e9182015491015560005b613fe1886149ba565b81101561489f5760038881548110613ff557fe5b906000526020600020906010020160070160008281526020019081526020016000206000016002886040518082805190602001908083835b6020831061404c5780518252601f19909201916020918201910161402d565b6001836020036101000a038019825116818451168082178552505050505050905001915050908152602001604051809103902060060160008a8152602001908152602001600020600701600083815260200190815260200160002060000190805460018160011615610100020316600290046140c9929190615c02565b50600388815481106140d757fe5b906000526020600020906010020160070160008281526020019081526020016000206001016002886040518082805190602001908083835b6020831061412e5780518252601f19909201916020918201910161410f565b6001836020036101000a038019825116818451168082178552505050505050905001915050908152602001604051809103902060060160008a8152602001908152602001600020600701600083815260200190815260200160002060010190805460018160011615610100020316600290046141ab929190615c02565b50600388815481106141b957fe5b906000526020600020906010020160070160008281526020019081526020016000206002016002886040518082805190602001908083835b602083106142105780518252601f1990920191602091820191016141f1565b6001836020036101000a038019825116818451168082178552505050505050905001915050908152602001604051809103902060060160008a81526020019081526020016000206007016000838152602001908152602001600020600201908054600181600116156101000203166002900461428d929190615c02565b506003888154811061429b57fe5b90600052602060002090601002016007016000828152602001908152602001600020600301546002886040518082805190602001908083835b602083106142f35780518252601f1990920191602091820191016142d4565b51815160209384036101000a60001901801990921691161790529201948552506040805194859003820190942060008e81526006909101825284812087825260070190915292909220600390810193909355505080548990811061435357fe5b90600052602060002090601002016007016000828152602001908152602001600020600501546002886040518082805190602001908083835b602083106143ab5780518252601f19909201916020918201910161438c565b51815160209384036101000a60001901801990921691161790529201948552506040805194859003820190942060008e81526006909101825284812087825260070190915292909220600501929092555050600380548990811061440b57fe5b90600052602060002090601002016007016000828152602001908152602001600020600401546002886040518082805190602001908083835b602083106144635780518252601f199092019160209182019101614444565b51815160209384036101000a60001901801990921691161790529201948552506040805194859003820190942060008e81526006909101825284812087825260070190915292909220600401929092555050600380546145ae91908a9081106144c857fe5b6000918252602080832085845260109290920290910160070181526040918290206002908101805484516001821615610100026000190190911692909204601f81018490048402830184019094528382529092909183018282801561456e5780601f106145435761010080835404028352916020019161456e565b820191906000526020600020905b81548152906001019060200180831161455157829003601f168201915b50505050506040518060400160405280600681526020017f7172636f64650000000000000000000000000000000000000000000000000000815250615878565b156147fb5760005b600389815481106145c357fe5b90600052602060002090601002016007016000838152602001908152602001600020600301548110156147f95761476560038a8154811061460057fe5b60009182526020808320868452600760109093020191909101815260409182902080548351601f6002600019610100600186161502019093169290920491820184900484028101840190945280845290918301828280156146a25780601f10614677576101008083540402835291602001916146a2565b820191906000526020600020905b81548152906001019060200180831161468557829003601f168201915b505050505060038b815481106146b457fe5b6000918252602080832087845260109290920290910160070181526040918290206002908101805484516001821615610100026000190190911692909204601f81018490048402830184019094528382529092909183018282801561475a5780601f1061472f5761010080835404028352916020019161475a565b820191906000526020600020905b81548152906001019060200180831161473d57829003601f168201915b50505050508361595f565b6002896040518082805190602001908083835b602083106147975780518252601f199092019160209182019101614778565b51815160209384036101000a60001901801990921691161790529201948552506040805194859003820190942060008f8152600691820183528581208982526007018352858120888252909101909152929092209290925550506001016145b6565b505b6002876040518082805190602001908083835b6020831061482d5780518252601f19909201916020918201910161480e565b51815160209384036101000a6000190180199092169116179052920194855250604051938490030190922060060191506000905061486a896121b5565b8152602001908152602001600020600601614884886121b5565b81546001818101845560009384526020909320015501613fd8565b506002866040518082805190602001908083835b602083106148d25780518252601f1990920191602091820191016148b3565b51815160209384036101000a60001901801990921691161790529201948552506040519384900301909220600301915061490d9050876121b5565b815460018181018455600093845260209093200155600380548990811061493057fe5b9060005260206000209060100201600b01876040518082805190602001908083835b602083106149715780518252601f199092019160209182019101614952565b51815160209384036101000a60001901801990921691161790529201948552506040519384900301909220805460ff191693151593909317909255509497939650919450925090565b6000600382815481106149c957fe5b600091825260209091206006601090920201015492915050565b60045473ffffffffffffffffffffffffffffffffffffffff163314614a4357604080517f08c379a0000000000000000000000000000000000000000000000000000000008152602060048201526000602482015290519081900360640190fd5b614a4b615d8d565b86815260208101869052604081018590526060810184905260808101839052600160c082015281600080614a7d61187a565b81526020019081526020016000209080519060200190614a9e929190615c77565b5060038054600181018083556000929092528251805184926010027fc2575a0e9e593c00f959f8c92f12db2869c3395a3b0502d05e2516446f71f85b0191614aeb91839160200190615c77565b506020828101518051614b049260018501920190615c77565b5060408201518051614b20916002840191602090910190615c77565b5060608201518051614b3c916003840191602090910190615c77565b5060808201518051614b58916004840191602090910190615c77565b5060a082015160058201805460c085015115156101000261ff001993151560ff19909216919091179290921691909117905560e08201518051614ba5916006840191602090910190615bb7565b506101008201518051614bc2916008840191602090910190615df2565b50610120820151600a8201556101408201518051614bea91600c840191602090910190615bb7565b5061016082015181600e015550505050505050505050565b600060038481548110614c1157fe5b6000918252602080832095835260109190910290940160070184526040808220938252600690930190935250902054919050565b604051806060016040528083815260200182815260200160038581548110614c6957fe5b6000918252602091829020600460109092020101805460408051601f6002600019610100600187161502019094169390930492830185900485028101850190915281815292830182828015614cff5780601f10614cd457610100808354040283529160200191614cff565b820191906000526020600020905b815481529060010190602001808311614ce257829003601f168201915b505050505081525060038481548110614d1457fe5b9060005260206000209060100201600d016000614d3086611ea3565b8152602080820192909252604001600020825180519192614d5692849290910190615c77565b506020828101518051614d6f9260018501920190615c77565b5060408201518051614d8b916002840191602090910190615c77565b5090505060038381548110614d9c57fe5b9060005260206000209060100201600c01614db684611ea3565b81546001810183556000928352602090922090910155505050565b6000806002846040518082805190602001908083835b60208310614e065780518252601f199092019160209182019101614de7565b51815160209384036101000a60001901801990921691161790529201948552506040805194859003820190942060008b8152600690910182528481208a82526007019091529290922060030154929092119150614ea0905057604080517f08c379a0000000000000000000000000000000000000000000000000000000008152602060048201526000602482015290519081900360640190fd5b6000805b60038781548110614eb157fe5b906000526020600020906010020160070160008781526020019081526020016000206003015481101561523f578360038881548110614eec57fe5b600091825260208083208a845260076010909302019190910181526040808320858452600601909152902054148015614faf57506002856040518082805190602001908083835b60208310614f525780518252601f199092019160209182019101614f33565b51815160209384036101000a60001901801990921691161790529201948552506040805194859003820190942060008c8152600690910182528481208b8252600790810183528582208a835201909152929092205460ff16159150505b156152375760016002866040518082805190602001908083835b60208310614fe85780518252601f199092019160209182019101614fc9565b51815160209384036101000a600019018019909216911617905292019485525060408051948590038201852060008e8152600690910183528181208d8252600790810184528282208c835201835220805460ff1916951515959095179094555050865160029288929182918401908083835b602083106150795780518252601f19909201916020918201910161505a565b51815160001960209485036101000a810191821691199290921617909152939091019586526040805196879003820190962060008e8152600690910182528681208d8252600701909152949094206003908101805490920190915580549093508a9250821090506150e657fe5b90600052602060002090601002016007016000878152602001908152602001600020600401546002866040518082805190602001908083835b6020831061513e5780518252601f19909201916020918201910161511f565b51815160209384036101000a60001901801990921691161790529201948552506040519384900301909220600201805493909301909255505060038054600193508890811061518957fe5b9060005260206000209060100201600701600087815260200190815260200160002060050154600388815481106151bc57fe5b9060005260206000209060100201600901866040518082805190602001908083835b602083106151fd5780518252601f1990920191602091820191016151de565b51815160209384036101000a6000190180199092169116179052920194855250604051938490030190922060010180549390930190925550505b600101614ea4565b508015615607576003868154811061525357fe5b9060005260206000209060100201600a01546003878154811061527257fe5b9060005260206000209060100201600901856040518082805190602001908083835b602083106152b35780518252601f199092019160209182019101615294565b6001836020036101000a03801982511681845116808217855250505050505090500191505090815260200160405180910390206001015414156155f85760038087815481106152fe57fe5b9060005260206000209060100201600e015410156155f3576003868154811061532357fe5b9060005260206000209060100201600d0160006003888154811061534357fe5b9060005260206000209060100201600e015481526020019081526020016000206002856040518082805190602001908083835b602083106153955780518252601f199092019160209182019101615376565b6001836020036101000a038019825116818451168082178552505050505050905001915050908152602001604051809103902060050160006002876040518082805190602001908083835b602083106153ff5780518252601f1990920191602091820191016153e0565b6001836020036101000a03801982511681845116808217855250505050505090500191505090815260200160405180910390206004018054905081526020019081526020016000206000820181600001908054600181600116156101000203166002900461546e929190615c02565b5060018201816001019080546001816001161561010002031660029004615496929190615c02565b50600282810180546154bb928481019291600019610100600183161502011604615c02565b509050506002846040518082805190602001908083835b602083106154f15780518252601f1990920191602091820191016154d2565b6001836020036101000a03801982511681845116808217855250505050505090500191505090815260200160405180910390206004016002856040518082805190602001908083835b602083106155595780518252601f19909201916020918201910161553a565b51815160209384036101000a600019018019909216911617905292019485525060405193849003810190932060040154845460018101865560009586529390942090920192909255505060038054879081106155b157fe5b60009182526020909120600e601090920201018054600101905560038054879081106155d957fe5b9060005260206000209060100201600e0154915050615613565b615602565b6005915050615613565b615611565b6000915050615613565b505b949350505050565b60006003838154811061562a57fe5b9060005260206000209060100201600b01826040518082805190602001908083835b6020831061566b5780518252601f19909201916020918201910161564c565b51815160209384036101000a600019018019909216911617905292019485525060405193849003019092205460ff1695945050505050565b600181815481106156b057fe5b600091825260209182902001805460408051601f60026000196101006001871615020190941693909304928301859004850281018501909152818152935090918301828280156157415780601f1061571657610100808354040283529160200191615741565b820191906000526020600020905b81548152906001019060200180831161572457829003601f168201915b505050505081565b600061578a826040518060400160405280600681526020017f7172636f64650000000000000000000000000000000000000000000000000000815250615878565b6157e0576157cd826040518060400160405280600881526020017f7175657374696f6e000000000000000000000000000000000000000000000000815250615878565b6157d85760646157db565b60325b6157e3565b60c85b60ff1692915050565b600061582d826040518060400160405280600681526020017f7172636f64650000000000000000000000000000000000000000000000000000815250615878565b615870576157cd826040518060400160405280600881526020017f7175657374696f6e000000000000000000000000000000000000000000000000815250615878565b506096919050565b6000816040516020018082805190602001908083835b602083106158ad5780518252601f19909201916020918201910161588e565b6001836020036101000a03801982511681845116808217855250505050505090500191505060405160208183030381529060405280519060200120836040516020018082805190602001908083835b6020831061591b5780518252601f1990920191602091820191016158fc565b6001836020036101000a0380198251168184511680821785525050505050509050019150506040516020818303038152906040528051906020012014905092915050565b60008161596c576101b891505b8160005b811561598457600101600a82049150615970565b6060816040519080825280601f01601f1916602001820160405280156159b1576020820181803883390190505b50905060001982015b8515615a3657600a86066030017f010000000000000000000000000000000000000000000000000000000000000002828280600190039350815181106159fc57fe5b60200101907effffffffffffffffffffffffffffffffffffffffffffffffffffffffffffff1916908160001a905350600a860495506159ba565b60608888846040516020018084805190602001908083835b60208310615a6d5780518252601f199092019160209182019101615a4e565b51815160209384036101000a600019018019909216911617905286519190930192860191508083835b60208310615ab55780518252601f199092019160209182019101615a96565b51815160209384036101000a600019018019909216911617905285519190930192850191508083835b60208310615afd5780518252601f199092019160209182019101615ade565b6001836020036101000a038019825116818451168082178552505050505050905001935050505060405160208183030381529060405290506000816040516020018082805190602001908083835b60208310615b6a5780518252601f199092019160209182019101615b4b565b6001836020036101000a0380198251168184511680821785525050505050509050019150506040516020818303038152906040528051906020012090508096505050505050509392505050565b828054828255906000526020600020908101928215615bf2579160200282015b82811115615bf2578251825591602001919060010190615bd7565b50615bfe929150615e3f565b5090565b828054600181600116156101000203166002900490600052602060002090601f016020900481019282601f10615c3b5780548555615bf2565b82800160010185558215615bf257600052602060002091601f016020900482015b82811115615bf2578254825591600101919060010190615c5c565b828054600181600116156101000203166002900490600052602060002090601f016020900481019282601f10615cb857805160ff1916838001178555615bf2565b82800160010185558215615bf25791820182811115615bf2578251825591602001919060010190615bd7565b828054828255906000526020600020908101928215615bf257600052602060002091820182811115615bf2578254825591600101919060010190615c5c565b828054828255906000526020600020908101928215615d815760005260206000209182015b82811115615d815782829080546001816001161561010002031660029004615d71929190615c02565b5091600101919060010190615d48565b50615bfe929150615e59565b604051806101800160405280606081526020016060815260200160608152602001606081526020016060815260200160001515815260200160001515815260200160608152602001606081526020016000815260200160608152602001600081525090565b828054828255906000526020600020908101928215615d81579160200282015b82811115615d815782518051615e2f918491602090910190615c77565b5091602001919060010190615e12565b61187e91905b80821115615bfe5760008155600101615e45565b61187e91905b80821115615bfe576000615e738282615e7c565b50600101615e5f565b50805460018160011615610100020316600290046000825580601f10615ea25750615ec0565b601f016020900490600052602060002090810190615ec09190615e3f565b5056fea265627a7a723158203adf5c5a4816a4ee56a84c54ec4cfca99946b23d6c82ba36f7941c0f86609e0964736f6c63430005100032",
  "source": "pragma solidity >=0.4.21 <0.7.0;\n\ncontract Nomoriam {\n    struct Activity {\n        string title;\n        string image;\n        string category;\n        uint256 times;\n        uint256 exp;\n        uint256 point;\n        mapping(uint256 => bytes32) qrcode;\n        mapping(bytes32 => bool) qrcodeComplete;\n    }\n\n    struct Challenge {\n        string title;\n        string desc;\n        string image;\n        string create_time;\n        string end_time;\n        bool finished;\n        bool approved;\n        uint256[] activities;\n        mapping(uint256 => Activity) activity;\n        string[] players;\n        mapping(string => Player) player;\n        uint256 sum_point;\n        mapping(string => bool) joined;\n        uint256[] medals;\n        mapping(uint256 => Medal) medal;\n        uint256 countLeader;\n        mapping(uint256 => string) leaders;\n    }\n\n    struct Medal {\n        string title;\n        string image;\n        string create_time;\n    }\n\n    struct Player {\n        string uid;\n        uint256 point;\n        uint256 exp;\n        uint256[] challenges;\n        uint256[] medals;\n        mapping(uint256 => Medal) medal;\n        mapping(uint256 => Challenge) challenge;\n    }\n\n    mapping(uint256 => string) owner;\n    string[] public players;\n    mapping(string => Player) player;\n\n    Challenge[] public challenges;\n\n    address public manager;\n\n    constructor() public {\n        manager = msg.sender;\n    }\n\n    modifier restricted() {\n        require(msg.sender == manager, \"\");\n        _;\n    }\n\n    function compareString(string memory a, string memory b)\n        internal\n        pure\n        returns (bool)\n    {\n        return keccak256(abi.encodePacked(a)) == keccak256(abi.encodePacked(b));\n    }\n\n    /* \n        Challenge\n    */\n\n    function createChallenge(\n        string memory title,\n        string memory desc,\n        string memory image,\n        string memory create_time,\n        string memory end_time,\n        string memory _owner\n    ) public restricted {\n        Challenge memory newChallenge;\n        newChallenge.title = title;\n        newChallenge.desc = desc;\n        newChallenge.image = image;\n        newChallenge.create_time = create_time;\n        newChallenge.end_time = end_time;\n        newChallenge.approved = true;\n        owner[getChallengeCount()] = _owner;\n\n        challenges.push(newChallenge);\n    }\n\n    uint256[] points;\n\n    function finishChallenge(uint256 index) public {\n        require(challenges[index].approved, \"Check Approve\");\n        require(!challenges[index].finished, \"Check Finished\");\n        challenges[index].finished = true;\n\n        uint256[] memory temp;\n        points = temp;\n\n        for (uint256 i = 0; i < challenges[index].players.length - 1; i++) {\n            if (\n                (challenges[index].player[challenges[index].players[i]].point ==\n                    challenges[index].sum_point)\n            ) {\n                player[challenges[index].players[i]].point += 200;\n                player[challenges[index].players[i]]\n                    .medal[player[challenges[index].players[i]]\n                    .medals\n                    .length] = challenges[index].medal[3];\n            }\n        }\n    }\n\n    function joinChallenge(uint256 index, string memory uid)\n        public\n        returns (string memory, uint256, uint256, string memory, uint256)\n    {\n        require(!challenges[index].joined[uid], \"\");\n        // Challenge\n        challenges[index].player[uid].uid = uid;\n        challenges[index].player[uid].point = 0;\n        challenges[index].player[uid].exp = 0;\n        challenges[index].players.push(uid);\n\n        // Player\n        player[uid].challenge[getChallengeCountByPlayer(\n            uid\n        )] = challenges[index];\n\n        for (uint256 i = 0; i < getActivityCount(index); i++) {\n            player[uid].challenge[index].activity[i].title = challenges[index]\n                .activity[i]\n                .title;\n            player[uid].challenge[index].activity[i].image = challenges[index]\n                .activity[i]\n                .image;\n            player[uid].challenge[index].activity[i]\n                .category = challenges[index].activity[i].category;\n            player[uid].challenge[index].activity[i].times = challenges[index]\n                .activity[i]\n                .times;\n            player[uid].challenge[index].activity[i].point = challenges[index]\n                .activity[i]\n                .point;\n            player[uid].challenge[index].activity[i].exp = challenges[index]\n                .activity[i]\n                .exp;\n            if (\n                compareString(challenges[index].activity[i].category, \"qrcode\")\n            ) {\n                for (\n                    uint256 j = 0;\n                    j < challenges[index].activity[i].times;\n                    j++\n                ) {\n                    player[uid].challenge[index].activity[i]\n                        .qrcode[j] = generateQRcode(\n                        challenges[index].activity[i].title,\n                        challenges[index].activity[i].category,\n                        j\n                    );\n                }\n            }\n            player[uid].challenge[getChallengeCountByPlayer(uid)]\n                .activities\n                .push(getChallengeCountByPlayer(uid));\n        }\n        player[uid].challenges.push(getChallengeCountByPlayer(uid));\n        challenges[index].joined[uid] = true;\n    }\n    function addActivity(\n        uint256 _index,\n        string memory title,\n        string memory image,\n        string memory category,\n        uint256 times\n    ) public restricted {\n        challenges[_index].activity[getActivityCount(_index)].title = title;\n        challenges[_index].activity[getActivityCount(_index)].image = image;\n        challenges[_index].activity[getActivityCount(_index)]\n            .category = category;\n        challenges[_index].activity[getActivityCount(_index)].times = times;\n        challenges[_index].activity[getActivityCount(_index)]\n            .point = generatePoint(category);\n        challenges[_index].activity[getActivityCount(_index)].exp = generateExp(\n            category\n        );\n        challenges[_index].sum_point += generatePoint(category) * times;\n        if (compareString(category, \"qrcode\")) {\n            for (uint256 i = 0; i < times; i++) {\n                challenges[_index].activity[getActivityCount(_index)]\n                    .qrcode[i] = generateQRcode(title, category, i);\n            }\n        }\n        challenges[_index].activities.push(getActivityCount(_index));\n    }\n\n    function generateQRcode(string memory word, string memory word2, uint256 _i)\n        internal\n        pure\n        returns (bytes32)\n    {\n        if (_i == 0) {\n            _i = 440;\n        }\n        uint256 j = _i;\n        uint256 len;\n        while (j != 0) {\n            len++;\n            j /= 10;\n        }\n        bytes memory bstr = new bytes(len);\n        uint256 k = len - 1;\n        while (_i != 0) {\n            bstr[k--] = bytes1(uint8(48 + (_i % 10)));\n            _i /= 10;\n        }\n        string memory concat = string(\n            abi.encodePacked(word, word2, string(bstr))\n        );\n        bytes32 hash = keccak256(abi.encodePacked(concat));\n        return hash;\n    }\n\n    function doPost(uint256 _index, uint256 _count, string memory uid)\n        public\n        returns (uint256)\n    {\n        require(player[uid].challenge[_index].activity[_count].times > 0, \"\");\n\n        // Add Exp to Player\n        player[uid].challenge[_index].activity[_count].times--;\n        player[uid].exp += challenges[_index].activity[_count].exp;\n        // Add Point to Challenge\n        challenges[_index].player[uid].point += challenges[_index]\n            .activity[_count]\n            .point;\n\n        if (\n            challenges[_index].player[uid].point == challenges[_index].sum_point\n        ) {\n            if (challenges[_index].countLeader < 3) {\n                player[uid].medal[player[uid]\n                    .medals\n                    .length] = challenges[_index].medal[challenges[_index]\n                    .countLeader];\n                player[uid].medals.push(player[uid].medals.length);\n                challenges[_index].countLeader++;\n                return challenges[_index].countLeader;\n            }\n        }\n\n        return 0;\n    }\n\n    // function doQuestion(uint _index, uint _count, string memory uid, string memory answer) public returns(bool){\n    //     require(compareString(answer, challenges[_index].activity[_count].answer),\"\");\n    //     require(player[uid].challenge[_index].activity[_count].times == 1, \"\");\n\n    //     // add Exp to player\n    //     player[uid].challenge[_index].activity[_count].times--;\n    //     player[uid].exp += challenges[_index].activity[_count].exp;\n    //     // add Point to challenge\n    //     challenges[_index].player[uid].point += challenges[_index].activity[_count].point;\n    // }\n\n    function doQRCode(\n        uint256 _index,\n        uint256 _count,\n        string memory uid,\n        bytes32 qrcode\n    ) public returns (uint256) {\n        require(player[uid].challenge[_index].activity[_count].times > 0, \"\");\n        bool isExist = false;\n        for (\n            uint256 i = 0;\n            i < challenges[_index].activity[_count].times;\n            i++\n        ) {\n            if (\n                challenges[_index].activity[_count].qrcode[i] == qrcode &&\n                !player[uid].challenge[_index].activity[_count]\n                    .qrcodeComplete[qrcode]\n            ) {\n                player[uid].challenge[_index].activity[_count]\n                    .qrcodeComplete[qrcode] = true;\n                // add exp to player\n                player[uid].challenge[_index].activity[_count].times--;\n                player[uid].exp += challenges[_index].activity[_count].exp;\n                // add Point to challenge\n                isExist = true;\n                challenges[_index].player[uid].point += challenges[_index]\n                    .activity[_count]\n                    .point;\n            }\n        }\n        if (isExist) {\n            if (\n                challenges[_index].player[uid].point ==\n                challenges[_index].sum_point\n            ) {\n                if (challenges[_index].countLeader < 3) {\n                    player[uid].medal[player[uid]\n                        .medals\n                        .length] = challenges[_index].medal[challenges[_index]\n                        .countLeader];\n                    player[uid].medals.push(player[uid].medals.length);\n                    challenges[_index].countLeader++;\n                    return challenges[_index].countLeader;\n                }\n            } else {\n                return 5;\n            }\n        }else{\n            return 0;\n        }\n\n    }\n\n    function generatePoint(string memory category)\n        internal\n        pure\n        returns (uint256)\n    {\n        return\n            compareString(category, \"qrcode\")\n                ? 200\n                : compareString(category, \"question\")\n                ? 50\n                : 100;\n    }\n\n    function generateExp(string memory category)\n        internal\n        pure\n        returns (uint256)\n    {\n        return\n            compareString(category, \"qrcode\")\n                ? 150\n                : compareString(category, \"question\")\n                ? 50\n                : 100;\n    }\n\n    /* \n        Player\n    */\n\n    function createPlayer(string memory uid) public returns (bool) {\n        player[uid].uid = uid;\n        player[uid].point = 0;\n        player[uid].exp = 0;\n        players.push(uid);\n    }\n\n    /*\n    \n        Medal\n    \n    */\n\n    function addMedal(\n        uint256 _index,\n        string memory _title,\n        string memory _image\n    ) public {\n        challenges[_index].medal[getMedalByChallenge(_index)] = Medal({\n            title: _title,\n            image: _image,\n            create_time: challenges[_index].end_time\n        });\n        challenges[_index].medals.push(getMedalByChallenge(_index));\n    }\n\n    /* get Data from contract */\n\n    function getMedalByChallenge(uint256 _index) public view returns (uint256) {\n        return challenges[_index].medals.length;\n    }\n\n    function getMedalByIndex(uint256 _index, uint256 _count)\n        public\n        view\n        returns (string memory, string memory, string memory)\n    {\n        return (\n            challenges[_index].medal[_count].title,\n            challenges[_index].medal[_count].image,\n            challenges[_index].medal[_count].create_time\n        );\n    }\n\n    function getActivityCount(uint256 _index) public view returns (uint256) {\n        return challenges[_index].activities.length;\n    }\n\n    function getChallengeCountByPlayer(string memory uid)\n        public\n        view\n        returns (uint256)\n    {\n        return player[uid].challenges.length;\n    }\n\n    function getChallengeCount() public view returns (uint256) {\n        return challenges.length;\n    }\n\n    function getPlayer(string memory uid)\n        public\n        view\n        returns (string memory, uint256, uint256, uint256)\n    {\n        return (\n            player[uid].uid,\n            player[uid].point,\n            player[uid].exp,\n            player[uid].challenges.length\n        );\n    }\n\n    function getMedalCountByPlayer(string memory uid)\n        public\n        view\n        returns (uint256)\n    {\n        return player[uid].medals.length;\n    }\n\n    function getMedalByPlayer(string memory uid, uint256 _count)\n        public\n        view\n        returns (string memory, string memory, string memory)\n    {\n        return (\n            player[uid].medal[_count].title,\n            player[uid].medal[_count].image,\n            player[uid].medal[_count].create_time\n        );\n    }\n\n    function getActivityChallengeByPlayer(\n        uint256 index,\n        uint256 count,\n        string memory uid\n    ) public view returns (string memory, uint256) {\n        return (\n            player[uid].challenge[index].activity[count].title,\n            player[uid].challenge[index].activity[count].times\n        );\n    }\n\n    function getJoinedChallenge(uint256 index, string memory uid)\n        public\n        view\n        returns (bool)\n    {\n        return challenges[index].joined[uid];\n    }\n\n    function getPlayerCountByChallenge(uint256 index)\n        public\n        view\n        returns (uint256)\n    {\n        return challenges[index].players.length;\n    }\n\n    function getPlayerUID(uint256 index, uint256 count)\n        public\n        view\n        returns (string memory)\n    {\n        return challenges[index].players[count];\n    }\n\n    function getPlayerByChallenge(uint256 index, string memory uid)\n        public\n        view\n        returns (string memory, uint256)\n    {\n        return (\n            challenges[index].player[uid].uid,\n            challenges[index].player[uid].point\n        );\n    }\n\n    // function getQuestionByChallenge(uint _index, uint _count) public view returns(string memory, string memory){\n    //     return (challenges[_index].activity[_count].question, challenges[_index].activity[_count].answer);\n    // }\n\n    function getQRcodeByChallenge(\n        uint256 _index,\n        uint256 _count,\n        uint256 _times\n    ) public view returns (bytes32) {\n        return challenges[_index].activity[_count].qrcode[_times];\n    }\n\n    function getActivityByChallenge(uint256 _index, uint256 _count)\n        public\n        view\n        returns (\n            string memory,\n            string memory,\n            string memory,\n            uint256,\n            uint256,\n            uint256\n        )\n    {\n        return (\n            challenges[_index].activity[_count].title,\n            challenges[_index].activity[_count].image,\n            challenges[_index].activity[_count].category,\n            challenges[_index].activity[_count].times,\n            challenges[_index].activity[_count].point,\n            challenges[_index].activity[_count].exp\n        );\n    }\n\n    function getOwnerByChallenge(uint index) public view returns(string memory) {\n        return owner[index];\n    }\n\n}\n",
  "sourcePath": "/Users/chayutaroonsang/Downloads/Project/CrytoNomoriam copy/contracts/Nomoriam.sol",
  "compiler": {
    "name": "solc",
    "version": "0.5.16+commit.9c3226ce.Emscripten.clang"
  },
  "schemaVersion": "3.0.23",
  "updatedAt": "2020-03-09T22:49:52.192Z",
  "networkType": "ethereum",
  "devdoc": {
    "methods": {}
  },
  "userdoc": {
    "methods": {}
  }
}