{
  "contractName": "Nomoriam",
  "abi": [
    {
      "inputs": [],
      "payable": false,
      "stateMutability": "nonpayable",
      "type": "constructor"
    },
    {
      "constant": true,
      "inputs": [
        {
          "internalType": "uint256",
          "name": "",
          "type": "uint256"
        }
      ],
      "name": "challenges",
      "outputs": [
        {
          "internalType": "string",
          "name": "title",
          "type": "string"
        },
        {
          "internalType": "string",
          "name": "desc",
          "type": "string"
        },
        {
          "internalType": "string",
          "name": "image",
          "type": "string"
        },
        {
          "internalType": "string",
          "name": "create_time",
          "type": "string"
        },
        {
          "internalType": "string",
          "name": "end_time",
          "type": "string"
        },
        {
          "internalType": "bool",
          "name": "finished",
          "type": "bool"
        },
        {
          "internalType": "bool",
          "name": "approved",
          "type": "bool"
        },
        {
          "internalType": "uint256",
          "name": "sum_point",
          "type": "uint256"
        }
      ],
      "payable": false,
      "stateMutability": "view",
      "type": "function"
    },
    {
      "constant": true,
      "inputs": [],
      "name": "manager",
      "outputs": [
        {
          "internalType": "address",
          "name": "",
          "type": "address"
        }
      ],
      "payable": false,
      "stateMutability": "view",
      "type": "function"
    },
    {
      "constant": true,
      "inputs": [
        {
          "internalType": "uint256",
          "name": "",
          "type": "uint256"
        }
      ],
      "name": "players",
      "outputs": [
        {
          "internalType": "string",
          "name": "",
          "type": "string"
        }
      ],
      "payable": false,
      "stateMutability": "view",
      "type": "function"
    },
    {
      "constant": false,
      "inputs": [
        {
          "internalType": "string",
          "name": "title",
          "type": "string"
        },
        {
          "internalType": "string",
          "name": "desc",
          "type": "string"
        },
        {
          "internalType": "string",
          "name": "image",
          "type": "string"
        },
        {
          "internalType": "string",
          "name": "create_time",
          "type": "string"
        },
        {
          "internalType": "string",
          "name": "end_time",
          "type": "string"
        },
        {
          "internalType": "string",
          "name": "_owner",
          "type": "string"
        }
      ],
      "name": "createChallenge",
      "outputs": [],
      "payable": false,
      "stateMutability": "nonpayable",
      "type": "function"
    },
    {
      "constant": false,
      "inputs": [
        {
          "internalType": "uint256",
          "name": "index",
          "type": "uint256"
        }
      ],
      "name": "finishChallenge",
      "outputs": [
        {
          "internalType": "bool",
          "name": "",
          "type": "bool"
        }
      ],
      "payable": false,
      "stateMutability": "nonpayable",
      "type": "function"
    },
    {
      "constant": false,
      "inputs": [
        {
          "internalType": "uint256",
          "name": "index",
          "type": "uint256"
        },
        {
          "internalType": "string",
          "name": "uid",
          "type": "string"
        }
      ],
      "name": "joinChallenge",
      "outputs": [
        {
          "internalType": "string",
          "name": "",
          "type": "string"
        },
        {
          "internalType": "uint256",
          "name": "",
          "type": "uint256"
        },
        {
          "internalType": "uint256",
          "name": "",
          "type": "uint256"
        },
        {
          "internalType": "string",
          "name": "",
          "type": "string"
        },
        {
          "internalType": "uint256",
          "name": "",
          "type": "uint256"
        }
      ],
      "payable": false,
      "stateMutability": "nonpayable",
      "type": "function"
    },
    {
      "constant": false,
      "inputs": [
        {
          "internalType": "uint256",
          "name": "_index",
          "type": "uint256"
        },
        {
          "internalType": "string",
          "name": "title",
          "type": "string"
        },
        {
          "internalType": "string",
          "name": "image",
          "type": "string"
        },
        {
          "internalType": "string",
          "name": "category",
          "type": "string"
        },
        {
          "internalType": "uint256",
          "name": "times",
          "type": "uint256"
        },
        {
          "internalType": "string",
          "name": "question",
          "type": "string"
        },
        {
          "internalType": "string",
          "name": "answer",
          "type": "string"
        },
        {
          "internalType": "string",
          "name": "location",
          "type": "string"
        }
      ],
      "name": "addActivity",
      "outputs": [],
      "payable": false,
      "stateMutability": "nonpayable",
      "type": "function"
    },
    {
      "constant": false,
      "inputs": [
        {
          "internalType": "uint256",
          "name": "_index",
          "type": "uint256"
        },
        {
          "internalType": "uint256",
          "name": "_count",
          "type": "uint256"
        },
        {
          "internalType": "string",
          "name": "uid",
          "type": "string"
        }
      ],
      "name": "doPost",
      "outputs": [
        {
          "internalType": "bool",
          "name": "",
          "type": "bool"
        }
      ],
      "payable": false,
      "stateMutability": "nonpayable",
      "type": "function"
    },
    {
      "constant": false,
      "inputs": [
        {
          "internalType": "uint256",
          "name": "_index",
          "type": "uint256"
        },
        {
          "internalType": "uint256",
          "name": "_count",
          "type": "uint256"
        },
        {
          "internalType": "string",
          "name": "uid",
          "type": "string"
        },
        {
          "internalType": "string",
          "name": "answer",
          "type": "string"
        }
      ],
      "name": "doQuestion",
      "outputs": [
        {
          "internalType": "bool",
          "name": "",
          "type": "bool"
        }
      ],
      "payable": false,
      "stateMutability": "nonpayable",
      "type": "function"
    },
    {
      "constant": false,
      "inputs": [
        {
          "internalType": "uint256",
          "name": "_index",
          "type": "uint256"
        },
        {
          "internalType": "uint256",
          "name": "_count",
          "type": "uint256"
        },
        {
          "internalType": "string",
          "name": "uid",
          "type": "string"
        },
        {
          "internalType": "bytes32",
          "name": "qrcode",
          "type": "bytes32"
        }
      ],
      "name": "doQRCode",
      "outputs": [
        {
          "internalType": "bool",
          "name": "",
          "type": "bool"
        }
      ],
      "payable": false,
      "stateMutability": "nonpayable",
      "type": "function"
    },
    {
      "constant": false,
      "inputs": [
        {
          "internalType": "string",
          "name": "uid",
          "type": "string"
        }
      ],
      "name": "createPlayer",
      "outputs": [
        {
          "internalType": "bool",
          "name": "",
          "type": "bool"
        }
      ],
      "payable": false,
      "stateMutability": "nonpayable",
      "type": "function"
    },
    {
      "constant": true,
      "inputs": [
        {
          "internalType": "uint256",
          "name": "_index",
          "type": "uint256"
        }
      ],
      "name": "getActivityCount",
      "outputs": [
        {
          "internalType": "uint256",
          "name": "",
          "type": "uint256"
        }
      ],
      "payable": false,
      "stateMutability": "view",
      "type": "function"
    },
    {
      "constant": true,
      "inputs": [],
      "name": "getPlayerCount",
      "outputs": [
        {
          "internalType": "uint256",
          "name": "",
          "type": "uint256"
        }
      ],
      "payable": false,
      "stateMutability": "view",
      "type": "function"
    },
    {
      "constant": true,
      "inputs": [
        {
          "internalType": "string",
          "name": "uid",
          "type": "string"
        }
      ],
      "name": "getChallengeCountByPlayer",
      "outputs": [
        {
          "internalType": "uint256",
          "name": "",
          "type": "uint256"
        }
      ],
      "payable": false,
      "stateMutability": "view",
      "type": "function"
    },
    {
      "constant": true,
      "inputs": [],
      "name": "getChallengeCount",
      "outputs": [
        {
          "internalType": "uint256",
          "name": "",
          "type": "uint256"
        }
      ],
      "payable": false,
      "stateMutability": "view",
      "type": "function"
    },
    {
      "constant": true,
      "inputs": [
        {
          "internalType": "string",
          "name": "uid",
          "type": "string"
        }
      ],
      "name": "getPlayer",
      "outputs": [
        {
          "internalType": "string",
          "name": "",
          "type": "string"
        },
        {
          "internalType": "uint256",
          "name": "",
          "type": "uint256"
        },
        {
          "internalType": "uint256",
          "name": "",
          "type": "uint256"
        },
        {
          "internalType": "uint256",
          "name": "",
          "type": "uint256"
        }
      ],
      "payable": false,
      "stateMutability": "view",
      "type": "function"
    },
    {
      "constant": true,
      "inputs": [
        {
          "internalType": "uint256",
          "name": "index",
          "type": "uint256"
        },
        {
          "internalType": "uint256",
          "name": "count",
          "type": "uint256"
        },
        {
          "internalType": "string",
          "name": "uid",
          "type": "string"
        }
      ],
      "name": "getActivityChallengeByPlayer",
      "outputs": [
        {
          "internalType": "string",
          "name": "",
          "type": "string"
        },
        {
          "internalType": "uint256",
          "name": "",
          "type": "uint256"
        }
      ],
      "payable": false,
      "stateMutability": "view",
      "type": "function"
    },
    {
      "constant": true,
      "inputs": [
        {
          "internalType": "uint256",
          "name": "index",
          "type": "uint256"
        },
        {
          "internalType": "string",
          "name": "uid",
          "type": "string"
        }
      ],
      "name": "getJoinedChallenge",
      "outputs": [
        {
          "internalType": "bool",
          "name": "",
          "type": "bool"
        }
      ],
      "payable": false,
      "stateMutability": "view",
      "type": "function"
    },
    {
      "constant": true,
      "inputs": [
        {
          "internalType": "uint256",
          "name": "index",
          "type": "uint256"
        }
      ],
      "name": "getStatusChallenge",
      "outputs": [
        {
          "internalType": "bool",
          "name": "",
          "type": "bool"
        },
        {
          "internalType": "bool",
          "name": "",
          "type": "bool"
        },
        {
          "internalType": "uint256",
          "name": "",
          "type": "uint256"
        }
      ],
      "payable": false,
      "stateMutability": "view",
      "type": "function"
    },
    {
      "constant": true,
      "inputs": [
        {
          "internalType": "uint256",
          "name": "_index",
          "type": "uint256"
        },
        {
          "internalType": "uint256",
          "name": "_count",
          "type": "uint256"
        }
      ],
      "name": "getQuestionByChallenge",
      "outputs": [
        {
          "internalType": "string",
          "name": "",
          "type": "string"
        },
        {
          "internalType": "string",
          "name": "",
          "type": "string"
        }
      ],
      "payable": false,
      "stateMutability": "view",
      "type": "function"
    },
    {
      "constant": true,
      "inputs": [
        {
          "internalType": "uint256",
          "name": "_index",
          "type": "uint256"
        },
        {
          "internalType": "uint256",
          "name": "_count",
          "type": "uint256"
        },
        {
          "internalType": "uint256",
          "name": "_times",
          "type": "uint256"
        }
      ],
      "name": "getQRcodeByChallenge",
      "outputs": [
        {
          "internalType": "bytes32",
          "name": "",
          "type": "bytes32"
        }
      ],
      "payable": false,
      "stateMutability": "view",
      "type": "function"
    },
    {
      "constant": true,
      "inputs": [
        {
          "internalType": "uint256",
          "name": "_index",
          "type": "uint256"
        },
        {
          "internalType": "uint256",
          "name": "_count",
          "type": "uint256"
        }
      ],
      "name": "getActivityByChallenge",
      "outputs": [
        {
          "internalType": "string",
          "name": "",
          "type": "string"
        },
        {
          "internalType": "string",
          "name": "",
          "type": "string"
        },
        {
          "internalType": "string",
          "name": "",
          "type": "string"
        },
        {
          "internalType": "uint256",
          "name": "",
          "type": "uint256"
        },
        {
          "internalType": "uint256",
          "name": "",
          "type": "uint256"
        },
        {
          "internalType": "uint256",
          "name": "",
          "type": "uint256"
        },
        {
          "internalType": "string",
          "name": "",
          "type": "string"
        }
      ],
      "payable": false,
      "stateMutability": "view",
      "type": "function"
    }
  ],
  "bytecode": "0x608060405234801561001057600080fd5b5033600460006101000a81548173ffffffffffffffffffffffffffffffffffffffff021916908373ffffffffffffffffffffffffffffffffffffffff160217905550615f7280620000626000396000f3fe608060405234801561001057600080fd5b50600436106101425760003560e01c8063a3bcc23c116100b8578063d7a23fd41161007c578063d7a23fd414611427578063e005945914611469578063e058966114611817578063e2b096031461186d578063f4f4fa221461195e578063f71d96cb14611a3b57610142565b8063a3bcc23c14610fa1578063a8f4c0e914610ff9578063b586a74014611177578063c2e522061461124a578063d3ad3e341461126857610142565b8063573808fc1161010a578063573808fc1461078a5780635f10c410146107d0578063682a7eca146108b757806372218ffe146109d45780638f1d377614610b23578063a025816614610d9757610142565b80630933f467146101475780631f11b24f1461016557806331f8fdf4146102ae578063450b133214610671578063481c6a7514610740575b600080fd5b61014f611ae2565b6040518082815260200191505060405180910390f35b61021e6004803603602081101561017b57600080fd5b810190808035906020019064010000000081111561019857600080fd5b8201836020820111156101aa57600080fd5b803590602001918460018302840111640100000000831117156101cc57600080fd5b91908080601f016020809104026020016040519081016040528093929190818152602001838380828437600081840152601f19601f820116905080830192505050505050509192919290505050611aef565b6040518080602001858152602001848152602001838152602001828103825286818151815260200191508051906020019080838360005b83811015610270578082015181840152602081019050610255565b50505050905090810190601f16801561029d5780820380516001836020036101000a031916815260200191505b509550505050505060405180910390f35b61066f60048036036101008110156102c557600080fd5b8101908080359060200190929190803590602001906401000000008111156102ec57600080fd5b8201836020820111156102fe57600080fd5b8035906020019184600183028401116401000000008311171561032057600080fd5b91908080601f016020809104026020016040519081016040528093929190818152602001838380828437600081840152601f19601f8201169050808301925050505050505091929192908035906020019064010000000081111561038357600080fd5b82018360208201111561039557600080fd5b803590602001918460018302840111640100000000831117156103b757600080fd5b91908080601f016020809104026020016040519081016040528093929190818152602001838380828437600081840152601f19601f8201169050808301925050505050505091929192908035906020019064010000000081111561041a57600080fd5b82018360208201111561042c57600080fd5b8035906020019184600183028401116401000000008311171561044e57600080fd5b91908080601f016020809104026020016040519081016040528093929190818152602001838380828437600081840152601f19601f82011690508083019250505050505050919291929080359060200190929190803590602001906401000000008111156104bb57600080fd5b8201836020820111156104cd57600080fd5b803590602001918460018302840111640100000000831117156104ef57600080fd5b91908080601f016020809104026020016040519081016040528093929190818152602001838380828437600081840152601f19601f8201169050808301925050505050505091929192908035906020019064010000000081111561055257600080fd5b82018360208201111561056457600080fd5b8035906020019184600183028401116401000000008311171561058657600080fd5b91908080601f016020809104026020016040519081016040528093929190818152602001838380828437600081840152601f19601f820116905080830192505050505050509192919290803590602001906401000000008111156105e957600080fd5b8201836020820111156105fb57600080fd5b8035906020019184600183028401116401000000008311171561061d57600080fd5b91908080601f016020809104026020016040519081016040528093929190818152602001838380828437600081840152601f19601f820116905080830192505050505050509192919290505050611d57565b005b61072a6004803603602081101561068757600080fd5b81019080803590602001906401000000008111156106a457600080fd5b8201836020820111156106b657600080fd5b803590602001918460018302840111640100000000831117156106d857600080fd5b91908080601f016020809104026020016040519081016040528093929190818152602001838380828437600081840152601f19601f8201169050808301925050505050505091929192905050506121e7565b6040518082815260200191505060405180910390f35b610748612260565b604051808273ffffffffffffffffffffffffffffffffffffffff1673ffffffffffffffffffffffffffffffffffffffff16815260200191505060405180910390f35b6107b6600480360360208110156107a057600080fd5b8101908080359060200190929190505050612286565b604051808215151515815260200191505060405180910390f35b61089d600480360360608110156107e657600080fd5b8101908080359060200190929190803590602001909291908035906020019064010000000081111561081757600080fd5b82018360208201111561082957600080fd5b8035906020019184600183028401116401000000008311171561084b57600080fd5b91908080601f016020809104026020016040519081016040528093929190818152602001838380828437600081840152601f19601f8201169050808301925050505050505091929192905050506125e0565b604051808215151515815260200191505060405180910390f35b6108ed600480360360408110156108cd57600080fd5b8101908080359060200190929190803590602001909291905050506128ea565b604051808060200180602001838103835285818151815260200191508051906020019080838360005b83811015610931578082015181840152602081019050610916565b50505050905090810190601f16801561095e5780820380516001836020036101000a031916815260200191505b50838103825284818151815260200191508051906020019080838360005b8381101561099757808201518184015260208101905061097c565b50505050905090810190601f1680156109c45780820380516001836020036101000a031916815260200191505b5094505050505060405180910390f35b610aa1600480360360608110156109ea57600080fd5b81019080803590602001909291908035906020019092919080359060200190640100000000811115610a1b57600080fd5b820183602082011115610a2d57600080fd5b80359060200191846001830284011164010000000083111715610a4f57600080fd5b91908080601f016020809104026020016040519081016040528093929190818152602001838380828437600081840152601f19601f820116905080830192505050505050509192919290505050612a94565b6040518080602001838152602001828103825284818151815260200191508051906020019080838360005b83811015610ae7578082015181840152602081019050610acc565b50505050905090810190601f168015610b145780820380516001836020036101000a031916815260200191505b50935050505060405180910390f35b610b4f60048036036020811015610b3957600080fd5b8101908080359060200190929190505050612c69565b604051808060200180602001806020018060200180602001891515151581526020018815151515815260200187815260200186810386528e818151815260200191508051906020019080838360005b83811015610bb9578082015181840152602081019050610b9e565b50505050905090810190601f168015610be65780820380516001836020036101000a031916815260200191505b5086810385528d818151815260200191508051906020019080838360005b83811015610c1f578082015181840152602081019050610c04565b50505050905090810190601f168015610c4c5780820380516001836020036101000a031916815260200191505b5086810384528c818151815260200191508051906020019080838360005b83811015610c85578082015181840152602081019050610c6a565b50505050905090810190601f168015610cb25780820380516001836020036101000a031916815260200191505b5086810383528b818151815260200191508051906020019080838360005b83811015610ceb578082015181840152602081019050610cd0565b50505050905090810190601f168015610d185780820380516001836020036101000a031916815260200191505b5086810382528a818151815260200191508051906020019080838360005b83811015610d51578082015181840152602081019050610d36565b50505050905090810190601f168015610d7e5780820380516001836020036101000a031916815260200191505b509d505050505050505050505050505060405180910390f35b610dcd60048036036040811015610dad57600080fd5b810190808035906020019092919080359060200190929190505050612fd0565b604051808060200180602001806020018881526020018781526020018681526020018060200185810385528c818151815260200191508051906020019080838360005b83811015610e2b578082015181840152602081019050610e10565b50505050905090810190601f168015610e585780820380516001836020036101000a031916815260200191505b5085810384528b818151815260200191508051906020019080838360005b83811015610e91578082015181840152602081019050610e76565b50505050905090810190601f168015610ebe5780820380516001836020036101000a031916815260200191505b5085810383528a818151815260200191508051906020019080838360005b83811015610ef7578082015181840152602081019050610edc565b50505050905090810190601f168015610f245780820380516001836020036101000a031916815260200191505b50858103825286818151815260200191508051906020019080838360005b83811015610f5d578082015181840152602081019050610f42565b50505050905090810190601f168015610f8a5780820380516001836020036101000a031916815260200191505b509b50505050505050505050505060405180910390f35b610fcd60048036036020811015610fb757600080fd5b81019080803590602001909291905050506133c7565b604051808415151515815260200183151515158152602001828152602001935050505060405180910390f35b61115d6004803603608081101561100f57600080fd5b8101908080359060200190929190803590602001909291908035906020019064010000000081111561104057600080fd5b82018360208201111561105257600080fd5b8035906020019184600183028401116401000000008311171561107457600080fd5b91908080601f016020809104026020016040519081016040528093929190818152602001838380828437600081840152601f19601f820116905080830192505050505050509192919290803590602001906401000000008111156110d757600080fd5b8201836020820111156110e957600080fd5b8035906020019184600183028401116401000000008311171561110b57600080fd5b91908080601f016020809104026020016040519081016040528093929190818152602001838380828437600081840152601f19601f820116905080830192505050505050509192919290505050613450565b604051808215151515815260200191505060405180910390f35b6112306004803603602081101561118d57600080fd5b81019080803590602001906401000000008111156111aa57600080fd5b8201836020820111156111bc57600080fd5b803590602001918460018302840111640100000000831117156111de57600080fd5b91908080601f016020809104026020016040519081016040528093929190818152602001838380828437600081840152601f19601f820116905080830192505050505050509192919290505050613879565b604051808215151515815260200191505060405180910390f35b611252613a24565b6040518082815260200191505060405180910390f35b61132b6004803603604081101561127e57600080fd5b8101908080359060200190929190803590602001906401000000008111156112a557600080fd5b8201836020820111156112b757600080fd5b803590602001918460018302840111640100000000831117156112d957600080fd5b91908080601f016020809104026020016040519081016040528093929190818152602001838380828437600081840152601f19601f820116905080830192505050505050509192919290505050613a31565b604051808060200186815260200185815260200180602001848152602001838103835288818151815260200191508051906020019080838360005b83811015611381578082015181840152602081019050611366565b50505050905090810190601f1680156113ae5780820380516001836020036101000a031916815260200191505b50838103825285818151815260200191508051906020019080838360005b838110156113e75780820151818401526020810190506113cc565b50505050905090810190601f1680156114145780820380516001836020036101000a031916815260200191505b5097505050505050505060405180910390f35b6114536004803603602081101561143d57600080fd5b8101908080359060200190929190505050614cba565b6040518082815260200191505060405180910390f35b611815600480360360c081101561147f57600080fd5b810190808035906020019064010000000081111561149c57600080fd5b8201836020820111156114ae57600080fd5b803590602001918460018302840111640100000000831117156114d057600080fd5b91908080601f016020809104026020016040519081016040528093929190818152602001838380828437600081840152601f19601f8201169050808301925050505050505091929192908035906020019064010000000081111561153357600080fd5b82018360208201111561154557600080fd5b8035906020019184600183028401116401000000008311171561156757600080fd5b91908080601f016020809104026020016040519081016040528093929190818152602001838380828437600081840152601f19601f820116905080830192505050505050509192919290803590602001906401000000008111156115ca57600080fd5b8201836020820111156115dc57600080fd5b803590602001918460018302840111640100000000831117156115fe57600080fd5b91908080601f016020809104026020016040519081016040528093929190818152602001838380828437600081840152601f19601f8201169050808301925050505050505091929192908035906020019064010000000081111561166157600080fd5b82018360208201111561167357600080fd5b8035906020019184600183028401116401000000008311171561169557600080fd5b91908080601f016020809104026020016040519081016040528093929190818152602001838380828437600081840152601f19601f820116905080830192505050505050509192919290803590602001906401000000008111156116f857600080fd5b82018360208201111561170a57600080fd5b8035906020019184600183028401116401000000008311171561172c57600080fd5b91908080601f016020809104026020016040519081016040528093929190818152602001838380828437600081840152601f19601f8201169050808301925050505050505091929192908035906020019064010000000081111561178f57600080fd5b8201836020820111156117a157600080fd5b803590602001918460018302840111640100000000831117156117c357600080fd5b91908080601f016020809104026020016040519081016040528093929190818152602001838380828437600081840152601f19601f820116905080830192505050505050509192919290505050614ce5565b005b6118576004803603606081101561182d57600080fd5b81019080803590602001909291908035906020019092919080359060200190929190505050614f48565b6040518082815260200191505060405180910390f35b6119446004803603608081101561188357600080fd5b810190808035906020019092919080359060200190929190803590602001906401000000008111156118b457600080fd5b8201836020820111156118c657600080fd5b803590602001918460018302840111640100000000831117156118e857600080fd5b91908080601f016020809104026020016040519081016040528093929190818152602001838380828437600081840152601f19601f82011690508083019250505050505050919291929080359060200190929190505050614f97565b604051808215151515815260200191505060405180910390f35b611a216004803603604081101561197457600080fd5b81019080803590602001909291908035906020019064010000000081111561199b57600080fd5b8201836020820111156119ad57600080fd5b803590602001918460018302840111640100000000831117156119cf57600080fd5b91908080601f016020809104026020016040519081016040528093929190818152602001838380828437600081840152601f19601f8201169050808301925050505050505091929192905050506154c0565b604051808215151515815260200191505060405180910390f35b611a6760048036036020811015611a5157600080fd5b810190808035906020019092919050505061555d565b6040518080602001828103825283818151815260200191508051906020019080838360005b83811015611aa7578082015181840152602081019050611a8c565b50505050905090810190601f168015611ad45780820380516001836020036101000a031916815260200191505b509250505060405180910390f35b6000600380549050905090565b606060008060006002856040518082805190602001908083835b60208310611b2c5780518252602082019150602081019050602083039250611b09565b6001836020036101000a03801982511681845116808217855250505050505090500191505090815260200160405180910390206000016002866040518082805190602001908083835b60208310611b985780518252602082019150602081019050602083039250611b75565b6001836020036101000a0380198251168184511680821785525050505050509050019150509081526020016040518091039020600101546002876040518082805190602001908083835b60208310611c055780518252602082019150602081019050602083039250611be2565b6001836020036101000a0380198251168184511680821785525050505050509050019150509081526020016040518091039020600201546002886040518082805190602001908083835b60208310611c725780518252602082019150602081019050602083039250611c4f565b6001836020036101000a038019825116818451168082178552505050505050905001915050908152602001604051809103902060030180549050838054600181600116156101000203166002900480601f016020809104026020016040519081016040528092919081815260200182805460018160011615610100020316600290048015611d415780601f10611d1657610100808354040283529160200191611d41565b820191906000526020600020905b815481529060010190602001808311611d2457829003601f168201915b5050505050935093509350935093509193509193565b600460009054906101000a900473ffffffffffffffffffffffffffffffffffffffff1673ffffffffffffffffffffffffffffffffffffffff163373ffffffffffffffffffffffffffffffffffffffff1614611df5576040517f08c379a0000000000000000000000000000000000000000000000000000000008152600401808060200182810382526000815260200160200191505060405180910390fd5b8660038981548110611e0357fe5b90600052602060002090600c02016007016000611e1f8b614cba565b81526020019081526020016000206000019080519060200190611e43929190615ad0565b508560038981548110611e5257fe5b90600052602060002090600c02016007016000611e6e8b614cba565b81526020019081526020016000206001019080519060200190611e92929190615ad0565b508460038981548110611ea157fe5b90600052602060002090600c02016007016000611ebd8b614cba565b81526020019081526020016000206002019080519060200190611ee1929190615ad0565b508360038981548110611ef057fe5b90600052602060002090600c02016007016000611f0c8b614cba565b8152602001908152602001600020600301819055508260038981548110611f2f57fe5b90600052602060002090600c02016007016000611f4b8b614cba565b81526020019081526020016000206006019080519060200190611f6f929190615ad0565b508160038981548110611f7e57fe5b90600052602060002090600c02016007016000611f9a8b614cba565b81526020019081526020016000206007019080519060200190611fbe929190615ad0565b508060038981548110611fcd57fe5b90600052602060002090600c02016007016000611fe98b614cba565b8152602001908152602001600020600801908051906020019061200d929190615ad0565b5061201785615616565b6003898154811061202457fe5b90600052602060002090600c020160070160006120408b614cba565b81526020019081526020016000206005018190555061205e856156ba565b6003898154811061206b57fe5b90600052602060002090600c020160070160006120878b614cba565b815260200190815260200160002060040181905550836120a686615616565b02600389815481106120b457fe5b90600052602060002090600c0201600a0160008282540192505081905550612111856040518060400160405280600681526020017f7172636f6465000000000000000000000000000000000000000000000000000081525061575e565b1561218d5760008090505b8481101561218b5761212f88878361584d565b60038a8154811061213c57fe5b90600052602060002090600c020160070160006121588c614cba565b8152602001908152602001600020600901600083815260200190815260200160002081905550808060010191505061211c565b505b6003888154811061219a57fe5b90600052602060002090600c02016006016121b489614cba565b90806001815401808255809150509060018203906000526020600020016000909192909190915055505050505050505050565b60006002826040518082805190602001908083835b6020831061221f57805182526020820191506020810190506020830392506121fc565b6001836020036101000a0380198251168184511680821785525050505050509050019150509081526020016040518091039020600301805490509050919050565b600460009054906101000a900473ffffffffffffffffffffffffffffffffffffffff1681565b60006003828154811061229557fe5b90600052602060002090600c020160050160019054906101000a900460ff16612326576040517f08c379a000000000000000000000000000000000000000000000000000000000815260040180806020018281038252600d8152602001807f436865636b20417070726f76650000000000000000000000000000000000000081525060200191505060405180910390fd5b6003828154811061233357fe5b90600052602060002090600c020160050160009054906101000a900460ff16156123c5576040517f08c379a000000000000000000000000000000000000000000000000000000000815260040180806020018281038252600e8152602001807f436865636b2046696e697368656400000000000000000000000000000000000081525060200191505060405180910390fd5b6001600383815481106123d457fe5b90600052602060002090600c020160050160006101000a81548160ff02191690831515021790555060008090505b6003838154811061240f57fe5b90600052602060002090600c0201600801805490508110156125d6576003838154811061243857fe5b90600052602060002090600c0201600a01546003848154811061245757fe5b90600052602060002090600c02016009016003858154811061247557fe5b90600052602060002090600c0201600801838154811061249157fe5b9060005260206000200160405180828054600181600116156101000203166002900480156124f65780601f106124d45761010080835404028352918201916124f6565b820191906000526020600020905b8154815290600101906020018083116124e2575b505091505090815260200160405180910390206001015414156125c95760c860026003858154811061252457fe5b90600052602060002090600c0201600801838154811061254057fe5b9060005260206000200160405180828054600181600116156101000203166002900480156125a55780601f106125835761010080835404028352918201916125a5565b820191906000526020600020905b815481529060010190602001808311612591575b50509150509081526020016040518091039020600101600082825401925050819055505b8080600101915050612402565b5060019050919050565b6000806002836040518082805190602001908083835b6020831061261957805182526020820191506020810190506020830392506125f6565b6001836020036101000a03801982511681845116808217855250505050505090500191505090815260200160405180910390206004016000868152602001908152602001600020600701600085815260200190815260200160002060030154116126c6576040517f08c379a0000000000000000000000000000000000000000000000000000000008152600401808060200182810382526000815260200160200191505060405180910390fd5b6002826040518082805190602001908083835b602083106126fc57805182526020820191506020810190506020830392506126d9565b6001836020036101000a03801982511681845116808217855250505050505090500191505090815260200160405180910390206004016000858152602001908152602001600020600701600084815260200190815260200160002060030160008154809291906001900391905055506003848154811061277857fe5b90600052602060002090600c02016007016000848152602001908152602001600020600401546002836040518082805190602001908083835b602083106127d457805182526020820191506020810190506020830392506127b1565b6001836020036101000a0380198251168184511680821785525050505050509050019150509081526020016040518091039020600201600082825401925050819055506003848154811061282457fe5b90600052602060002090600c02016007016000848152602001908152602001600020600501546003858154811061285757fe5b90600052602060002090600c0201600901836040518082805190602001908083835b6020831061289c5780518252602082019150602081019050602083039250612879565b6001836020036101000a038019825116818451168082178552505050505050905001915050908152602001604051809103902060010160008282540192505081905550600190509392505050565b606080600384815481106128fa57fe5b90600052602060002090600c020160070160008481526020019081526020016000206006016003858154811061292c57fe5b90600052602060002090600c02016007016000858152602001908152602001600020600701818054600181600116156101000203166002900480601f0160208091040260200160405190810160405280929190818152602001828054600181600116156101000203166002900480156129e65780601f106129bb576101008083540402835291602001916129e6565b820191906000526020600020905b8154815290600101906020018083116129c957829003601f168201915b50505050509150808054600181600116156101000203166002900480601f016020809104026020016040519081016040528092919081815260200182805460018160011615610100020316600290048015612a825780601f10612a5757610100808354040283529160200191612a82565b820191906000526020600020905b815481529060010190602001808311612a6557829003601f168201915b50505050509050915091509250929050565b606060006002836040518082805190602001908083835b60208310612ace5780518252602082019150602081019050602083039250612aab565b6001836020036101000a0380198251168184511680821785525050505050509050019150509081526020016040518091039020600401600086815260200190815260200160002060070160008581526020019081526020016000206000016002846040518082805190602001908083835b60208310612b625780518252602082019150602081019050602083039250612b3f565b6001836020036101000a03801982511681845116808217855250505050505090500191505090815260200160405180910390206004016000878152602001908152602001600020600701600086815260200190815260200160002060030154818054600181600116156101000203166002900480601f016020809104026020016040519081016040528092919081815260200182805460018160011615610100020316600290048015612c565780601f10612c2b57610100808354040283529160200191612c56565b820191906000526020600020905b815481529060010190602001808311612c3957829003601f168201915b5050505050915091509150935093915050565b60038181548110612c7657fe5b90600052602060002090600c0201600091509050806000018054600181600116156101000203166002900480601f016020809104026020016040519081016040528092919081815260200182805460018160011615610100020316600290048015612d225780601f10612cf757610100808354040283529160200191612d22565b820191906000526020600020905b815481529060010190602001808311612d0557829003601f168201915b505050505090806001018054600181600116156101000203166002900480601f016020809104026020016040519081016040528092919081815260200182805460018160011615610100020316600290048015612dc05780601f10612d9557610100808354040283529160200191612dc0565b820191906000526020600020905b815481529060010190602001808311612da357829003601f168201915b505050505090806002018054600181600116156101000203166002900480601f016020809104026020016040519081016040528092919081815260200182805460018160011615610100020316600290048015612e5e5780601f10612e3357610100808354040283529160200191612e5e565b820191906000526020600020905b815481529060010190602001808311612e4157829003601f168201915b505050505090806003018054600181600116156101000203166002900480601f016020809104026020016040519081016040528092919081815260200182805460018160011615610100020316600290048015612efc5780601f10612ed157610100808354040283529160200191612efc565b820191906000526020600020905b815481529060010190602001808311612edf57829003601f168201915b505050505090806004018054600181600116156101000203166002900480601f016020809104026020016040519081016040528092919081815260200182805460018160011615610100020316600290048015612f9a5780601f10612f6f57610100808354040283529160200191612f9a565b820191906000526020600020905b815481529060010190602001808311612f7d57829003601f168201915b5050505050908060050160009054906101000a900460ff16908060050160019054906101000a900460ff169080600a0154905088565b60608060606000806000606060038981548110612fe957fe5b90600052602060002090600c0201600701600089815260200190815260200160002060000160038a8154811061301b57fe5b90600052602060002090600c020160070160008a815260200190815260200160002060010160038b8154811061304d57fe5b90600052602060002090600c020160070160008b815260200190815260200160002060020160038c8154811061307f57fe5b90600052602060002090600c020160070160008c81526020019081526020016000206003015460038d815481106130b257fe5b90600052602060002090600c020160070160008d81526020019081526020016000206005015460038e815481106130e557fe5b90600052602060002090600c020160070160008e81526020019081526020016000206004015460038f8154811061311857fe5b90600052602060002090600c020160070160008f8152602001908152602001600020600801868054600181600116156101000203166002900480601f0160208091040260200160405190810160405280929190818152602001828054600181600116156101000203166002900480156131d25780601f106131a7576101008083540402835291602001916131d2565b820191906000526020600020905b8154815290600101906020018083116131b557829003601f168201915b50505050509650858054600181600116156101000203166002900480601f01602080910402602001604051908101604052809291908181526020018280546001816001161561010002031660029004801561326e5780601f106132435761010080835404028352916020019161326e565b820191906000526020600020905b81548152906001019060200180831161325157829003601f168201915b50505050509550848054600181600116156101000203166002900480601f01602080910402602001604051908101604052809291908181526020018280546001816001161561010002031660029004801561330a5780601f106132df5761010080835404028352916020019161330a565b820191906000526020600020905b8154815290600101906020018083116132ed57829003601f168201915b50505050509450808054600181600116156101000203166002900480601f0160208091040260200160405190810160405280929190818152602001828054600181600116156101000203166002900480156133a65780601f1061337b576101008083540402835291602001916133a6565b820191906000526020600020905b81548152906001019060200180831161338957829003601f168201915b50505050509050965096509650965096509650965092959891949750929550565b6000806000600384815481106133d957fe5b90600052602060002090600c020160050160019054906101000a900460ff166003858154811061340557fe5b90600052602060002090600c020160050160009054906101000a900460ff166003868154811061343157fe5b90600052602060002090600c0201600a01549250925092509193909250565b6000613526826003878154811061346357fe5b90600052602060002090600c020160070160008781526020019081526020016000206007018054600181600116156101000203166002900480601f01602080910402602001604051908101604052809291908181526020018280546001816001161561010002031660029004801561351c5780601f106134f15761010080835404028352916020019161351c565b820191906000526020600020905b8154815290600101906020018083116134ff57829003601f168201915b505050505061575e565b613573576040517f08c379a0000000000000000000000000000000000000000000000000000000008152600401808060200182810382526000815260200160200191505060405180910390fd5b60016002846040518082805190602001908083835b602083106135ab5780518252602082019150602081019050602083039250613588565b6001836020036101000a0380198251168184511680821785525050505050509050019150509081526020016040518091039020600401600087815260200190815260200160002060070160008681526020019081526020016000206003015414613658576040517f08c379a0000000000000000000000000000000000000000000000000000000008152600401808060200182810382526000815260200160200191505060405180910390fd5b6002836040518082805190602001908083835b6020831061368e578051825260208201915060208101905060208303925061366b565b6001836020036101000a03801982511681845116808217855250505050505090500191505090815260200160405180910390206004016000868152602001908152602001600020600701600085815260200190815260200160002060030160008154809291906001900391905055506003858154811061370a57fe5b90600052602060002090600c02016007016000858152602001908152602001600020600401546002846040518082805190602001908083835b602083106137665780518252602082019150602081019050602083039250613743565b6001836020036101000a038019825116818451168082178552505050505050905001915050908152602001604051809103902060020160008282540192505081905550600385815481106137b657fe5b90600052602060002090600c0201600701600085815260200190815260200160002060050154600386815481106137e957fe5b90600052602060002090600c0201600901846040518082805190602001908083835b6020831061382e578051825260208201915060208101905060208303925061380b565b6001836020036101000a038019825116818451168082178552505050505050905001915050908152602001604051809103902060010160008282540192505081905550949350505050565b6000816002836040518082805190602001908083835b602083106138b2578051825260208201915060208101905060208303925061388f565b6001836020036101000a038019825116818451168082178552505050505050905001915050908152602001604051809103902060000190805190602001906138fb929190615ad0565b5060006002836040518082805190602001908083835b602083106139345780518252602082019150602081019050602083039250613911565b6001836020036101000a03801982511681845116808217855250505050505090500191505090815260200160405180910390206001018190555060006002836040518082805190602001908083835b602083106139a65780518252602082019150602081019050602083039250613983565b6001836020036101000a0380198251168184511680821785525050505050509050019150509081526020016040518091039020600201819055506001829080600181540180825580915050906001820390600052602060002001600090919290919091509080519060200190613a1d929190615ad0565b5050919050565b6000600180549050905090565b60606000806060600060038781548110613a4757fe5b90600052602060002090600c0201600b01866040518082805190602001908083835b60208310613a8c5780518252602082019150602081019050602083039250613a69565b6001836020036101000a038019825116818451168082178552505050505050905001915050908152602001604051809103902060009054906101000a900460ff1615613b1b576040517f08c379a0000000000000000000000000000000000000000000000000000000008152600401808060200182810382526000815260200160200191505060405180910390fd5b8560038881548110613b2957fe5b90600052602060002090600c0201600901876040518082805190602001908083835b60208310613b6e5780518252602082019150602081019050602083039250613b4b565b6001836020036101000a03801982511681845116808217855250505050505090500191505090815260200160405180910390206000019080519060200190613bb7929190615ad0565b50600060038881548110613bc757fe5b90600052602060002090600c0201600901876040518082805190602001908083835b60208310613c0c5780518252602082019150602081019050602083039250613be9565b6001836020036101000a038019825116818451168082178552505050505050905001915050908152602001604051809103902060010181905550600060038881548110613c5557fe5b90600052602060002090600c0201600901876040518082805190602001908083835b60208310613c9a5780518252602082019150602081019050602083039250613c77565b6001836020036101000a03801982511681845116808217855250505050505090500191505090815260200160405180910390206002018190555060038781548110613ce157fe5b90600052602060002090600c0201600801869080600181540180825580915050906001820390600052602060002001600090919290919091509080519060200190613d2d929190615ad0565b505060038781548110613d3c57fe5b90600052602060002090600c02016002876040518082805190602001908083835b60208310613d805780518252602082019150602081019050602083039250613d5d565b6001836020036101000a03801982511681845116808217855250505050505090500191505090815260200160405180910390206004016000613dc1896121e7565b815260200190815260200160002060008201816000019080546001816001161561010002031660029004613df6929190615b50565b5060018201816001019080546001816001161561010002031660029004613e1e929190615b50565b5060028201816002019080546001816001161561010002031660029004613e46929190615b50565b5060038201816003019080546001816001161561010002031660029004613e6e929190615b50565b5060048201816004019080546001816001161561010002031660029004613e96929190615b50565b506005820160009054906101000a900460ff168160050160006101000a81548160ff0219169083151502179055506005820160019054906101000a900460ff168160050160016101000a81548160ff0219169083151502179055506006820181600601908054613f07929190615bd7565b506008820181600801908054613f1e929190615c29565b50600a82015481600a015590505060008090505b613f3b88614cba565b811015614b735760038881548110613f4f57fe5b90600052602060002090600c020160070160008281526020019081526020016000206000016002886040518082805190602001908083835b60208310613faa5780518252602082019150602081019050602083039250613f87565b6001836020036101000a038019825116818451168082178552505050505050905001915050908152602001604051809103902060040160008a815260200190815260200160002060070160008381526020019081526020016000206000019080546001816001161561010002031660029004614027929190615c99565b506003888154811061403557fe5b90600052602060002090600c020160070160008281526020019081526020016000206001016002886040518082805190602001908083835b60208310614090578051825260208201915060208101905060208303925061406d565b6001836020036101000a038019825116818451168082178552505050505050905001915050908152602001604051809103902060040160008a81526020019081526020016000206007016000838152602001908152602001600020600101908054600181600116156101000203166002900461410d929190615c99565b506003888154811061411b57fe5b90600052602060002090600c020160070160008281526020019081526020016000206002016002886040518082805190602001908083835b602083106141765780518252602082019150602081019050602083039250614153565b6001836020036101000a038019825116818451168082178552505050505050905001915050908152602001604051809103902060040160008a8152602001908152602001600020600701600083815260200190815260200160002060020190805460018160011615610100020316600290046141f3929190615c99565b506003888154811061420157fe5b90600052602060002090600c02016007016000828152602001908152602001600020600301546002886040518082805190602001908083835b6020831061425d578051825260208201915060208101905060208303925061423a565b6001836020036101000a038019825116818451168082178552505050505050905001915050908152602001604051809103902060040160008a8152602001908152602001600020600701600083815260200190815260200160002060030181905550600388815481106142cc57fe5b90600052602060002090600c020160070160008281526020019081526020016000206006016002886040518082805190602001908083835b602083106143275780518252602082019150602081019050602083039250614304565b6001836020036101000a038019825116818451168082178552505050505050905001915050908152602001604051809103902060040160008a8152602001908152602001600020600701600083815260200190815260200160002060060190805460018160011615610100020316600290046143a4929190615c99565b50600388815481106143b257fe5b90600052602060002090600c020160070160008281526020019081526020016000206007016002886040518082805190602001908083835b6020831061440d57805182526020820191506020810190506020830392506143ea565b6001836020036101000a038019825116818451168082178552505050505050905001915050908152602001604051809103902060040160008a81526020019081526020016000206007016000838152602001908152602001600020600701908054600181600116156101000203166002900461448a929190615c99565b506003888154811061449857fe5b90600052602060002090600c020160070160008281526020019081526020016000206008016002886040518082805190602001908083835b602083106144f357805182526020820191506020810190506020830392506144d0565b6001836020036101000a038019825116818451168082178552505050505050905001915050908152602001604051809103902060040160008a815260200190815260200160002060070160008381526020019081526020016000206008019080546001816001161561010002031660029004614570929190615c99565b506003888154811061457e57fe5b90600052602060002090600c02016007016000828152602001908152602001600020600501546002886040518082805190602001908083835b602083106145da57805182526020820191506020810190506020830392506145b7565b6001836020036101000a038019825116818451168082178552505050505050905001915050908152602001604051809103902060040160008a81526020019081526020016000206007016000838152602001908152602001600020600501819055506003888154811061464957fe5b90600052602060002090600c02016007016000828152602001908152602001600020600401546002886040518082805190602001908083835b602083106146a55780518252602082019150602081019050602083039250614682565b6001836020036101000a038019825116818451168082178552505050505050905001915050908152602001604051809103902060040160008a81526020019081526020016000206007016000838152602001908152602001600020600401819055506148106003898154811061471757fe5b90600052602060002090600c020160070160008381526020019081526020016000206002018054600181600116156101000203166002900480601f0160208091040260200160405190810160405280929190818152602001828054600181600116156101000203166002900480156147d05780601f106147a5576101008083540402835291602001916147d0565b820191906000526020600020905b8154815290600101906020018083116147b357829003601f168201915b50505050506040518060400160405280600681526020017f7172636f6465000000000000000000000000000000000000000000000000000081525061575e565b15614aac5760008090505b6003898154811061482857fe5b90600052602060002090600c0201600701600083815260200190815260200160002060030154811015614aaa576149f460038a8154811061486557fe5b90600052602060002090600c020160070160008481526020019081526020016000206000018054600181600116156101000203166002900480601f01602080910402602001604051908101604052809291908181526020018280546001816001161561010002031660029004801561491e5780601f106148f35761010080835404028352916020019161491e565b820191906000526020600020905b81548152906001019060200180831161490157829003601f168201915b505050505060038b8154811061493057fe5b90600052602060002090600c020160070160008581526020019081526020016000206002018054600181600116156101000203166002900480601f0160208091040260200160405190810160405280929190818152602001828054600181600116156101000203166002900480156149e95780601f106149be576101008083540402835291602001916149e9565b820191906000526020600020905b8154815290600101906020018083116149cc57829003601f168201915b50505050508361584d565b6002896040518082805190602001908083835b60208310614a2a5780518252602082019150602081019050602083039250614a07565b6001836020036101000a038019825116818451168082178552505050505050905001915050908152602001604051809103902060040160008b81526020019081526020016000206007016000848152602001908152602001600020600901600083815260200190815260200160002081905550808060010191505061481b565b505b6002876040518082805190602001908083835b60208310614ae25780518252602082019150602081019050602083039250614abf565b6001836020036101000a03801982511681845116808217855250505050505090500191505090815260200160405180910390206004016000614b23896121e7565b8152602001908152602001600020600601614b3d886121e7565b90806001815401808255809150509060018203906000526020600020016000909192909190915055508080600101915050613f32565b506002866040518082805190602001908083835b60208310614baa5780518252602082019150602081019050602083039250614b87565b6001836020036101000a0380198251168184511680821785525050505050509050019150509081526020016040518091039020600301614be9876121e7565b9080600181540180825580915050906001820390600052602060002001600090919290919091505550600160038881548110614c2157fe5b90600052602060002090600c0201600b01876040518082805190602001908083835b60208310614c665780518252602082019150602081019050602083039250614c43565b6001836020036101000a038019825116818451168082178552505050505050905001915050908152602001604051809103902060006101000a81548160ff0219169083151502179055509295509295909350565b600060038281548110614cc957fe5b90600052602060002090600c0201600601805490509050919050565b600460009054906101000a900473ffffffffffffffffffffffffffffffffffffffff1673ffffffffffffffffffffffffffffffffffffffff163373ffffffffffffffffffffffffffffffffffffffff1614614d83576040517f08c379a0000000000000000000000000000000000000000000000000000000008152600401808060200182810382526000815260200160200191505060405180910390fd5b614d8b615d20565b86816000018190525085816020018190525084816040018190525083816060018190525082816080018190525060018160c001901515908115158152505081600080614dd5611ae2565b81526020019081526020016000209080519060200190614df6929190615ad0565b506003819080600181540180825580915050906001820390600052602060002090600c0201600090919290919091506000820151816000019080519060200190614e41929190615d77565b506020820151816001019080519060200190614e5e929190615d77565b506040820151816002019080519060200190614e7b929190615d77565b506060820151816003019080519060200190614e98929190615d77565b506080820151816004019080519060200190614eb5929190615d77565b5060a08201518160050160006101000a81548160ff02191690831515021790555060c08201518160050160016101000a81548160ff02191690831515021790555060e0820151816006019080519060200190614f12929190615df7565b50610100820151816008019080519060200190614f30929190615e44565b5061012082015181600a015550505050505050505050565b600060038481548110614f5757fe5b90600052602060002090600c0201600701600084815260200190815260200160002060090160008381526020019081526020016000205490509392505050565b6000806002846040518082805190602001908083835b60208310614fd05780518252602082019150602081019050602083039250614fad565b6001836020036101000a038019825116818451168082178552505050505050905001915050908152602001604051809103902060040160008781526020019081526020016000206007016000868152602001908152602001600020600301541161507d576040517f08c379a0000000000000000000000000000000000000000000000000000000008152600401808060200182810382526000815260200160200191505060405180910390fd5b60008090505b6003868154811061509057fe5b90600052602060002090600c02016007016000868152602001908152602001600020600301548110156154b25782600387815481106150cb57fe5b90600052602060002090600c020160070160008781526020019081526020016000206009016000838152602001908152602001600020541480156151bf57506002846040518082805190602001908083835b60208310615140578051825260208201915060208101905060208303925061511d565b6001836020036101000a038019825116818451168082178552505050505050905001915050908152602001604051809103902060040160008781526020019081526020016000206007016000868152602001908152602001600020600a01600084815260200190815260200160002060009054906101000a900460ff16155b156154a55760016002856040518082805190602001908083835b602083106151fc57805182526020820191506020810190506020830392506151d9565b6001836020036101000a038019825116818451168082178552505050505050905001915050908152602001604051809103902060040160008881526020019081526020016000206007016000878152602001908152602001600020600a01600085815260200190815260200160002060006101000a81548160ff0219169083151502179055506002846040518082805190602001908083835b602083106152b85780518252602082019150602081019050602083039250615295565b6001836020036101000a03801982511681845116808217855250505050505090500191505090815260200160405180910390206004016000878152602001908152602001600020600701600086815260200190815260200160002060030160008154809291906001900391905055506003868154811061533457fe5b90600052602060002090600c02016007016000868152602001908152602001600020600401546002856040518082805190602001908083835b60208310615390578051825260208201915060208101905060208303925061536d565b6001836020036101000a038019825116818451168082178552505050505050905001915050908152602001604051809103902060020160008282540192505081905550600386815481106153e057fe5b90600052602060002090600c02016007016000868152602001908152602001600020600501546003878154811061541357fe5b90600052602060002090600c0201600901856040518082805190602001908083835b602083106154585780518252602082019150602081019050602083039250615435565b6001836020036101000a03801982511681845116808217855250505050505090500191505090815260200160405180910390206001016000828254019250508190555060019150506154b8565b8080600101915050615083565b50600090505b949350505050565b6000600383815481106154cf57fe5b90600052602060002090600c0201600b01826040518082805190602001908083835b6020831061551457805182526020820191506020810190506020830392506154f1565b6001836020036101000a038019825116818451168082178552505050505050905001915050908152602001604051809103902060009054906101000a900460ff16905092915050565b6001818154811061556a57fe5b906000526020600020016000915090508054600181600116156101000203166002900480601f01602080910402602001604051908101604052809291908181526020018280546001816001161561010002031660029004801561560e5780601f106155e35761010080835404028352916020019161560e565b820191906000526020600020905b8154815290600101906020018083116155f157829003601f168201915b505050505081565b6000615657826040518060400160405280600681526020017f7172636f6465000000000000000000000000000000000000000000000000000081525061575e565b6156ad5761569a826040518060400160405280600881526020017f7175657374696f6e00000000000000000000000000000000000000000000000081525061575e565b6156a55760646156a8565b60325b6156b0565b60c85b60ff169050919050565b60006156fb826040518060400160405280600681526020017f7172636f6465000000000000000000000000000000000000000000000000000081525061575e565b6157515761573e826040518060400160405280600881526020017f7175657374696f6e00000000000000000000000000000000000000000000000081525061575e565b61574957606461574c565b60325b615754565b60965b60ff169050919050565b6000816040516020018082805190602001908083835b602083106157975780518252602082019150602081019050602083039250615774565b6001836020036101000a03801982511681845116808217855250505050505090500191505060405160208183030381529060405280519060200120836040516020018082805190602001908083835b6020831061580957805182526020820191506020810190506020830392506157e6565b6001836020036101000a0380198251168184511680821785525050505050509050019150506040516020818303038152906040528051906020012014905092915050565b60008082141561585d576101b891505b600082905060005b60008214615887578080600101915050600a828161587f57fe5b049150615865565b6060816040519080825280601f01601f1916602001820160405280156158bc5781602001600182028038833980820191505090505b50905060006001830390505b6000861461593557600a86816158da57fe5b0660300160f81b828280600190039350815181106158f457fe5b60200101907effffffffffffffffffffffffffffffffffffffffffffffffffffffffffffff1916908160001a905350600a868161592d57fe5b0495506158c8565b60608888846040516020018084805190602001908083835b60208310615970578051825260208201915060208101905060208303925061594d565b6001836020036101000a03801982511681845116808217855250505050505090500183805190602001908083835b602083106159c1578051825260208201915060208101905060208303925061599e565b6001836020036101000a03801982511681845116808217855250505050505090500182805190602001908083835b60208310615a1257805182526020820191506020810190506020830392506159ef565b6001836020036101000a038019825116818451168082178552505050505050905001935050505060405160208183030381529060405290506000816040516020018082805190602001908083835b60208310615a835780518252602082019150602081019050602083039250615a60565b6001836020036101000a0380198251168184511680821785525050505050509050019150506040516020818303038152906040528051906020012090508096505050505050509392505050565b828054600181600116156101000203166002900490600052602060002090601f016020900481019282601f10615b1157805160ff1916838001178555615b3f565b82800160010185558215615b3f579182015b82811115615b3e578251825591602001919060010190615b23565b5b509050615b4c9190615ea4565b5090565b828054600181600116156101000203166002900490600052602060002090601f016020900481019282601f10615b895780548555615bc6565b82800160010185558215615bc657600052602060002091601f016020900482015b82811115615bc5578254825591600101919060010190615baa565b5b509050615bd39190615ea4565b5090565b828054828255906000526020600020908101928215615c185760005260206000209182015b82811115615c17578254825591600101919060010190615bfc565b5b509050615c259190615ea4565b5090565b828054828255906000526020600020908101928215615c885760005260206000209182015b82811115615c875782829080546001816001161561010002031660029004615c77929190615b50565b5091600101919060010190615c4e565b5b509050615c959190615ec9565b5090565b828054600181600116156101000203166002900490600052602060002090601f016020900481019282601f10615cd25780548555615d0f565b82800160010185558215615d0f57600052602060002091601f016020900482015b82811115615d0e578254825591600101919060010190615cf3565b5b509050615d1c9190615ea4565b5090565b60405180610140016040528060608152602001606081526020016060815260200160608152602001606081526020016000151581526020016000151581526020016060815260200160608152602001600081525090565b828054600181600116156101000203166002900490600052602060002090601f016020900481019282601f10615db857805160ff1916838001178555615de6565b82800160010185558215615de6579182015b82811115615de5578251825591602001919060010190615dca565b5b509050615df39190615ea4565b5090565b828054828255906000526020600020908101928215615e33579160200282015b82811115615e32578251825591602001919060010190615e17565b5b509050615e409190615ea4565b5090565b828054828255906000526020600020908101928215615e93579160200282015b82811115615e92578251829080519060200190615e82929190615d77565b5091602001919060010190615e64565b5b509050615ea09190615ec9565b5090565b615ec691905b80821115615ec2576000816000905550600101615eaa565b5090565b90565b615ef291905b80821115615eee5760008181615ee59190615ef5565b50600101615ecf565b5090565b90565b50805460018160011615610100020316600290046000825580601f10615f1b5750615f3a565b601f016020900490600052602060002090810190615f399190615ea4565b5b5056fea265627a7a72315820d751afff1bf7702c3909c9e6f3c0830c1ae9c72cc141cac2f1be61d0b1876bde64736f6c63430005100032",
  "source": "pragma solidity >=0.4.21 <0.7.0;\n\n\n\ncontract Nomoriam {\n    \n    struct Activity {\n        string title;\n        string image;\n        string category;\n        uint times;\n        uint exp;\n        uint point;\n        string question;\n        string answer;\n        string location;\n        mapping(uint => bytes32) qrcode;\n        mapping(bytes32 => bool) qrcodeComplete;\n    }\n    \n    struct Challenge {\n        string title;\n        string desc;\n        string image;\n        string create_time;\n        string end_time;\n        bool finished;\n        bool approved;\n        uint[] activities;\n        mapping(uint => Activity) activity;\n        string[] players;\n        mapping(string => Player) player;\n        uint sum_point;\n        mapping(string => bool) joined;\n    }\n    \n    struct Player {\n        string uid;\n        uint point;\n        uint exp;\n        uint[] challenges;\n        mapping(uint => Challenge) challenge;\n    }\n    \n    mapping(uint => string) owner;\n    string[] public players;\n    mapping(string => Player) player;\n    \n    Challenge[] public challenges;\n    \n    address public manager;\n    \n    constructor() public {\n        manager = msg.sender;\n    }\n    \n    modifier restricted() {\n        require(msg.sender == manager, \"\");\n        _;\n    }\n    \n    function compareString(string memory a, string memory b) internal pure returns(bool){\n        return keccak256(abi.encodePacked(a)) == keccak256(abi.encodePacked(b));\n    }\n    \n    /* \n        Challenge\n    */\n    \n    function createChallenge(\n        string memory title, string memory desc, string memory image, string memory create_time, string memory end_time, string memory _owner\n    ) public restricted {\n        Challenge memory newChallenge;\n        newChallenge.title = title;\n        newChallenge.desc = desc;\n        newChallenge.image = image;\n        newChallenge.create_time = create_time;\n        newChallenge.end_time = end_time;\n        newChallenge.approved = true;\n        owner[getChallengeCount()] = _owner;\n        challenges.push(newChallenge);\n    }\n    \n    function finishChallenge(uint index) public returns(bool){\n        require(challenges[index].approved, \"Check Approve\");\n        require(!challenges[index].finished, \"Check Finished\");\n        challenges[index].finished = true;\n        for (uint i = 0 ; i < challenges[index].players.length ; i++){\n            if((challenges[index].player[challenges[index].players[i]].point == challenges[index].sum_point)){\n                player[challenges[index].players[i]].point += 200;\n            }\n        }\n        return true;\n        \n    }\n    \n    function joinChallenge(uint index, string memory uid) public returns(string memory, uint, uint,string memory,uint) {\n        require(!challenges[index].joined[uid], \"\");\n        // Challenge\n        challenges[index].player[uid].uid = uid;\n        challenges[index].player[uid].point = 0;\n        challenges[index].player[uid].exp = 0;\n        challenges[index].players.push(uid);\n        \n        // Player\n        player[uid].challenge[getChallengeCountByPlayer(uid)] = challenges[index];\n        \n        for (uint i = 0 ; i < getActivityCount(index) ; i++){\n            player[uid].challenge[index].activity[i].title = challenges[index].activity[i].title;\n            player[uid].challenge[index].activity[i].image = challenges[index].activity[i].image;\n            player[uid].challenge[index].activity[i].category = challenges[index].activity[i].category;\n            player[uid].challenge[index].activity[i].times = challenges[index].activity[i].times;\n            player[uid].challenge[index].activity[i].question = challenges[index].activity[i].question;\n            player[uid].challenge[index].activity[i].answer = challenges[index].activity[i].answer;\n            player[uid].challenge[index].activity[i].location = challenges[index].activity[i].location;\n            player[uid].challenge[index].activity[i].point = challenges[index].activity[i].point;\n            player[uid].challenge[index].activity[i].exp = challenges[index].activity[i].exp;\n            if (compareString(challenges[index].activity[i].category, \"qrcode\")){\n                for (uint j = 0 ; j < challenges[index].activity[i].times ; j++){\n                    player[uid].challenge[index].activity[i].qrcode[j] = generateQRcode(\n                        challenges[index].activity[i].title, challenges[index].activity[i].category, j\n                    );\n                }\n            }\n            player[uid].challenge[getChallengeCountByPlayer(uid)].activities.push(getChallengeCountByPlayer(uid));\n        }\n        player[uid].challenges.push(getChallengeCountByPlayer(uid));\n        challenges[index].joined[uid] = true;\n    }\n\n    function addActivity (\n        uint _index, string memory title, string memory image, string memory category, uint times,\n        string memory question, string memory answer, string memory location\n    ) public restricted {\n        challenges[_index].activity[getActivityCount(_index)].title = title;\n        challenges[_index].activity[getActivityCount(_index)].image = image;\n        challenges[_index].activity[getActivityCount(_index)].category = category;\n        challenges[_index].activity[getActivityCount(_index)].times = times;\n        challenges[_index].activity[getActivityCount(_index)].question = question;\n        challenges[_index].activity[getActivityCount(_index)].answer = answer;\n        challenges[_index].activity[getActivityCount(_index)].location = location;\n        challenges[_index].activity[getActivityCount(_index)].point = generatePoint(category);\n        challenges[_index].activity[getActivityCount(_index)].exp = generateExp(category);\n        challenges[_index].sum_point += generatePoint(category) * times;\n        if (compareString(category, \"qrcode\")){\n            for (uint i = 0 ; i < times ; i++){\n                challenges[_index].activity[getActivityCount(_index)].qrcode[i] = generateQRcode(title, category, i);\n            }\n        }\n        challenges[_index].activities.push(getActivityCount(_index));\n    }\n    \n    function generateQRcode(string memory word, string memory word2, uint256 _i) internal pure returns (bytes32){\n        if (_i == 0) {\n            _i = 440;\n        }\n        uint256 j = _i;\n        uint256 len;\n        while (j != 0) {\n            len++;\n            j /= 10;\n        }\n        bytes memory bstr = new bytes(len);\n        uint256 k = len - 1;\n        while (_i != 0) {\n            bstr[k--] = bytes1(uint8(48 + (_i % 10)));\n            _i /= 10;\n        }\n        string memory concat = string(\n            abi.encodePacked(word, word2, string(bstr))\n        );\n        bytes32 hash = keccak256(abi.encodePacked(concat));\n        return hash;\n    }\n    \n    function doPost(uint _index, uint _count, string memory uid) public returns(bool){\n        require(player[uid].challenge[_index].activity[_count].times > 0, \"\");\n        \n        // Add Exp to Player\n        player[uid].challenge[_index].activity[_count].times--;\n        player[uid].exp += challenges[_index].activity[_count].exp;\n        // Add Point to Challenge\n        challenges[_index].player[uid].point += challenges[_index].activity[_count].point;\n        return true;\n    }\n    \n    function doQuestion(uint _index, uint _count, string memory uid, string memory answer) public returns(bool){\n        require(compareString(answer, challenges[_index].activity[_count].answer),\"\");\n        require(player[uid].challenge[_index].activity[_count].times == 1, \"\");\n        \n        // add Exp to player\n        player[uid].challenge[_index].activity[_count].times--;\n        player[uid].exp += challenges[_index].activity[_count].exp;\n        // add Point to challenge\n        challenges[_index].player[uid].point += challenges[_index].activity[_count].point;\n    }\n    \n    function doQRCode(uint _index, uint _count, string memory uid, bytes32 qrcode) public returns(bool){\n        require(player[uid].challenge[_index].activity[_count].times > 0, \"\");\n        for (uint i = 0 ; i < challenges[_index].activity[_count].times ; i++){\n            if(challenges[_index].activity[_count].qrcode[i] == qrcode && !player[uid].challenge[_index].activity[_count].qrcodeComplete[qrcode]){\n                player[uid].challenge[_index].activity[_count].qrcodeComplete[qrcode] = true;\n                // add exp to player\n                player[uid].challenge[_index].activity[_count].times--;\n                player[uid].exp += challenges[_index].activity[_count].exp;\n                 // add Point to challenge\n                challenges[_index].player[uid].point += challenges[_index].activity[_count].point;\n                return true;\n            }\n        }\n        return false;\n    }\n\n    \n    function generatePoint(string memory category) internal pure returns(uint){\n        return compareString(category,\"qrcode\") ? 200 : compareString(category, \"question\") ? 50 : 100;\n    }\n    \n    function generateExp(string memory category) internal pure returns(uint){\n        return compareString(category,\"qrcode\") ? 150 : compareString(category, \"question\") ? 50 : 100;\n    }\n    \n    /* \n        Player\n    */\n    \n    function createPlayer(string memory uid) public returns(bool){\n        player[uid].uid = uid;\n        player[uid].point = 0;\n        player[uid].exp = 0;\n        players.push(uid);\n    }\n    \n    function getActivityCount(uint _index) public view returns(uint){\n        return challenges[_index].activities.length;\n    }\n    \n    function getPlayerCount() public view returns(uint){\n        return players.length;\n    }\n    \n    function getChallengeCountByPlayer(string memory uid) public view returns(uint){\n        return player[uid].challenges.length;\n    }\n    \n    function getChallengeCount() public view returns(uint){\n        return challenges.length;\n    } \n    \n    function getPlayer(string memory uid) public view returns(string memory, uint, uint, uint){\n        return (\n            player[uid].uid, player[uid].point, player[uid].exp, player[uid].challenges.length\n        );\n    }\n    \n    function getActivityChallengeByPlayer(uint index, uint count, string memory uid) public view returns(\n        string memory, uint){\n        return (\n            player[uid].challenge[index].activity[count].title, player[uid].challenge[index].activity[count].times \n        );\n    }\n    \n    function getJoinedChallenge(uint index, string memory uid) public view returns(bool){\n        return challenges[index].joined[uid];\n    }\n    \n    function getStatusChallenge(uint index) public view returns(\n        bool, bool, uint\n    ){\n        return (\n             challenges[index].approved, challenges[index].finished, challenges[index].sum_point    \n        );\n    }\n\n    \n    function getQuestionByChallenge(uint _index, uint _count) public view returns(string memory, string memory){\n        return (challenges[_index].activity[_count].question, challenges[_index].activity[_count].answer);\n    }\n    \n    function getQRcodeByChallenge(uint _index, uint _count, uint _times) public view returns (bytes32) {\n        return challenges[_index].activity[_count].qrcode[_times];\n    }\n    \n    function getActivityByChallenge(uint _index, uint _count) public view returns(\n        string memory, string memory, string memory, uint, uint, uint, string memory \n    ){\n        return (\n            challenges[_index].activity[_count].title, challenges[_index].activity[_count].image, challenges[_index].activity[_count].category,\n            challenges[_index].activity[_count].times, challenges[_index].activity[_count].point, challenges[_index].activity[_count].exp,\n            challenges[_index].activity[_count].location\n        );\n    }\n    \n\n}",
  "sourcePath": "/Users/chayutaroonsang/Downloads/Project/CrytoNomoriam/contracts/Nomoriam.sol",
  "compiler": {
    "name": "solc",
    "version": "0.5.16+commit.9c3226ce.Emscripten.clang"
  },
  "schemaVersion": "3.0.23",
  "updatedAt": "2020-02-16T17:25:25.533Z",
  "devdoc": {
    "methods": {}
  },
  "userdoc": {
    "methods": {}
  }
}