{
  "contractName": "Nomoriam",
  "abi": [
    {
      "inputs": [],
      "payable": false,
      "stateMutability": "nonpayable",
      "type": "constructor"
    },
    {
      "constant": true,
      "inputs": [
        {
          "internalType": "uint256",
          "name": "",
          "type": "uint256"
        }
      ],
      "name": "challenges",
      "outputs": [
        {
          "internalType": "string",
          "name": "title",
          "type": "string"
        },
        {
          "internalType": "string",
          "name": "desc",
          "type": "string"
        },
        {
          "internalType": "string",
          "name": "image",
          "type": "string"
        },
        {
          "internalType": "string",
          "name": "create_time",
          "type": "string"
        },
        {
          "internalType": "string",
          "name": "end_time",
          "type": "string"
        },
        {
          "internalType": "bool",
          "name": "finished",
          "type": "bool"
        },
        {
          "internalType": "bool",
          "name": "approved",
          "type": "bool"
        },
        {
          "internalType": "uint256",
          "name": "sum_point",
          "type": "uint256"
        }
      ],
      "payable": false,
      "stateMutability": "view",
      "type": "function"
    },
    {
      "constant": true,
      "inputs": [],
      "name": "manager",
      "outputs": [
        {
          "internalType": "address",
          "name": "",
          "type": "address"
        }
      ],
      "payable": false,
      "stateMutability": "view",
      "type": "function"
    },
    {
      "constant": true,
      "inputs": [
        {
          "internalType": "uint256",
          "name": "",
          "type": "uint256"
        }
      ],
      "name": "players",
      "outputs": [
        {
          "internalType": "string",
          "name": "",
          "type": "string"
        }
      ],
      "payable": false,
      "stateMutability": "view",
      "type": "function"
    },
    {
      "constant": false,
      "inputs": [
        {
          "internalType": "string",
          "name": "title",
          "type": "string"
        },
        {
          "internalType": "string",
          "name": "desc",
          "type": "string"
        },
        {
          "internalType": "string",
          "name": "image",
          "type": "string"
        },
        {
          "internalType": "string",
          "name": "create_time",
          "type": "string"
        },
        {
          "internalType": "string",
          "name": "end_time",
          "type": "string"
        },
        {
          "internalType": "string",
          "name": "_owner",
          "type": "string"
        }
      ],
      "name": "createChallenge",
      "outputs": [],
      "payable": false,
      "stateMutability": "nonpayable",
      "type": "function"
    },
    {
      "constant": false,
      "inputs": [
        {
          "internalType": "uint256",
          "name": "index",
          "type": "uint256"
        }
      ],
      "name": "finishChallenge",
      "outputs": [
        {
          "internalType": "bool",
          "name": "",
          "type": "bool"
        }
      ],
      "payable": false,
      "stateMutability": "nonpayable",
      "type": "function"
    },
    {
      "constant": false,
      "inputs": [
        {
          "internalType": "uint256",
          "name": "index",
          "type": "uint256"
        },
        {
          "internalType": "string",
          "name": "uid",
          "type": "string"
        }
      ],
      "name": "joinChallenge",
      "outputs": [
        {
          "internalType": "string",
          "name": "",
          "type": "string"
        },
        {
          "internalType": "uint256",
          "name": "",
          "type": "uint256"
        },
        {
          "internalType": "uint256",
          "name": "",
          "type": "uint256"
        },
        {
          "internalType": "string",
          "name": "",
          "type": "string"
        },
        {
          "internalType": "uint256",
          "name": "",
          "type": "uint256"
        }
      ],
      "payable": false,
      "stateMutability": "nonpayable",
      "type": "function"
    },
    {
      "constant": false,
      "inputs": [
        {
          "internalType": "uint256",
          "name": "_index",
          "type": "uint256"
        },
        {
          "internalType": "string",
          "name": "title",
          "type": "string"
        },
        {
          "internalType": "string",
          "name": "image",
          "type": "string"
        },
        {
          "internalType": "string",
          "name": "category",
          "type": "string"
        },
        {
          "internalType": "uint256",
          "name": "times",
          "type": "uint256"
        },
        {
          "internalType": "string",
          "name": "question",
          "type": "string"
        },
        {
          "internalType": "string",
          "name": "answer",
          "type": "string"
        },
        {
          "internalType": "string",
          "name": "location",
          "type": "string"
        }
      ],
      "name": "addActivity",
      "outputs": [],
      "payable": false,
      "stateMutability": "nonpayable",
      "type": "function"
    },
    {
      "constant": false,
      "inputs": [
        {
          "internalType": "uint256",
          "name": "_index",
          "type": "uint256"
        },
        {
          "internalType": "uint256",
          "name": "_count",
          "type": "uint256"
        },
        {
          "internalType": "string",
          "name": "uid",
          "type": "string"
        }
      ],
      "name": "doPost",
      "outputs": [
        {
          "internalType": "bool",
          "name": "",
          "type": "bool"
        }
      ],
      "payable": false,
      "stateMutability": "nonpayable",
      "type": "function"
    },
    {
      "constant": false,
      "inputs": [
        {
          "internalType": "uint256",
          "name": "_index",
          "type": "uint256"
        },
        {
          "internalType": "uint256",
          "name": "_count",
          "type": "uint256"
        },
        {
          "internalType": "string",
          "name": "uid",
          "type": "string"
        },
        {
          "internalType": "string",
          "name": "answer",
          "type": "string"
        }
      ],
      "name": "doQuestion",
      "outputs": [
        {
          "internalType": "bool",
          "name": "",
          "type": "bool"
        }
      ],
      "payable": false,
      "stateMutability": "nonpayable",
      "type": "function"
    },
    {
      "constant": false,
      "inputs": [
        {
          "internalType": "uint256",
          "name": "_index",
          "type": "uint256"
        },
        {
          "internalType": "uint256",
          "name": "_count",
          "type": "uint256"
        },
        {
          "internalType": "string",
          "name": "uid",
          "type": "string"
        },
        {
          "internalType": "bytes32",
          "name": "qrcode",
          "type": "bytes32"
        }
      ],
      "name": "doQRCode",
      "outputs": [
        {
          "internalType": "bool",
          "name": "",
          "type": "bool"
        }
      ],
      "payable": false,
      "stateMutability": "nonpayable",
      "type": "function"
    },
    {
      "constant": false,
      "inputs": [
        {
          "internalType": "string",
          "name": "uid",
          "type": "string"
        }
      ],
      "name": "createPlayer",
      "outputs": [
        {
          "internalType": "bool",
          "name": "",
          "type": "bool"
        }
      ],
      "payable": false,
      "stateMutability": "nonpayable",
      "type": "function"
    },
    {
      "constant": true,
      "inputs": [
        {
          "internalType": "uint256",
          "name": "_index",
          "type": "uint256"
        }
      ],
      "name": "getActivityCount",
      "outputs": [
        {
          "internalType": "uint256",
          "name": "",
          "type": "uint256"
        }
      ],
      "payable": false,
      "stateMutability": "view",
      "type": "function"
    },
    {
      "constant": true,
      "inputs": [
        {
          "internalType": "string",
          "name": "uid",
          "type": "string"
        }
      ],
      "name": "getChallengeCountByPlayer",
      "outputs": [
        {
          "internalType": "uint256",
          "name": "",
          "type": "uint256"
        }
      ],
      "payable": false,
      "stateMutability": "view",
      "type": "function"
    },
    {
      "constant": true,
      "inputs": [],
      "name": "getChallengeCount",
      "outputs": [
        {
          "internalType": "uint256",
          "name": "",
          "type": "uint256"
        }
      ],
      "payable": false,
      "stateMutability": "view",
      "type": "function"
    },
    {
      "constant": true,
      "inputs": [
        {
          "internalType": "string",
          "name": "uid",
          "type": "string"
        }
      ],
      "name": "getPlayer",
      "outputs": [
        {
          "internalType": "string",
          "name": "",
          "type": "string"
        },
        {
          "internalType": "uint256",
          "name": "",
          "type": "uint256"
        },
        {
          "internalType": "uint256",
          "name": "",
          "type": "uint256"
        },
        {
          "internalType": "uint256",
          "name": "",
          "type": "uint256"
        }
      ],
      "payable": false,
      "stateMutability": "view",
      "type": "function"
    },
    {
      "constant": true,
      "inputs": [
        {
          "internalType": "uint256",
          "name": "index",
          "type": "uint256"
        },
        {
          "internalType": "uint256",
          "name": "count",
          "type": "uint256"
        },
        {
          "internalType": "string",
          "name": "uid",
          "type": "string"
        }
      ],
      "name": "getActivityChallengeByPlayer",
      "outputs": [
        {
          "internalType": "string",
          "name": "",
          "type": "string"
        },
        {
          "internalType": "uint256",
          "name": "",
          "type": "uint256"
        }
      ],
      "payable": false,
      "stateMutability": "view",
      "type": "function"
    },
    {
      "constant": true,
      "inputs": [
        {
          "internalType": "uint256",
          "name": "index",
          "type": "uint256"
        },
        {
          "internalType": "string",
          "name": "uid",
          "type": "string"
        }
      ],
      "name": "getJoinedChallenge",
      "outputs": [
        {
          "internalType": "bool",
          "name": "",
          "type": "bool"
        }
      ],
      "payable": false,
      "stateMutability": "view",
      "type": "function"
    },
    {
      "constant": true,
      "inputs": [
        {
          "internalType": "uint256",
          "name": "index",
          "type": "uint256"
        }
      ],
      "name": "getPlayerCountByChallenge",
      "outputs": [
        {
          "internalType": "uint256",
          "name": "",
          "type": "uint256"
        }
      ],
      "payable": false,
      "stateMutability": "view",
      "type": "function"
    },
    {
      "constant": true,
      "inputs": [
        {
          "internalType": "uint256",
          "name": "index",
          "type": "uint256"
        },
        {
          "internalType": "uint256",
          "name": "count",
          "type": "uint256"
        }
      ],
      "name": "getPlayerUID",
      "outputs": [
        {
          "internalType": "string",
          "name": "",
          "type": "string"
        }
      ],
      "payable": false,
      "stateMutability": "view",
      "type": "function"
    },
    {
      "constant": true,
      "inputs": [
        {
          "internalType": "uint256",
          "name": "index",
          "type": "uint256"
        },
        {
          "internalType": "string",
          "name": "uid",
          "type": "string"
        }
      ],
      "name": "getPlayerByChallenge",
      "outputs": [
        {
          "internalType": "string",
          "name": "",
          "type": "string"
        },
        {
          "internalType": "uint256",
          "name": "",
          "type": "uint256"
        }
      ],
      "payable": false,
      "stateMutability": "view",
      "type": "function"
    },
    {
      "constant": true,
      "inputs": [
        {
          "internalType": "uint256",
          "name": "_index",
          "type": "uint256"
        },
        {
          "internalType": "uint256",
          "name": "_count",
          "type": "uint256"
        }
      ],
      "name": "getQuestionByChallenge",
      "outputs": [
        {
          "internalType": "string",
          "name": "",
          "type": "string"
        },
        {
          "internalType": "string",
          "name": "",
          "type": "string"
        }
      ],
      "payable": false,
      "stateMutability": "view",
      "type": "function"
    },
    {
      "constant": true,
      "inputs": [
        {
          "internalType": "uint256",
          "name": "_index",
          "type": "uint256"
        },
        {
          "internalType": "uint256",
          "name": "_count",
          "type": "uint256"
        },
        {
          "internalType": "uint256",
          "name": "_times",
          "type": "uint256"
        }
      ],
      "name": "getQRcodeByChallenge",
      "outputs": [
        {
          "internalType": "bytes32",
          "name": "",
          "type": "bytes32"
        }
      ],
      "payable": false,
      "stateMutability": "view",
      "type": "function"
    },
    {
      "constant": true,
      "inputs": [
        {
          "internalType": "uint256",
          "name": "_index",
          "type": "uint256"
        },
        {
          "internalType": "uint256",
          "name": "_count",
          "type": "uint256"
        }
      ],
      "name": "getActivityByChallenge",
      "outputs": [
        {
          "internalType": "string",
          "name": "",
          "type": "string"
        },
        {
          "internalType": "string",
          "name": "",
          "type": "string"
        },
        {
          "internalType": "string",
          "name": "",
          "type": "string"
        },
        {
          "internalType": "uint256",
          "name": "",
          "type": "uint256"
        },
        {
          "internalType": "uint256",
          "name": "",
          "type": "uint256"
        },
        {
          "internalType": "uint256",
          "name": "",
          "type": "uint256"
        },
        {
          "internalType": "string",
          "name": "",
          "type": "string"
        }
      ],
      "payable": false,
      "stateMutability": "view",
      "type": "function"
    }
  ],
  "bytecode": "0x608060405234801561001057600080fd5b5060048054600160a060020a0319163317905561571b80620000336000396000f3fe608060405234801561001057600080fd5b50600436106101aa576000357c0100000000000000000000000000000000000000000000000000000000900480638f1d377611610100578063d7a23fd4116100a9578063e2b0960311610083578063e2b09603146116df578063f4f4fa2214611793578063f71d96cb14611840576101aa565b8063d7a23fd414611350578063e00594591461136d578063e0589661146116b6576101aa565b8063a95fffc6116100da578063a95fffc614611072578063b586a7401461110a578063d3ad3e34146111b0576101aa565b80638f1d377614610b0d578063a025816614610d57578063a8f4c0e914610f39576101aa565b8063450b1332116101625780635f10c4101161013c5780635f10c410146108a8578063682a7eca1461095a57806372218ffe14610a5b576101aa565b8063450b1332146107a0578063481c6a7514610846578063573808fc14610877576101aa565b806323f0a5671161019357806323f0a567146102fc57806331f8fdf4146104285780633648ffae14610783576101aa565b80630933f467146101af5780631f11b24f146101c9575b600080fd5b6101b761185d565b60408051918252519081900360200190f35b61026f600480360360208110156101df57600080fd5b8101906020810181356401000000008111156101fa57600080fd5b82018360208201111561020c57600080fd5b8035906020019184600183028401116401000000008311171561022e57600080fd5b91908080601f016020809104026020016040519081016040528093929190818152602001838380828437600092019190915250929550611864945050505050565b6040518080602001858152602001848152602001838152602001828103825286818151815260200191508051906020019080838360005b838110156102be5781810151838201526020016102a6565b50505050905090810190601f1680156102eb5780820380516001836020036101000a031916815260200191505b509550505050505060405180910390f35b6103a96004803603604081101561031257600080fd5b8135919081019060408101602082013564010000000081111561033457600080fd5b82018360208201111561034657600080fd5b8035906020019184600183028401116401000000008311171561036857600080fd5b91908080601f016020809104026020016040519081016040528093929190818152602001838380828437600092019190915250929550611a9c945050505050565b6040518080602001838152602001828103825284818151815260200191508051906020019080838360005b838110156103ec5781810151838201526020016103d4565b50505050905090810190601f1680156104195780820380516001836020036101000a031916815260200191505b50935050505060405180910390f35b610781600480360361010081101561043f57600080fd5b8135919081019060408101602082013564010000000081111561046157600080fd5b82018360208201111561047357600080fd5b8035906020019184600183028401116401000000008311171561049557600080fd5b91908080601f01602080910402602001604051908101604052809392919081815260200183838082843760009201919091525092959493602081019350359150506401000000008111156104e857600080fd5b8201836020820111156104fa57600080fd5b8035906020019184600183028401116401000000008311171561051c57600080fd5b91908080601f016020809104026020016040519081016040528093929190818152602001838380828437600092019190915250929594936020810193503591505064010000000081111561056f57600080fd5b82018360208201111561058157600080fd5b803590602001918460018302840111640100000000831117156105a357600080fd5b91908080601f016020809104026020016040519081016040528093929190818152602001838380828437600092019190915250929584359590949093506040810192506020013590506401000000008111156105fe57600080fd5b82018360208201111561061057600080fd5b8035906020019184600183028401116401000000008311171561063257600080fd5b91908080601f016020809104026020016040519081016040528093929190818152602001838380828437600092019190915250929594936020810193503591505064010000000081111561068557600080fd5b82018360208201111561069757600080fd5b803590602001918460018302840111640100000000831117156106b957600080fd5b91908080601f016020809104026020016040519081016040528093929190818152602001838380828437600092019190915250929594936020810193503591505064010000000081111561070c57600080fd5b82018360208201111561071e57600080fd5b8035906020019184600183028401116401000000008311171561074057600080fd5b91908080601f016020809104026020016040519081016040528093929190818152602001838380828437600092019190915250929550611c3a945050505050565b005b6101b76004803603602081101561079957600080fd5b5035612053565b6101b7600480360360208110156107b657600080fd5b8101906020810181356401000000008111156107d157600080fd5b8201836020820111156107e357600080fd5b8035906020019184600183028401116401000000008311171561080557600080fd5b91908080601f01602080910402602001604051908101604052809392919081815260200183838082843760009201919091525092955061207c945050505050565b61084e6120e7565b6040805173ffffffffffffffffffffffffffffffffffffffff9092168252519081900360200190f35b6108946004803603602081101561088d57600080fd5b5035612103565b604080519115158252519081900360200190f35b610894600480360360608110156108be57600080fd5b8135916020810135918101906060810160408201356401000000008111156108e557600080fd5b8201836020820111156108f757600080fd5b8035906020019184600183028401116401000000008311171561091957600080fd5b91908080601f016020809104026020016040519081016040528093929190818152602001838380828437600092019190915250929550612403945050505050565b61097d6004803603604081101561097057600080fd5b50803590602001356126b1565b604051808060200180602001838103835285818151815260200191508051906020019080838360005b838110156109be5781810151838201526020016109a6565b50505050905090810190601f1680156109eb5780820380516001836020036101000a031916815260200191505b50838103825284518152845160209182019186019080838360005b83811015610a1e578181015183820152602001610a06565b50505050905090810190601f168015610a4b5780820380516001836020036101000a031916815260200191505b5094505050505060405180910390f35b6103a960048036036060811015610a7157600080fd5b813591602081013591810190606081016040820135640100000000811115610a9857600080fd5b820183602082011115610aaa57600080fd5b80359060200191846001830284011164010000000083111715610acc57600080fd5b91908080601f016020809104026020016040519081016040528093929190818152602001838380828437600092019190915250929550612837945050505050565b610b2a60048036036020811015610b2357600080fd5b50356129cf565b604051808060200180602001806020018060200180602001891515151581526020018815151515815260200187815260200186810386528e818151815260200191508051906020019080838360005b83811015610b91578181015183820152602001610b79565b50505050905090810190601f168015610bbe5780820380516001836020036101000a031916815260200191505b5086810385528d5181528d516020918201918f019080838360005b83811015610bf1578181015183820152602001610bd9565b50505050905090810190601f168015610c1e5780820380516001836020036101000a031916815260200191505b5086810384528c5181528c516020918201918e019080838360005b83811015610c51578181015183820152602001610c39565b50505050905090810190601f168015610c7e5780820380516001836020036101000a031916815260200191505b5086810383528b5181528b516020918201918d019080838360005b83811015610cb1578181015183820152602001610c99565b50505050905090810190601f168015610cde5780820380516001836020036101000a031916815260200191505b5086810382528a5181528a516020918201918c019080838360005b83811015610d11578181015183820152602001610cf9565b50505050905090810190601f168015610d3e5780820380516001836020036101000a031916815260200191505b509d505050505050505050505050505060405180910390f35b610d7a60048036036040811015610d6d57600080fd5b5080359060200135612ce8565b604051808060200180602001806020018881526020018781526020018681526020018060200185810385528c818151815260200191508051906020019080838360005b83811015610dd5578181015183820152602001610dbd565b50505050905090810190601f168015610e025780820380516001836020036101000a031916815260200191505b5085810384528b5181528b516020918201918d019080838360005b83811015610e35578181015183820152602001610e1d565b50505050905090810190601f168015610e625780820380516001836020036101000a031916815260200191505b5085810383528a5181528a516020918201918c019080838360005b83811015610e95578181015183820152602001610e7d565b50505050905090810190601f168015610ec25780820380516001836020036101000a031916815260200191505b50858103825286518152865160209182019188019080838360005b83811015610ef5578181015183820152602001610edd565b50505050905090810190601f168015610f225780820380516001836020036101000a031916815260200191505b509b50505050505050505050505060405180910390f35b61089460048036036080811015610f4f57600080fd5b813591602081013591810190606081016040820135640100000000811115610f7657600080fd5b820183602082011115610f8857600080fd5b80359060200191846001830284011164010000000083111715610faa57600080fd5b91908080601f0160208091040260200160405190810160405280939291908181526020018383808284376000920191909152509295949360208101935035915050640100000000811115610ffd57600080fd5b82018360208201111561100f57600080fd5b8035906020019184600183028401116401000000008311171561103157600080fd5b91908080601f0160208091040260200160405190810160405280939291908181526020018383808284376000920191909152509295506130b5945050505050565b6110956004803603604081101561108857600080fd5b508035906020013561344b565b6040805160208082528351818301528351919283929083019185019080838360005b838110156110cf5781810151838201526020016110b7565b50505050905090810190601f1680156110fc5780820380516001836020036101000a031916815260200191505b509250505060405180910390f35b6108946004803603602081101561112057600080fd5b81019060208101813564010000000081111561113b57600080fd5b82018360208201111561114d57600080fd5b8035906020019184600183028401116401000000008311171561116f57600080fd5b91908080601f016020809104026020016040519081016040528093929190818152602001838380828437600092019190915250929550613511945050505050565b61125d600480360360408110156111c657600080fd5b813591908101906040810160208201356401000000008111156111e857600080fd5b8201836020820111156111fa57600080fd5b8035906020019184600183028401116401000000008311171561121c57600080fd5b91908080601f0160208091040260200160405190810160405280939291908181526020018383808284376000920191909152509295506136a7945050505050565b604051808060200186815260200185815260200180602001848152602001838103835288818151815260200191508051906020019080838360005b838110156112b0578181015183820152602001611298565b50505050905090810190601f1680156112dd5780820380516001836020036101000a031916815260200191505b50838103825285518152855160209182019187019080838360005b838110156113105781810151838201526020016112f8565b50505050905090810190601f16801561133d5780820380516001836020036101000a031916815260200191505b5097505050505050505060405180910390f35b6101b76004803603602081101561136657600080fd5b5035614795565b610781600480360360c081101561138357600080fd5b81019060208101813564010000000081111561139e57600080fd5b8201836020820111156113b057600080fd5b803590602001918460018302840111640100000000831117156113d257600080fd5b91908080601f016020809104026020016040519081016040528093929190818152602001838380828437600092019190915250929594936020810193503591505064010000000081111561142557600080fd5b82018360208201111561143757600080fd5b8035906020019184600183028401116401000000008311171561145957600080fd5b91908080601f01602080910402602001604051908101604052809392919081815260200183838082843760009201919091525092959493602081019350359150506401000000008111156114ac57600080fd5b8201836020820111156114be57600080fd5b803590602001918460018302840111640100000000831117156114e057600080fd5b91908080601f016020809104026020016040519081016040528093929190818152602001838380828437600092019190915250929594936020810193503591505064010000000081111561153357600080fd5b82018360208201111561154557600080fd5b8035906020019184600183028401116401000000008311171561156757600080fd5b91908080601f01602080910402602001604051908101604052809392919081815260200183838082843760009201919091525092959493602081019350359150506401000000008111156115ba57600080fd5b8201836020820111156115cc57600080fd5b803590602001918460018302840111640100000000831117156115ee57600080fd5b91908080601f016020809104026020016040519081016040528093929190818152602001838380828437600092019190915250929594936020810193503591505064010000000081111561164157600080fd5b82018360208201111561165357600080fd5b8035906020019184600183028401116401000000008311171561167557600080fd5b91908080601f0160208091040260200160405190810160405280939291908181526020018383808284376000920191909152509295506147be945050505050565b6101b7600480360360608110156116cc57600080fd5b508035906020810135906040013561499e565b610894600480360360808110156116f557600080fd5b81359160208101359181019060608101604082013564010000000081111561171c57600080fd5b82018360208201111561172e57600080fd5b8035906020019184600183028401116401000000008311171561175057600080fd5b91908080601f01602080910402602001604051908101604052809392919081815260200183838082843760009201919091525092955050913592506149e1915050565b610894600480360360408110156117a957600080fd5b813591908101906040810160208201356401000000008111156117cb57600080fd5b8201836020820111156117dd57600080fd5b803590602001918460018302840111640100000000831117156117ff57600080fd5b91908080601f016020809104026020016040519081016040528093929190818152602001838380828437600092019190915250929550614e4c945050505050565b6110956004803603602081101561185657600080fd5b5035614ed4565b6003545b90565b606060008060006002856040518082805190602001908083835b6020831061189d5780518252601f19909201916020918201910161187e565b51815160209384036101000a6000190180199092169116179052920194855250604051938490038101842089519094600294508a9350918291908401908083835b602083106118fd5780518252601f1990920191602091820191016118de565b51815160209384036101000a60001901801990921691161790529201948552506040519384900381018420600101548a519094600294508b9350918291908401908083835b602083106119615780518252601f199092019160209182019101611942565b6001836020036101000a0380198251168184511680821785525050505050509050019150509081526020016040518091039020600201546002886040518082805190602001908083835b602083106119ca5780518252601f1990920191602091820191016119ab565b518151600019602094850361010090810a82019283169219939093169190911790925294909201968752604080519788900382018820600301548b54601f600260018316159098029095011695909504928301829004820288018201905281875292959450889350918401905082828015611a865780601f10611a5b57610100808354040283529160200191611a86565b820191906000526020600020905b815481529060010190602001808311611a6957829003601f168201915b5050505050935093509350935093509193509193565b6060600060038481548110611aad57fe5b90600052602060002090600c0201600901836040518082805190602001908083835b60208310611aee5780518252601f199092019160209182019101611acf565b51815160209384036101000a6000190180199092169116179052920194855250604051938490030190922060038054919350915086908110611b2c57fe5b90600052602060002090600c0201600901846040518082805190602001908083835b60208310611b6d5780518252601f199092019160209182019101611b4e565b518151600019602094850361010090810a820192831692199390931691909117909252949092019687526040805197889003820188206001908101548a54601f600293821615909802909501909416049485018290048202880182019052838752909594508693508401905082828015611c285780601f10611bfd57610100808354040283529160200191611c28565b820191906000526020600020905b815481529060010190602001808311611c0b57829003601f168201915b50505050509150915091509250929050565b60045473ffffffffffffffffffffffffffffffffffffffff163314611c83576040805160e560020a62461bcd028152602060048201526000602482015290519081900360640190fd5b8660038981548110611c9157fe5b90600052602060002090600c02016007016000611cad8b614795565b81526020019081526020016000206000019080519060200190611cd19291906153e8565b508560038981548110611ce057fe5b90600052602060002090600c02016007016000611cfc8b614795565b81526020019081526020016000206001019080519060200190611d209291906153e8565b508460038981548110611d2f57fe5b90600052602060002090600c02016007016000611d4b8b614795565b81526020019081526020016000206002019080519060200190611d6f9291906153e8565b508360038981548110611d7e57fe5b90600052602060002090600c02016007016000611d9a8b614795565b8152602001908152602001600020600301819055508260038981548110611dbd57fe5b90600052602060002090600c02016007016000611dd98b614795565b81526020019081526020016000206006019080519060200190611dfd9291906153e8565b508160038981548110611e0c57fe5b90600052602060002090600c02016007016000611e288b614795565b81526020019081526020016000206007019080519060200190611e4c9291906153e8565b508060038981548110611e5b57fe5b90600052602060002090600c02016007016000611e778b614795565b81526020019081526020016000206008019080519060200190611e9b9291906153e8565b50611ea585614f7a565b60038981548110611eb257fe5b90600052602060002090600c02016007016000611ece8b614795565b8152602081019190915260400160002060050155611eeb8561501d565b60038981548110611ef857fe5b90600052602060002090600c02016007016000611f148b614795565b815260208101919091526040016000206004015583611f3286614f7a565b0260038981548110611f4057fe5b90600052602060002090600c0201600a0160008282540192505081905550611f9d856040518060400160405280600681526020017f7172636f646500000000000000000000000000000000000000000000000000008152506150a9565b1561200c5760005b8481101561200a57611fb8888783615190565b60038a81548110611fc557fe5b90600052602060002090600c02016007016000611fe18c614795565b815260208082019290925260409081016000908120858252600901909252902055600101611fa5565b505b6003888154811061201957fe5b90600052602060002090600c020160060161203389614795565b815460018101835560009283526020909220909101555050505050505050565b60006003828154811061206257fe5b600091825260209091206008600c90920201015492915050565b60006002826040518082805190602001908083835b602083106120b05780518252601f199092019160209182019101612091565b51815160209384036101000a6000190180199092169116179052920194855250604051938490030190922060030154949350505050565b60045473ffffffffffffffffffffffffffffffffffffffff1681565b60006003828154811061211257fe5b90600052602060002090600c020160050160019054906101000a900460ff16612185576040805160e560020a62461bcd02815260206004820152600d60248201527f436865636b20417070726f766500000000000000000000000000000000000000604482015290519081900360640190fd5b6003828154811061219257fe5b600091825260209091206005600c90920201015460ff16156121fe576040805160e560020a62461bcd02815260206004820152600e60248201527f436865636b2046696e6973686564000000000000000000000000000000000000604482015290519081900360640190fd5b60016003838154811061220d57fe5b600091825260208220600c9190910201600501805460ff1916921515929092179091555b6003838154811061223e57fe5b90600052602060002090600c0201600801805490508110156123fa576003838154811061226757fe5b90600052602060002090600c0201600a01546003848154811061228657fe5b90600052602060002090600c0201600901600385815481106122a457fe5b90600052602060002090600c020160080183815481106122c057fe5b9060005260206000200160405180828054600181600116156101000203166002900480156123255780601f10612303576101008083540402835291820191612325565b820191906000526020600020905b815481529060010190602001808311612311575b505091505090815260200160405180910390206001015414156123f25760c860026003858154811061235357fe5b90600052602060002090600c0201600801838154811061236f57fe5b9060005260206000200160405180828054600181600116156101000203166002900480156123d45780601f106123b25761010080835404028352918201916123d4565b820191906000526020600020905b8154815290600101906020018083116123c0575b50509283525050604051908190036020019020600101805490910190555b600101612231565b50600192915050565b6000806002836040518082805190602001908083835b602083106124385780518252601f199092019160209182019101612419565b51815160209384036101000a60001901801990921691161790529201948552506040805194859003820190942060008a81526004909101825284812089825260070190915292909220600301549290921191506124bb9050576040805160e560020a62461bcd028152602060048201526000602482015290519081900360640190fd5b6002826040518082805190602001908083835b602083106124ed5780518252601f1990920191602091820191016124ce565b51815160001960209485036101000a810191821691199290921617909152939091019586526040805196879003820190962060008b8152600490910182528681208a8252600701909152949094206003908101805490920190915580549093508792508210905061255a57fe5b90600052602060002090600c02016007016000848152602001908152602001600020600401546002836040518082805190602001908083835b602083106125b25780518252601f199092019160209182019101612593565b51815160209384036101000a60001901801990921691161790529201948552506040519384900301909220600201805493909301909255505060038054859081106125f957fe5b90600052602060002090600c02016007016000848152602001908152602001600020600501546003858154811061262c57fe5b90600052602060002090600c0201600901836040518082805190602001908083835b6020831061266d5780518252601f19909201916020918201910161264e565b51815160209384036101000a600019018019909216911617905292019485525060405193849003019092206001908101805494909401909355509095945050505050565b606080600384815481106126c157fe5b90600052602060002090600c02016007016000848152602001908152602001600020600601600385815481106126f357fe5b600091825260208083208784526007600c909302018201815260409283902084548451601f600260001961010060018616150201909316929092049182018490048402810184019095528085529201929184918301828280156127975780601f1061276c57610100808354040283529160200191612797565b820191906000526020600020905b81548152906001019060200180831161277a57829003601f168201915b5050845460408051602060026001851615610100026000190190941693909304601f8101849004840282018401909252818152959750869450925084019050828280156128255780601f106127fa57610100808354040283529160200191612825565b820191906000526020600020905b81548152906001019060200180831161280857829003601f168201915b50505050509050915091509250929050565b606060006002836040518082805190602001908083835b6020831061286d5780518252601f19909201916020918201910161284e565b51815160209384036101000a600019018019909216911617905292019485525060408051948590038201852060008b8152600490910183528181208a82526007018352208751909460029450889350918291908401908083835b602083106128e65780518252601f1990920191602091820191016128c7565b518151600019602094850361010090810a8201928316921993909316919091179092529490920196875260408051978890038201882060008f8152600490910183528181208e82526007018352819020600301548954601f6002600183161590980290950116959095049283018290048202880182019052818752929594508693509184019050828280156129bc5780601f10612991576101008083540402835291602001916129bc565b820191906000526020600020905b81548152906001019060200180831161299f57829003601f168201915b5050505050915091509150935093915050565b600381815481106129dc57fe5b6000918252602091829020600c919091020180546040805160026001841615610100026000190190931692909204601f810185900485028301850190915280825291935091839190830182828015612a755780601f10612a4a57610100808354040283529160200191612a75565b820191906000526020600020905b815481529060010190602001808311612a5857829003601f168201915b505050505090806001018054600181600116156101000203166002900480601f016020809104026020016040519081016040528092919081815260200182805460018160011615610100020316600290048015612b135780601f10612ae857610100808354040283529160200191612b13565b820191906000526020600020905b815481529060010190602001808311612af657829003601f168201915b50505060028085018054604080516020601f6000196101006001871615020190941695909504928301859004850281018501909152818152959695945090925090830182828015612ba55780601f10612b7a57610100808354040283529160200191612ba5565b820191906000526020600020905b815481529060010190602001808311612b8857829003601f168201915b5050505060038301805460408051602060026001851615610100026000190190941693909304601f8101849004840282018401909252818152949594935090830182828015612c355780601f10612c0a57610100808354040283529160200191612c35565b820191906000526020600020905b815481529060010190602001808311612c1857829003601f168201915b5050505060048301805460408051602060026001851615610100026000190190941693909304601f8101849004840282018401909252818152949594935090830182828015612cc55780601f10612c9a57610100808354040283529160200191612cc5565b820191906000526020600020905b815481529060010190602001808311612ca857829003601f168201915b505050506005830154600a90930154919260ff8082169361010090920416915088565b60608060606000806000606060038981548110612d0157fe5b90600052602060002090600c0201600701600089815260200190815260200160002060000160038a81548110612d3357fe5b90600052602060002090600c020160070160008a815260200190815260200160002060010160038b81548110612d6557fe5b90600052602060002090600c020160070160008b815260200190815260200160002060020160038c81548110612d9757fe5b90600052602060002090600c020160070160008c81526020019081526020016000206003015460038d81548110612dca57fe5b90600052602060002090600c020160070160008d81526020019081526020016000206005015460038e81548110612dfd57fe5b90600052602060002090600c020160070160008e81526020019081526020016000206004015460038f81548110612e3057fe5b90600052602060002090600c020160070160008f8152602001908152602001600020600801868054600181600116156101000203166002900480601f016020809104026020016040519081016040528092919081815260200182805460018160011615610100020316600290048015612eea5780601f10612ebf57610100808354040283529160200191612eea565b820191906000526020600020905b815481529060010190602001808311612ecd57829003601f168201915b5050895460408051602060026001851615610100026000190190941693909304601f8101849004840282018401909252818152959c508b945092508401905082828015612f785780601f10612f4d57610100808354040283529160200191612f78565b820191906000526020600020905b815481529060010190602001808311612f5b57829003601f168201915b5050885460408051602060026001851615610100026000190190941693909304601f8101849004840282018401909252818152959b508a9450925084019050828280156130065780601f10612fdb57610100808354040283529160200191613006565b820191906000526020600020905b815481529060010190602001808311612fe957829003601f168201915b5050845460408051602060026001851615610100026000190190941693909304601f8101849004840282018401909252818152959a50869450925084019050828280156130945780601f1061306957610100808354040283529160200191613094565b820191906000526020600020905b81548152906001019060200180831161307757829003601f168201915b50505050509050965096509650965096509650965092959891949750929550565b600061317582600387815481106130c857fe5b600091825260208083208984526007600c909302018201815260409283902090910180548351601f60026000196101006001861615020190931692909204918201849004840281018401909452808452909183018282801561316b5780601f106131405761010080835404028352916020019161316b565b820191906000526020600020905b81548152906001019060200180831161314e57829003601f168201915b50505050506150a9565b6131a3576040805160e560020a62461bcd028152602060048201526000602482015290519081900360640190fd5b6002836040518082805190602001908083835b602083106131d55780518252601f1990920191602091820191016131b6565b51815160209384036101000a60001901801990921691161790529201948552506040805194859003820190942060008a815260049091018252848120898252600701909152929092206003015460011491506132579050576040805160e560020a62461bcd028152602060048201526000602482015290519081900360640190fd5b6002836040518082805190602001908083835b602083106132895780518252601f19909201916020918201910161326a565b51815160001960209485036101000a810191821691199290921617909152939091019586526040805196879003820190962060008c8152600490910182528681208b825260070190915294909420600390810180549092019091558054909350889250821090506132f657fe5b90600052602060002090600c02016007016000858152602001908152602001600020600401546002846040518082805190602001908083835b6020831061334e5780518252601f19909201916020918201910161332f565b51815160209384036101000a600019018019909216911617905292019485525060405193849003019092206002018054939093019092555050600380548690811061339557fe5b90600052602060002090600c0201600701600085815260200190815260200160002060050154600386815481106133c857fe5b90600052602060002090600c0201600901846040518082805190602001908083835b602083106134095780518252601f1990920191602091820191016133ea565b51815160209384036101000a60001901801990921691161790529201948552506040519384900301909220600101805493909301909255509095945050505050565b60606003838154811061345a57fe5b90600052602060002090600c0201600801828154811061347657fe5b600091825260209182902001805460408051601f60026000196101006001871615020190941693909304928301859004850281018501909152818152928301828280156135045780601f106134d957610100808354040283529160200191613504565b820191906000526020600020905b8154815290600101906020018083116134e757829003601f168201915b5050505050905092915050565b6000816002836040518082805190602001908083835b602083106135465780518252601f199092019160209182019101613527565b51815160209384036101000a6000190180199092169116179052920194855250604051938490038101909320845161358795919491909101925090506153e8565b5060006002836040518082805190602001908083835b602083106135bc5780518252601f19909201916020918201910161359d565b51815160209384036101000a600019018019909216911617905292019485525060405193849003810184206001019490945550508351600092600292869290918291908401908083835b602083106136255780518252601f199092019160209182019101613606565b51815160209384036101000a600019018019909216911617905292019485525060405193849003810190932060020193909355506001805480820180835560009290925285519193506136a0927fb10e2d527612073b26eecdfd717e6a320cf44b4afac2b0732d9fcbe2b7fa0cf690910191908601906153e8565b5050919050565b606060008060606000600387815481106136bd57fe5b90600052602060002090600c0201600b01866040518082805190602001908083835b602083106136fe5780518252601f1990920191602091820191016136df565b51815160209384036101000a600019018019909216911617905292019485525060405193849003019092205460ff161591506137609050576040805160e560020a62461bcd028152602060048201526000602482015290519081900360640190fd5b856003888154811061376e57fe5b90600052602060002090600c0201600901876040518082805190602001908083835b602083106137af5780518252601f199092019160209182019101613790565b51815160209384036101000a600019018019909216911617905292019485525060405193849003810190932084516137f095919491909101925090506153e8565b5060006003888154811061380057fe5b90600052602060002090600c0201600901876040518082805190602001908083835b602083106138415780518252601f199092019160209182019101613822565b51815160209384036101000a6000190180199092169116179052920194855250604051938490030190922060010192909255505060038054600091908990811061388757fe5b90600052602060002090600c0201600901876040518082805190602001908083835b602083106138c85780518252601f1990920191602091820191016138a9565b51815160209384036101000a60001901801990921691161790529201948552506040519384900301909220600201929092555050600380548890811061390a57fe5b600091825260208083206008600c9093020191909101805460018101808355918452928290208951919361394493910191908a01906153e8565b50506003878154811061395357fe5b90600052602060002090600c02016002876040518082805190602001908083835b602083106139935780518252601f199092019160209182019101613974565b51815160209384036101000a600019018019909216911617905292019485525060405193849003019092206004019150600090506139d08961207c565b815260208101919091526040016000208154613a02908290849060026000196101006001841615020190911604615466565b5060018201816001019080546001816001161561010002031660029004613a2a929190615466565b5060028281018054613a4f928481019291600019610100600183161502011604615466565b5060038201816003019080546001816001161561010002031660029004613a77929190615466565b5060048201816004019080546001816001161561010002031660029004613a9f929190615466565b5060058281018054918301805460ff938416151560ff1990911617808255915461010090819004909316151590920261ff001990911617905560068083018054613aec92840191906154db565b5060088281018054613b01928401919061551a565b50600a9182015491015560005b613b1788614795565b81101561467a5760038881548110613b2b57fe5b90600052602060002090600c020160070160008281526020019081526020016000206000016002886040518082805190602001908083835b60208310613b825780518252601f199092019160209182019101613b63565b6001836020036101000a038019825116818451168082178552505050505050905001915050908152602001604051809103902060040160008a815260200190815260200160002060070160008381526020019081526020016000206000019080546001816001161561010002031660029004613bff929190615466565b5060038881548110613c0d57fe5b90600052602060002090600c020160070160008281526020019081526020016000206001016002886040518082805190602001908083835b60208310613c645780518252601f199092019160209182019101613c45565b6001836020036101000a038019825116818451168082178552505050505050905001915050908152602001604051809103902060040160008a815260200190815260200160002060070160008381526020019081526020016000206001019080546001816001161561010002031660029004613ce1929190615466565b5060038881548110613cef57fe5b90600052602060002090600c020160070160008281526020019081526020016000206002016002886040518082805190602001908083835b60208310613d465780518252601f199092019160209182019101613d27565b6001836020036101000a038019825116818451168082178552505050505050905001915050908152602001604051809103902060040160008a815260200190815260200160002060070160008381526020019081526020016000206002019080546001816001161561010002031660029004613dc3929190615466565b5060038881548110613dd157fe5b90600052602060002090600c02016007016000828152602001908152602001600020600301546002886040518082805190602001908083835b60208310613e295780518252601f199092019160209182019101613e0a565b51815160209384036101000a60001901801990921691161790529201948552506040805194859003820190942060008e815260049091018252848120878252600701909152929092206003908101939093555050805489908110613e8957fe5b90600052602060002090600c020160070160008281526020019081526020016000206006016002886040518082805190602001908083835b60208310613ee05780518252601f199092019160209182019101613ec1565b6001836020036101000a038019825116818451168082178552505050505050905001915050908152602001604051809103902060040160008a815260200190815260200160002060070160008381526020019081526020016000206006019080546001816001161561010002031660029004613f5d929190615466565b5060038881548110613f6b57fe5b90600052602060002090600c020160070160008281526020019081526020016000206007016002886040518082805190602001908083835b60208310613fc25780518252601f199092019160209182019101613fa3565b6001836020036101000a038019825116818451168082178552505050505050905001915050908152602001604051809103902060040160008a81526020019081526020016000206007016000838152602001908152602001600020600701908054600181600116156101000203166002900461403f929190615466565b506003888154811061404d57fe5b90600052602060002090600c020160070160008281526020019081526020016000206008016002886040518082805190602001908083835b602083106140a45780518252601f199092019160209182019101614085565b6001836020036101000a038019825116818451168082178552505050505050905001915050908152602001604051809103902060040160008a815260200190815260200160002060070160008381526020019081526020016000206008019080546001816001161561010002031660029004614121929190615466565b506003888154811061412f57fe5b90600052602060002090600c02016007016000828152602001908152602001600020600501546002886040518082805190602001908083835b602083106141875780518252601f199092019160209182019101614168565b51815160209384036101000a60001901801990921691161790529201948552506040805194859003820190942060008e8152600490910182528481208782526007019091529290922060050192909255505060038054899081106141e757fe5b90600052602060002090600c02016007016000828152602001908152602001600020600401546002886040518082805190602001908083835b6020831061423f5780518252601f199092019160209182019101614220565b51815160209384036101000a60001901801990921691161790529201948552506040805194859003820190942060008e8152600491820183528581208882526007019092529390209092019290925550506003805461438991908a9081106142a357fe5b60009182526020808320858452600c9290920290910160070181526040918290206002908101805484516001821615610100026000190190911692909204601f8101849004840283018401909452838252909290918301828280156143495780601f1061431e57610100808354040283529160200191614349565b820191906000526020600020905b81548152906001019060200180831161432c57829003601f168201915b50505050506040518060400160405280600681526020017f7172636f646500000000000000000000000000000000000000000000000000008152506150a9565b156145d65760005b6003898154811061439e57fe5b90600052602060002090600c02016007016000838152602001908152602001600020600301548110156145d45761454060038a815481106143db57fe5b600091825260208083208684526007600c9093020191909101815260409182902080548351601f60026000196101006001861615020190931692909204918201849004840281018401909452808452909183018282801561447d5780601f106144525761010080835404028352916020019161447d565b820191906000526020600020905b81548152906001019060200180831161446057829003601f168201915b505050505060038b8154811061448f57fe5b60009182526020808320878452600c9290920290910160070181526040918290206002908101805484516001821615610100026000190190911692909204601f8101849004840283018401909452838252909290918301828280156145355780601f1061450a57610100808354040283529160200191614535565b820191906000526020600020905b81548152906001019060200180831161451857829003601f168201915b505050505083615190565b6002896040518082805190602001908083835b602083106145725780518252601f199092019160209182019101614553565b51815160209384036101000a60001901801990921691161790529201948552506040805194859003820190942060008f815260049091018252848120888252600701825284812087825260090190915292909220929092555050600101614391565b505b6002876040518082805190602001908083835b602083106146085780518252601f1990920191602091820191016145e9565b51815160209384036101000a600019018019909216911617905292019485525060405193849003019092206004019150600090506146458961207c565b815260200190815260200160002060060161465f8861207c565b81546001818101845560009384526020909320015501613b0e565b506002866040518082805190602001908083835b602083106146ad5780518252601f19909201916020918201910161468e565b51815160209384036101000a6000190180199092169116179052920194855250604051938490030190922060030191506146e890508761207c565b815460018181018455600093845260209093200155600380548990811061470b57fe5b90600052602060002090600c0201600b01876040518082805190602001908083835b6020831061474c5780518252601f19909201916020918201910161472d565b51815160209384036101000a60001901801990921691161790529201948552506040519384900301909220805460ff191693151593909317909255509497939650919450925090565b6000600382815481106147a457fe5b600091825260209091206006600c90920201015492915050565b60045473ffffffffffffffffffffffffffffffffffffffff163314614807576040805160e560020a62461bcd028152602060048201526000602482015290519081900360640190fd5b61480f615584565b86815260208101869052604081018590526060810184905260808101839052600160c08201528160008061484161185d565b815260200190815260200160002090805190602001906148629291906153e8565b506003805460018101808355600092909252825180518492600c027fc2575a0e9e593c00f959f8c92f12db2869c3395a3b0502d05e2516446f71f85b01916148af918391602001906153e8565b5060208281015180516148c892600185019201906153e8565b50604082015180516148e49160028401916020909101906153e8565b50606082015180516149009160038401916020909101906153e8565b506080820151805161491c9160048401916020909101906153e8565b5060a082015160058201805460c085015115156101000261ff001993151560ff19909216919091179290921691909117905560e082015180516149699160068401916020909101906155db565b506101008201518051614986916008840191602090910190615615565b5061012082015181600a015550505050505050505050565b6000600384815481106149ad57fe5b60009182526020808320958352600c9190910290940160070184526040808220938252600990930190935250902054919050565b6000806002846040518082805190602001908083835b60208310614a165780518252601f1990920191602091820191016149f7565b51815160209384036101000a60001901801990921691161790529201948552506040805194859003820190942060008b8152600490910182528481208a82526007019091529290922060030154929092119150614a999050576040805160e560020a62461bcd028152602060048201526000602482015290519081900360640190fd5b60005b60038681548110614aa957fe5b90600052602060002090600c0201600701600086815260200190815260200160002060030154811015614e3e578260038781548110614ae457fe5b600091825260208083208984526007600c909302019190910181526040808320858452600901909152902054148015614ba757506002846040518082805190602001908083835b60208310614b4a5780518252601f199092019160209182019101614b2b565b51815160209384036101000a60001901801990921691161790529201948552506040805194859003820190942060008b8152600490910182528481208a82526007018252848120888252600a01909152929092205460ff16159150505b15614e365760016002856040518082805190602001908083835b60208310614be05780518252601f199092019160209182019101614bc1565b51815160209384036101000a600019018019909216911617905292019485525060408051948590038201852060008d8152600490910183528181208c825260070183528181208a8252600a01835220805460ff1916951515959095179094555050855160029287929182918401908083835b60208310614c715780518252601f199092019160209182019101614c52565b51815160001960209485036101000a810191821691199290921617909152939091019586526040805196879003820190962060008d8152600490910182528681208c82526007019091529490942060039081018054909201909155805490935089925082109050614cde57fe5b90600052602060002090600c02016007016000868152602001908152602001600020600401546002856040518082805190602001908083835b60208310614d365780518252601f199092019160209182019101614d17565b51815160209384036101000a6000190180199092169116179052920194855250604051938490030190922060020180549390930190925550506003805487908110614d7d57fe5b90600052602060002090600c020160070160008681526020019081526020016000206005015460038781548110614db057fe5b90600052602060002090600c0201600901856040518082805190602001908083835b60208310614df15780518252601f199092019160209182019101614dd2565b51815160209384036101000a60001901801990921691161790529201948552506040519384900301909220600190810180549490940190935550909250614e44915050565b600101614a9c565b50600090505b949350505050565b600060038381548110614e5b57fe5b90600052602060002090600c0201600b01826040518082805190602001908083835b60208310614e9c5780518252601f199092019160209182019101614e7d565b51815160209384036101000a600019018019909216911617905292019485525060405193849003019092205460ff1695945050505050565b60018181548110614ee157fe5b600091825260209182902001805460408051601f6002600019610100600187161502019094169390930492830185900485028101850190915281815293509091830182828015614f725780601f10614f4757610100808354040283529160200191614f72565b820191906000526020600020905b815481529060010190602001808311614f5557829003601f168201915b505050505081565b6000614fbb826040518060400160405280600681526020017f7172636f646500000000000000000000000000000000000000000000000000008152506150a9565b61501157614ffe826040518060400160405280600881526020017f7175657374696f6e0000000000000000000000000000000000000000000000008152506150a9565b61500957606461500c565b60325b615014565b60c85b60ff1692915050565b600061505e826040518060400160405280600681526020017f7172636f646500000000000000000000000000000000000000000000000000008152506150a9565b6150a157614ffe826040518060400160405280600881526020017f7175657374696f6e0000000000000000000000000000000000000000000000008152506150a9565b506096919050565b6000816040516020018082805190602001908083835b602083106150de5780518252601f1990920191602091820191016150bf565b6001836020036101000a03801982511681845116808217855250505050505090500191505060405160208183030381529060405280519060200120836040516020018082805190602001908083835b6020831061514c5780518252601f19909201916020918201910161512d565b6001836020036101000a0380198251168184511680821785525050505050509050019150506040516020818303038152906040528051906020012014905092915050565b60008161519d576101b891505b8160005b81156151b557600101600a820491506151a1565b6060816040519080825280601f01601f1916602001820160405280156151e2576020820181803883390190505b50905060001982015b851561526757600a86066030017f0100000000000000000000000000000000000000000000000000000000000000028282806001900393508151811061522d57fe5b60200101907effffffffffffffffffffffffffffffffffffffffffffffffffffffffffffff1916908160001a905350600a860495506151eb565b60608888846040516020018084805190602001908083835b6020831061529e5780518252601f19909201916020918201910161527f565b51815160209384036101000a600019018019909216911617905286519190930192860191508083835b602083106152e65780518252601f1990920191602091820191016152c7565b51815160209384036101000a600019018019909216911617905285519190930192850191508083835b6020831061532e5780518252601f19909201916020918201910161530f565b6001836020036101000a038019825116818451168082178552505050505050905001935050505060405160208183030381529060405290506000816040516020018082805190602001908083835b6020831061539b5780518252601f19909201916020918201910161537c565b6001836020036101000a0380198251168184511680821785525050505050509050019150506040516020818303038152906040528051906020012090508096505050505050509392505050565b828054600181600116156101000203166002900490600052602060002090601f016020900481019282601f1061542957805160ff1916838001178555615456565b82800160010185558215615456579182015b8281111561545657825182559160200191906001019061543b565b50615462929150615662565b5090565b828054600181600116156101000203166002900490600052602060002090601f016020900481019282601f1061549f5780548555615456565b8280016001018555821561545657600052602060002091601f016020900482015b828111156154565782548255916001019190600101906154c0565b828054828255906000526020600020908101928215615456576000526020600020918201828111156154565782548255916001019190600101906154c0565b8280548282559060005260206000209081019282156155785760005260206000209182015b828111156155785782829080546001816001161561010002031660029004615568929190615466565b509160010191906001019061553f565b5061546292915061567c565b60405180610140016040528060608152602001606081526020016060815260200160608152602001606081526020016000151581526020016000151581526020016060815260200160608152602001600081525090565b828054828255906000526020600020908101928215615456579160200282018281111561545657825182559160200191906001019061543b565b828054828255906000526020600020908101928215615578579160200282015b8281111561557857825180516156529184916020909101906153e8565b5091602001919060010190615635565b61186191905b808211156154625760008155600101615668565b61186191905b80821115615462576000615696828261569f565b50600101615682565b50805460018160011615610100020316600290046000825580601f106156c557506156e3565b601f0160209004906000526020600020908101906156e39190615662565b5056fea265627a7a72315820bf5e2b35a8d2bc9c22b341cfef768c4e395bc8036f82893030ef336169b9215d64736f6c63430005100032",
  "source": "pragma solidity >=0.4.21 <0.7.0;\n\n\n\ncontract Nomoriam {\n    \n    struct Activity {\n        string title;\n        string image;\n        string category;\n        uint times;\n        uint exp;\n        uint point;\n        string question;\n        string answer;\n        string location;\n        mapping(uint => bytes32) qrcode;\n        mapping(bytes32 => bool) qrcodeComplete;\n    }\n    \n    struct Challenge {\n        string title;\n        string desc;\n        string image;\n        string create_time;\n        string end_time;\n        bool finished;\n        bool approved;\n        uint[] activities;\n        mapping(uint => Activity) activity;\n        string[] players;\n        mapping(string => Player) player;\n        uint sum_point;\n        mapping(string => bool) joined;\n    }\n    \n    struct Player {\n        string uid;\n        uint point;\n        uint exp;\n        uint[] challenges;\n        mapping(uint => Challenge) challenge;\n    }\n    \n    mapping(uint => string) owner;\n    string[] public players;\n    mapping(string => Player) player;\n    \n    Challenge[] public challenges;\n    \n    address public manager;\n    \n    constructor() public {\n        manager = msg.sender;\n    }\n    \n    modifier restricted() {\n        require(msg.sender == manager, \"\");\n        _;\n    }\n    \n    function compareString(string memory a, string memory b) internal pure returns(bool){\n        return keccak256(abi.encodePacked(a)) == keccak256(abi.encodePacked(b));\n    }\n    \n    /* \n        Challenge\n    */\n    \n    function createChallenge(\n        string memory title, string memory desc, string memory image, string memory create_time, string memory end_time, string memory _owner\n    ) public restricted {\n        Challenge memory newChallenge;\n        newChallenge.title = title;\n        newChallenge.desc = desc;\n        newChallenge.image = image;\n        newChallenge.create_time = create_time;\n        newChallenge.end_time = end_time;\n        newChallenge.approved = true;\n        owner[getChallengeCount()] = _owner;\n        challenges.push(newChallenge);\n    }\n    \n    function finishChallenge(uint index) public returns(bool){\n        require(challenges[index].approved, \"Check Approve\");\n        require(!challenges[index].finished, \"Check Finished\");\n        challenges[index].finished = true;\n        for (uint i = 0 ; i < challenges[index].players.length ; i++){\n            if((challenges[index].player[challenges[index].players[i]].point == challenges[index].sum_point)){\n                player[challenges[index].players[i]].point += 200;\n            }\n        }\n        return true;\n        \n    }\n    \n    function joinChallenge(uint index, string memory uid) public returns(string memory, uint, uint,string memory,uint) {\n        require(!challenges[index].joined[uid], \"\");\n        // Challenge\n        challenges[index].player[uid].uid = uid;\n        challenges[index].player[uid].point = 0;\n        challenges[index].player[uid].exp = 0;\n        challenges[index].players.push(uid);\n        \n        // Player\n        player[uid].challenge[getChallengeCountByPlayer(uid)] = challenges[index];\n        \n        for (uint i = 0 ; i < getActivityCount(index) ; i++){\n            player[uid].challenge[index].activity[i].title = challenges[index].activity[i].title;\n            player[uid].challenge[index].activity[i].image = challenges[index].activity[i].image;\n            player[uid].challenge[index].activity[i].category = challenges[index].activity[i].category;\n            player[uid].challenge[index].activity[i].times = challenges[index].activity[i].times;\n            player[uid].challenge[index].activity[i].question = challenges[index].activity[i].question;\n            player[uid].challenge[index].activity[i].answer = challenges[index].activity[i].answer;\n            player[uid].challenge[index].activity[i].location = challenges[index].activity[i].location;\n            player[uid].challenge[index].activity[i].point = challenges[index].activity[i].point;\n            player[uid].challenge[index].activity[i].exp = challenges[index].activity[i].exp;\n            if (compareString(challenges[index].activity[i].category, \"qrcode\")){\n                for (uint j = 0 ; j < challenges[index].activity[i].times ; j++){\n                    player[uid].challenge[index].activity[i].qrcode[j] = generateQRcode(\n                        challenges[index].activity[i].title, challenges[index].activity[i].category, j\n                    );\n                }\n            }\n            player[uid].challenge[getChallengeCountByPlayer(uid)].activities.push(getChallengeCountByPlayer(uid));\n        }\n        player[uid].challenges.push(getChallengeCountByPlayer(uid));\n        challenges[index].joined[uid] = true;\n    }\n\n    function addActivity (\n        uint _index, string memory title, string memory image, string memory category, uint times,\n        string memory question, string memory answer, string memory location\n    ) public restricted {\n        challenges[_index].activity[getActivityCount(_index)].title = title;\n        challenges[_index].activity[getActivityCount(_index)].image = image;\n        challenges[_index].activity[getActivityCount(_index)].category = category;\n        challenges[_index].activity[getActivityCount(_index)].times = times;\n        challenges[_index].activity[getActivityCount(_index)].question = question;\n        challenges[_index].activity[getActivityCount(_index)].answer = answer;\n        challenges[_index].activity[getActivityCount(_index)].location = location;\n        challenges[_index].activity[getActivityCount(_index)].point = generatePoint(category);\n        challenges[_index].activity[getActivityCount(_index)].exp = generateExp(category);\n        challenges[_index].sum_point += generatePoint(category) * times;\n        if (compareString(category, \"qrcode\")){\n            for (uint i = 0 ; i < times ; i++){\n                challenges[_index].activity[getActivityCount(_index)].qrcode[i] = generateQRcode(title, category, i);\n            }\n        }\n        challenges[_index].activities.push(getActivityCount(_index));\n    }\n    \n    function generateQRcode(string memory word, string memory word2, uint256 _i) internal pure returns (bytes32){\n        if (_i == 0) {\n            _i = 440;\n        }\n        uint256 j = _i;\n        uint256 len;\n        while (j != 0) {\n            len++;\n            j /= 10;\n        }\n        bytes memory bstr = new bytes(len);\n        uint256 k = len - 1;\n        while (_i != 0) {\n            bstr[k--] = bytes1(uint8(48 + (_i % 10)));\n            _i /= 10;\n        }\n        string memory concat = string(\n            abi.encodePacked(word, word2, string(bstr))\n        );\n        bytes32 hash = keccak256(abi.encodePacked(concat));\n        return hash;\n    }\n    \n    function doPost(uint _index, uint _count, string memory uid) public returns(bool){\n        require(player[uid].challenge[_index].activity[_count].times > 0, \"\");\n        \n        // Add Exp to Player\n        player[uid].challenge[_index].activity[_count].times--;\n        player[uid].exp += challenges[_index].activity[_count].exp;\n        // Add Point to Challenge\n        challenges[_index].player[uid].point += challenges[_index].activity[_count].point;\n        return true;\n    }\n    \n    function doQuestion(uint _index, uint _count, string memory uid, string memory answer) public returns(bool){\n        require(compareString(answer, challenges[_index].activity[_count].answer),\"\");\n        require(player[uid].challenge[_index].activity[_count].times == 1, \"\");\n        \n        // add Exp to player\n        player[uid].challenge[_index].activity[_count].times--;\n        player[uid].exp += challenges[_index].activity[_count].exp;\n        // add Point to challenge\n        challenges[_index].player[uid].point += challenges[_index].activity[_count].point;\n    }\n    \n    function doQRCode(uint _index, uint _count, string memory uid, bytes32 qrcode) public returns(bool){\n        require(player[uid].challenge[_index].activity[_count].times > 0, \"\");\n        for (uint i = 0 ; i < challenges[_index].activity[_count].times ; i++){\n            if(challenges[_index].activity[_count].qrcode[i] == qrcode && !player[uid].challenge[_index].activity[_count].qrcodeComplete[qrcode]){\n                player[uid].challenge[_index].activity[_count].qrcodeComplete[qrcode] = true;\n                // add exp to player\n                player[uid].challenge[_index].activity[_count].times--;\n                player[uid].exp += challenges[_index].activity[_count].exp;\n                 // add Point to challenge\n                challenges[_index].player[uid].point += challenges[_index].activity[_count].point;\n                return true;\n            }\n        }\n        return false;\n    }\n\n    \n    function generatePoint(string memory category) internal pure returns(uint){\n        return compareString(category,\"qrcode\") ? 200 : compareString(category, \"question\") ? 50 : 100;\n    }\n    \n    function generateExp(string memory category) internal pure returns(uint){\n        return compareString(category,\"qrcode\") ? 150 : compareString(category, \"question\") ? 50 : 100;\n    }\n    \n    /* \n        Player\n    */\n    \n    function createPlayer(string memory uid) public returns(bool){\n        player[uid].uid = uid;\n        player[uid].point = 0;\n        player[uid].exp = 0;\n        players.push(uid);\n    }\n    \n    function getActivityCount(uint _index) public view returns(uint){\n        return challenges[_index].activities.length;\n    }\n    \n    function getChallengeCountByPlayer(string memory uid) public view returns(uint){\n        return player[uid].challenges.length;\n    }\n    \n    function getChallengeCount() public view returns(uint){\n        return challenges.length;\n    } \n    \n    function getPlayer(string memory uid) public view returns(string memory, uint, uint, uint){\n        return (\n            player[uid].uid, player[uid].point, player[uid].exp, player[uid].challenges.length\n        );\n    }\n    \n    function getActivityChallengeByPlayer(uint index, uint count, string memory uid) public view returns(\n        string memory, uint){\n        return (\n            player[uid].challenge[index].activity[count].title, player[uid].challenge[index].activity[count].times\n        );\n    }\n    \n    function getJoinedChallenge(uint index, string memory uid) public view returns(bool){\n        return challenges[index].joined[uid];\n    }\n    \n    function getPlayerCountByChallenge(uint index) public view returns(uint) {\n        return challenges[index].players.length;\n    }\n\n    function getPlayerUID(uint index, uint count) public view returns(string memory) {\n        return challenges[index].players[count];\n    }\n\n    function getPlayerByChallenge(uint index, string memory uid) public view returns(string memory, uint) {\n        return (\n            challenges[index].player[uid].uid, challenges[index].player[uid].point\n        );\n    }\n    \n    function getQuestionByChallenge(uint _index, uint _count) public view returns(string memory, string memory){\n        return (challenges[_index].activity[_count].question, challenges[_index].activity[_count].answer);\n    }\n    \n    function getQRcodeByChallenge(uint _index, uint _count, uint _times) public view returns (bytes32) {\n        return challenges[_index].activity[_count].qrcode[_times];\n    }\n    \n    function getActivityByChallenge(uint _index, uint _count) public view returns(\n        string memory, string memory, string memory, uint, uint, uint, string memory \n    ){\n        return (\n            challenges[_index].activity[_count].title, challenges[_index].activity[_count].image, challenges[_index].activity[_count].category,\n            challenges[_index].activity[_count].times, challenges[_index].activity[_count].point, challenges[_index].activity[_count].exp,\n            challenges[_index].activity[_count].location\n        );\n    }\n    \n\n}",
  "sourcePath": "/Users/chayutaroonsang/Downloads/Project/CrytoNomoriam/contracts/Nomoriam.sol",
  "compiler": {
    "name": "solc",
    "version": "0.5.16+commit.9c3226ce.Emscripten.clang"
  },
  "schemaVersion": "3.0.23",
  "updatedAt": "2020-02-24T12:55:32.901Z",
  "networkType": "ethereum",
  "devdoc": {
    "methods": {}
  },
  "userdoc": {
    "methods": {}
  }
}