{
  "contractName": "Nomoriam",
  "abi": [
    {
      "constant": true,
      "inputs": [],
      "name": "manager",
      "outputs": [
        {
          "name": "",
          "type": "address"
        }
      ],
      "payable": false,
      "stateMutability": "view",
      "type": "function"
    },
    {
      "constant": true,
      "inputs": [
        {
          "name": "",
          "type": "uint256"
        }
      ],
      "name": "challenges",
      "outputs": [
        {
          "name": "title",
          "type": "string"
        },
        {
          "name": "desc",
          "type": "string"
        },
        {
          "name": "image",
          "type": "string"
        },
        {
          "name": "create_time",
          "type": "string"
        },
        {
          "name": "end_time",
          "type": "string"
        },
        {
          "name": "finished",
          "type": "bool"
        },
        {
          "name": "approved",
          "type": "bool"
        },
        {
          "name": "sum_point",
          "type": "uint256"
        },
        {
          "name": "countLeader",
          "type": "uint256"
        }
      ],
      "payable": false,
      "stateMutability": "view",
      "type": "function"
    },
    {
      "constant": true,
      "inputs": [
        {
          "name": "",
          "type": "uint256"
        }
      ],
      "name": "players",
      "outputs": [
        {
          "name": "",
          "type": "string"
        }
      ],
      "payable": false,
      "stateMutability": "view",
      "type": "function"
    },
    {
      "inputs": [],
      "payable": false,
      "stateMutability": "nonpayable",
      "type": "constructor"
    },
    {
      "constant": false,
      "inputs": [
        {
          "name": "title",
          "type": "string"
        },
        {
          "name": "desc",
          "type": "string"
        },
        {
          "name": "image",
          "type": "string"
        },
        {
          "name": "create_time",
          "type": "string"
        },
        {
          "name": "end_time",
          "type": "string"
        },
        {
          "name": "_owner",
          "type": "string"
        }
      ],
      "name": "createChallenge",
      "outputs": [],
      "payable": false,
      "stateMutability": "nonpayable",
      "type": "function"
    },
    {
      "constant": false,
      "inputs": [
        {
          "name": "index",
          "type": "uint256"
        }
      ],
      "name": "finishChallenge",
      "outputs": [],
      "payable": false,
      "stateMutability": "nonpayable",
      "type": "function"
    },
    {
      "constant": false,
      "inputs": [
        {
          "name": "index",
          "type": "uint256"
        },
        {
          "name": "uid",
          "type": "string"
        }
      ],
      "name": "joinChallenge",
      "outputs": [
        {
          "name": "",
          "type": "string"
        },
        {
          "name": "",
          "type": "uint256"
        },
        {
          "name": "",
          "type": "uint256"
        },
        {
          "name": "",
          "type": "string"
        },
        {
          "name": "",
          "type": "uint256"
        }
      ],
      "payable": false,
      "stateMutability": "nonpayable",
      "type": "function"
    },
    {
      "constant": false,
      "inputs": [
        {
          "name": "_index",
          "type": "uint256"
        },
        {
          "name": "title",
          "type": "string"
        },
        {
          "name": "image",
          "type": "string"
        },
        {
          "name": "category",
          "type": "string"
        },
        {
          "name": "times",
          "type": "uint256"
        }
      ],
      "name": "addActivity",
      "outputs": [],
      "payable": false,
      "stateMutability": "nonpayable",
      "type": "function"
    },
    {
      "constant": false,
      "inputs": [
        {
          "name": "_index",
          "type": "uint256"
        },
        {
          "name": "_count",
          "type": "uint256"
        },
        {
          "name": "uid",
          "type": "string"
        }
      ],
      "name": "doPost",
      "outputs": [
        {
          "name": "",
          "type": "uint256"
        }
      ],
      "payable": false,
      "stateMutability": "nonpayable",
      "type": "function"
    },
    {
      "constant": false,
      "inputs": [
        {
          "name": "_index",
          "type": "uint256"
        },
        {
          "name": "_count",
          "type": "uint256"
        },
        {
          "name": "uid",
          "type": "string"
        },
        {
          "name": "qrcode",
          "type": "bytes32"
        }
      ],
      "name": "doQRCode",
      "outputs": [
        {
          "name": "",
          "type": "uint256"
        }
      ],
      "payable": false,
      "stateMutability": "nonpayable",
      "type": "function"
    },
    {
      "constant": false,
      "inputs": [
        {
          "name": "uid",
          "type": "string"
        }
      ],
      "name": "createPlayer",
      "outputs": [
        {
          "name": "",
          "type": "bool"
        }
      ],
      "payable": false,
      "stateMutability": "nonpayable",
      "type": "function"
    },
    {
      "constant": false,
      "inputs": [
        {
          "name": "_index",
          "type": "uint256"
        },
        {
          "name": "_title",
          "type": "string"
        },
        {
          "name": "_image",
          "type": "string"
        }
      ],
      "name": "addMedal",
      "outputs": [],
      "payable": false,
      "stateMutability": "nonpayable",
      "type": "function"
    },
    {
      "constant": true,
      "inputs": [
        {
          "name": "_index",
          "type": "uint256"
        }
      ],
      "name": "getMedalByChallenge",
      "outputs": [
        {
          "name": "",
          "type": "uint256"
        }
      ],
      "payable": false,
      "stateMutability": "view",
      "type": "function"
    },
    {
      "constant": true,
      "inputs": [
        {
          "name": "_index",
          "type": "uint256"
        },
        {
          "name": "_count",
          "type": "uint256"
        }
      ],
      "name": "getMedalByIndex",
      "outputs": [
        {
          "name": "",
          "type": "string"
        },
        {
          "name": "",
          "type": "string"
        },
        {
          "name": "",
          "type": "string"
        }
      ],
      "payable": false,
      "stateMutability": "view",
      "type": "function"
    },
    {
      "constant": true,
      "inputs": [
        {
          "name": "_index",
          "type": "uint256"
        }
      ],
      "name": "getActivityCount",
      "outputs": [
        {
          "name": "",
          "type": "uint256"
        }
      ],
      "payable": false,
      "stateMutability": "view",
      "type": "function"
    },
    {
      "constant": true,
      "inputs": [
        {
          "name": "uid",
          "type": "string"
        }
      ],
      "name": "getChallengeCountByPlayer",
      "outputs": [
        {
          "name": "",
          "type": "uint256"
        }
      ],
      "payable": false,
      "stateMutability": "view",
      "type": "function"
    },
    {
      "constant": true,
      "inputs": [],
      "name": "getChallengeCount",
      "outputs": [
        {
          "name": "",
          "type": "uint256"
        }
      ],
      "payable": false,
      "stateMutability": "view",
      "type": "function"
    },
    {
      "constant": true,
      "inputs": [
        {
          "name": "uid",
          "type": "string"
        }
      ],
      "name": "getPlayer",
      "outputs": [
        {
          "name": "",
          "type": "string"
        },
        {
          "name": "",
          "type": "uint256"
        },
        {
          "name": "",
          "type": "uint256"
        },
        {
          "name": "",
          "type": "uint256"
        }
      ],
      "payable": false,
      "stateMutability": "view",
      "type": "function"
    },
    {
      "constant": true,
      "inputs": [
        {
          "name": "uid",
          "type": "string"
        }
      ],
      "name": "getMedalCountByPlayer",
      "outputs": [
        {
          "name": "",
          "type": "uint256"
        }
      ],
      "payable": false,
      "stateMutability": "view",
      "type": "function"
    },
    {
      "constant": true,
      "inputs": [
        {
          "name": "uid",
          "type": "string"
        },
        {
          "name": "_count",
          "type": "uint256"
        }
      ],
      "name": "getMedalByPlayer",
      "outputs": [
        {
          "name": "",
          "type": "string"
        },
        {
          "name": "",
          "type": "string"
        },
        {
          "name": "",
          "type": "string"
        }
      ],
      "payable": false,
      "stateMutability": "view",
      "type": "function"
    },
    {
      "constant": true,
      "inputs": [
        {
          "name": "index",
          "type": "uint256"
        },
        {
          "name": "count",
          "type": "uint256"
        },
        {
          "name": "uid",
          "type": "string"
        }
      ],
      "name": "getActivityChallengeByPlayer",
      "outputs": [
        {
          "name": "",
          "type": "string"
        },
        {
          "name": "",
          "type": "uint256"
        }
      ],
      "payable": false,
      "stateMutability": "view",
      "type": "function"
    },
    {
      "constant": true,
      "inputs": [
        {
          "name": "index",
          "type": "uint256"
        },
        {
          "name": "uid",
          "type": "string"
        }
      ],
      "name": "getJoinedChallenge",
      "outputs": [
        {
          "name": "",
          "type": "bool"
        }
      ],
      "payable": false,
      "stateMutability": "view",
      "type": "function"
    },
    {
      "constant": true,
      "inputs": [
        {
          "name": "index",
          "type": "uint256"
        }
      ],
      "name": "getPlayerCountByChallenge",
      "outputs": [
        {
          "name": "",
          "type": "uint256"
        }
      ],
      "payable": false,
      "stateMutability": "view",
      "type": "function"
    },
    {
      "constant": true,
      "inputs": [
        {
          "name": "index",
          "type": "uint256"
        },
        {
          "name": "count",
          "type": "uint256"
        }
      ],
      "name": "getPlayerUID",
      "outputs": [
        {
          "name": "",
          "type": "string"
        }
      ],
      "payable": false,
      "stateMutability": "view",
      "type": "function"
    },
    {
      "constant": true,
      "inputs": [
        {
          "name": "index",
          "type": "uint256"
        },
        {
          "name": "uid",
          "type": "string"
        }
      ],
      "name": "getPlayerByChallenge",
      "outputs": [
        {
          "name": "",
          "type": "string"
        },
        {
          "name": "",
          "type": "uint256"
        }
      ],
      "payable": false,
      "stateMutability": "view",
      "type": "function"
    },
    {
      "constant": true,
      "inputs": [
        {
          "name": "_index",
          "type": "uint256"
        },
        {
          "name": "_count",
          "type": "uint256"
        },
        {
          "name": "_times",
          "type": "uint256"
        }
      ],
      "name": "getQRcodeByChallenge",
      "outputs": [
        {
          "name": "",
          "type": "bytes32"
        }
      ],
      "payable": false,
      "stateMutability": "view",
      "type": "function"
    },
    {
      "constant": true,
      "inputs": [
        {
          "name": "_index",
          "type": "uint256"
        },
        {
          "name": "_count",
          "type": "uint256"
        }
      ],
      "name": "getActivityByChallenge",
      "outputs": [
        {
          "name": "",
          "type": "string"
        },
        {
          "name": "",
          "type": "string"
        },
        {
          "name": "",
          "type": "string"
        },
        {
          "name": "",
          "type": "uint256"
        },
        {
          "name": "",
          "type": "uint256"
        },
        {
          "name": "",
          "type": "uint256"
        }
      ],
      "payable": false,
      "stateMutability": "view",
      "type": "function"
    },
    {
      "constant": true,
      "inputs": [
        {
          "name": "index",
          "type": "uint256"
        }
      ],
      "name": "getOwnerByChallenge",
      "outputs": [
        {
          "name": "",
          "type": "string"
        }
      ],
      "payable": false,
      "stateMutability": "view",
      "type": "function"
    }
  ],
  "bytecode": "0x608060405234801561001057600080fd5b5060048054600160a060020a03191633179055615a2e80620000336000396000f30060806040526004361061015e5763ffffffff7c01000000000000000000000000000000000000000000000000000000006000350416630933f46781146101635780631471a1ae1461018a5780631f11b24f146102e957806323f0a567146103cf57806333f33a42146104ac57806334484351146104c45780633448b9231461051d5780633648ffae146105aa57806340896809146105c2578063450b13321461061d578063481c6a7514610676578063573808fc146106b45780635f10c410146106ce57806372218ffe1461072e5780638f1d37761461078e5780639e3d2e68146109dd578063a025816614610ab9578063a95fffc614610c2d578063b586a74014610c48578063d3ad3e3414610cb5578063d7a23fd414610e06578063e005945914610e1e578063e058966114610fad578063e2a3b17714610fcb578063e2b0960314611067578063f4f4fa22146110c9578063f71d96cb14611127575b600080fd5b34801561016f57600080fd5b5061017861113f565b60408051918252519081900360200190f35b34801561019657600080fd5b506101a5600435602435611146565b60405180806020018060200180602001848103845287818151815260200191508051906020019080838360005b838110156101ea5781810151838201526020016101d2565b50505050905090810190601f1680156102175780820380516001836020036101000a031916815260200191505b50848103835286518152865160209182019188019080838360005b8381101561024a578181015183820152602001610232565b50505050905090810190601f1680156102775780820380516001836020036101000a031916815260200191505b50848103825285518152855160209182019187019080838360005b838110156102aa578181015183820152602001610292565b50505050905090810190601f1680156102d75780820380516001836020036101000a031916815260200191505b50965050505050505060405180910390f35b3480156102f557600080fd5b506040805160206004803580820135601f81018490048402850184019095528484526103429436949293602493928401919081908401838280828437509497506113919650505050505050565b6040518080602001858152602001848152602001838152602001828103825286818151815260200191508051906020019080838360005b83811015610391578181015183820152602001610379565b50505050905090810190601f1680156103be5780820380516001836020036101000a031916815260200191505b509550505050505060405180910390f35b3480156103db57600080fd5b5060408051602060046024803582810135601f810185900485028601850190965285855261042d9583359536956044949193909101919081908401838280828437509497506115c99650505050505050565b6040518080602001838152602001828103825284818151815260200191508051906020019080838360005b83811015610470578181015183820152602001610458565b50505050905090810190601f16801561049d5780820380516001836020036101000a031916815260200191505b50935050505060405180910390f35b3480156104b857600080fd5b50610178600435611769565b3480156104d057600080fd5b506040805160206004803580820135601f81018490048402850184019095528484526101789436949293602493928401919081908401838280828437509497506117949650505050505050565b34801561052957600080fd5b506105356004356117ff565b6040805160208082528351818301528351919283929083019185019080838360005b8381101561056f578181015183820152602001610557565b50505050905090810190601f16801561059c5780820380516001836020036101000a031916815260200191505b509250505060405180910390f35b3480156105b657600080fd5b5061017860043561189e565b3480156105ce57600080fd5b506040805160206004803580820135601f81018490048402850184019095528484526101a594369492936024939284019190819084018382808284375094975050933594506118c99350505050565b34801561062957600080fd5b506040805160206004803580820135601f8101849004840285018401909552848452610178943694929360249392840191908190840183828082843750949750611a7f9650505050505050565b34801561068257600080fd5b5061068b611aea565b6040805173ffffffffffffffffffffffffffffffffffffffff9092168252519081900360200190f35b3480156106c057600080fd5b506106cc600435611b06565b005b3480156106da57600080fd5b50604080516020600460443581810135601f810184900484028501840190955284845261017894823594602480359536959460649492019190819084018382808284375094975061206a9650505050505050565b34801561073a57600080fd5b50604080516020600460443581810135601f810184900484028501840190955284845261042d9482359460248035953695946064949201919081908401838280828437509497506127849650505050505050565b34801561079a57600080fd5b506107a660043561291c565b6040518080602001806020018060200180602001806020018a1515151581526020018915151515815260200188815260200187815260200186810386528f818151815260200191508051906020019080838360005b838110156108135781810151838201526020016107fb565b50505050905090810190601f1680156108405780820380516001836020036101000a031916815260200191505b5086810385528e818151815260200191508051906020019080838360005b8381101561087657818101518382015260200161085e565b50505050905090810190601f1680156108a35780820380516001836020036101000a031916815260200191505b5086810384528d5181528d516020918201918f019080838360005b838110156108d65781810151838201526020016108be565b50505050905090810190601f1680156109035780820380516001836020036101000a031916815260200191505b5086810383528c5181528c516020918201918e019080838360005b8381101561093657818101518382015260200161091e565b50505050905090810190601f1680156109635780820380516001836020036101000a031916815260200191505b5086810382528b5181528b516020918201918d019080838360005b8381101561099657818101518382015260200161097e565b50505050905090810190601f1680156109c35780820380516001836020036101000a031916815260200191505b509e50505050505050505050505050505060405180910390f35b3480156109e957600080fd5b5060408051602060046024803582810135601f81018590048502860185019096528585526106cc95833595369560449491939091019190819084018382808284375050604080516020601f89358b018035918201839004830284018301909452808352979a99988101979196509182019450925082915084018382808284375050604080516020601f89358b018035918201839004830284018301909452808352979a9998810197919650918201945092508291508401838280828437509497505093359450612c3c9350505050565b348015610ac557600080fd5b50610ad4600435602435612f46565b6040518080602001806020018060200187815260200186815260200185815260200184810384528a818151815260200191508051906020019080838360005b83811015610b2b578181015183820152602001610b13565b50505050905090810190601f168015610b585780820380516001836020036101000a031916815260200191505b5084810383528951815289516020918201918b019080838360005b83811015610b8b578181015183820152602001610b73565b50505050905090810190601f168015610bb85780820380516001836020036101000a031916815260200191505b5084810382528851815288516020918201918a019080838360005b83811015610beb578181015183820152602001610bd3565b50505050905090810190601f168015610c185780820380516001836020036101000a031916815260200191505b50995050505050505050505060405180910390f35b348015610c3957600080fd5b50610535600435602435613241565b348015610c5457600080fd5b506040805160206004803580820135601f8101849004840285018401909552848452610ca194369492936024939284019190819084018382808284375094975061330b9650505050505050565b604080519115158252519081900360200190f35b348015610cc157600080fd5b5060408051602060046024803582810135601f8101859004850286018501909652858552610d139583359536956044949193909101919081908401838280828437509497506134a19650505050505050565b604051808060200186815260200185815260200180602001848152602001838103835288818151815260200191508051906020019080838360005b83811015610d66578181015183820152602001610d4e565b50505050905090810190601f168015610d935780820380516001836020036101000a031916815260200191505b50838103825285518152855160209182019187019080838360005b83811015610dc6578181015183820152602001610dae565b50505050905090810190601f168015610df35780820380516001836020036101000a031916815260200191505b5097505050505050505060405180910390f35b348015610e1257600080fd5b5061017860043561433d565b348015610e2a57600080fd5b506040805160206004803580820135601f81018490048402850184019095528484526106cc94369492936024939284019190819084018382808284375050604080516020601f89358b018035918201839004830284018301909452808352979a99988101979196509182019450925082915084018382808284375050604080516020601f89358b018035918201839004830284018301909452808352979a99988101979196509182019450925082915084018382808284375050604080516020601f89358b018035918201839004830284018301909452808352979a99988101979196509182019450925082915084018382808284375050604080516020601f89358b018035918201839004830284018301909452808352979a99988101979196509182019450925082915084018382808284375050604080516020601f89358b018035918201839004830284018301909452808352979a9998810197919650918201945092508291508401838280828437509497506143689650505050505050565b348015610fb957600080fd5b50610178600435602435604435614587565b348015610fd757600080fd5b5060408051602060046024803582810135601f81018590048502860185019096528585526106cc95833595369560449491939091019190819084018382808284375050604080516020601f89358b018035918201839004830284018301909452808352979a9998810197919650918201945092508291508401838280828437509497506145cc9650505050505050565b34801561107357600080fd5b50604080516020600460443581810135601f8101849004840285018401909552848452610178948235946024803595369594606494920191908190840183828082843750949750509335945061475f9350505050565b3480156110d557600080fd5b5060408051602060046024803582810135601f8101859004850286018501909652858552610ca19583359536956044949193909101919081908401838280828437509497506150549650505050505050565b34801561113357600080fd5b506105356004356150de565b6003545b90565b606080606060038581548110151561115a57fe5b60009182526020808320878452600d60109093020191909101905260409020600380548790811061118757fe5b9060005260206000209060100201600d0160008681526020019081526020016000206001016003878154811015156111bb57fe5b60009182526020808320898452601092909202909101600d01815260409182902084548351600260018316156101000260001901909216829004601f810185900485028201850190955284815291019290918591908301828280156112615780601f1061123657610100808354040283529160200191611261565b820191906000526020600020905b81548152906001019060200180831161124457829003601f168201915b5050855460408051602060026001851615610100026000190190941693909304601f8101849004840282018401909252818152959850879450925084019050828280156112ef5780601f106112c4576101008083540402835291602001916112ef565b820191906000526020600020905b8154815290600101906020018083116112d257829003601f168201915b5050845460408051602060026001851615610100026000190190941693909304601f81018490048402820184019092528181529597508694509250840190508282801561137d5780601f106113525761010080835404028352916020019161137d565b820191906000526020600020905b81548152906001019060200180831161136057829003601f168201915b505050505090509250925092509250925092565b606060008060006002856040518082805190602001908083835b602083106113ca5780518252601f1990920191602091820191016113ab565b51815160209384036101000a6000190180199092169116179052920194855250604051938490038101842089519094600294508a9350918291908401908083835b6020831061142a5780518252601f19909201916020918201910161140b565b51815160209384036101000a60001901801990921691161790529201948552506040519384900381018420600101548a519094600294508b9350918291908401908083835b6020831061148e5780518252601f19909201916020918201910161146f565b6001836020036101000a0380198251168184511680821785525050505050509050019150509081526020016040518091039020600201546002886040518082805190602001908083835b602083106114f75780518252601f1990920191602091820191016114d8565b518151600019602094850361010090810a82019283169219939093169190911790925294909201968752604080519788900382018820600301548b54601f6002600183161590980290950116959095049283018290048202880182019052818752929594508893509184019050828280156115b35780601f10611588576101008083540402835291602001916115b3565b820191906000526020600020905b81548152906001019060200180831161159657829003601f168201915b5050505050935093509350935093509193509193565b606060006003848154811015156115dc57fe5b9060005260206000209060100201600901836040518082805190602001908083835b6020831061161d5780518252601f1990920191602091820191016115fe565b51815160209384036101000a600019018019909216911617905292019485525060405193849003019092206003805491935091508690811061165b57fe5b9060005260206000209060100201600901846040518082805190602001908083835b6020831061169c5780518252601f19909201916020918201910161167d565b518151600019602094850361010090810a820192831692199390931691909117909252949092019687526040805197889003820188206001908101548a54601f6002938216159098029095019094160494850182900482028801820190528387529095945086935084019050828280156117575780601f1061172c57610100808354040283529160200191611757565b820191906000526020600020905b81548152906001019060200180831161173a57829003601f168201915b50505050509150915091509250929050565b600060038281548110151561177a57fe5b60009182526020909120600c601090920201015492915050565b60006002826040518082805190602001908083835b602083106117c85780518252601f1990920191602091820191016117a9565b51815160209384036101000a6000190180199092169116179052920194855250604051938490030190922060040154949350505050565b6000818152602081815260409182902080548351601f60026000196101006001861615020190931692909204918201849004840281018401909452808452606093928301828280156118925780601f1061186757610100808354040283529160200191611892565b820191906000526020600020905b81548152906001019060200180831161187557829003601f168201915b50505050509050919050565b60006003828154811015156118af57fe5b600091825260209091206008601090920201015492915050565b60608060606002856040518082805190602001908083835b602083106119005780518252601f1990920191602091820191016118e1565b51815160209384036101000a600019018019909216911617905292019485525060408051948590038201852060008a8152600590910183522089519094600294508a9350918291908401908083835b6020831061196e5780518252601f19909201916020918201910161194f565b51815160209384036101000a600019018019909216911617905292019485525060408051948590038201852060008b815260059091018352208a51600190910194600294508b9350918291908401908083835b602083106119e05780518252601f1990920191602091820191016119c1565b518151600019602094850361010090810a8201928316921993909316919091179092529490920196875260408051978890038201882060008f8152600590910183528190208a54601f6002600183161590980290950116869004938401839004830289018301909152828852939093019594508793509184019050828280156112615780601f1061123657610100808354040283529160200191611261565b60006002826040518082805190602001908083835b60208310611ab35780518252601f199092019160209182019101611a94565b51815160209384036101000a6000190180199092169116179052920194855250604051938490030190922060030154949350505050565b60045473ffffffffffffffffffffffffffffffffffffffff1681565b60606000600383815481101515611b1957fe5b906000526020600020906010020160050160019054906101000a900460ff161515611ba557604080517f08c379a000000000000000000000000000000000000000000000000000000000815260206004820152600d60248201527f436865636b20417070726f766500000000000000000000000000000000000000604482015290519081900360640190fd5b6003805484908110611bb357fe5b600091825260209091206005601090920201015460ff1615611c3657604080517f08c379a000000000000000000000000000000000000000000000000000000000815260206004820152600e60248201527f436865636b2046696e6973686564000000000000000000000000000000000000604482015290519081900360640190fd5b6001600384815481101515611c4757fe5b600091825260209182902060056010909202018101805493151560ff19909416939093179092558351611c7d92918501906156f5565b50600090505b6001600384815481101515611c9457fe5b90600052602060002090601002016008018054905003811015612065576003805484908110611cbf57fe5b9060005260206000209060100201600a0154600384815481101515611ce057fe5b9060005260206000209060100201600901600385815481101515611d0057fe5b906000526020600020906010020160080183815481101515611d1e57fe5b906000526020600020016040518082805460018160011615610100020316600290048015611d835780601f10611d61576101008083540402835291820191611d83565b820191906000526020600020905b815481529060010190602001808311611d6f575b5050915050908152602001604051809103902060010154141561205d5760c86002600385815481101515611db357fe5b906000526020600020906010020160080183815481101515611dd157fe5b906000526020600020016040518082805460018160011615610100020316600290048015611e365780601f10611e14576101008083540402835291820191611e36565b820191906000526020600020905b815481529060010190602001808311611e22575b50509283525050604051908190036020019020600101805490910190556003805484908110611e6157fe5b9060005260206000209060100201600d016000600381526020019081526020016000206002600385815481101515611e9557fe5b906000526020600020906010020160080183815481101515611eb357fe5b906000526020600020016040518082805460018160011615610100020316600290048015611f185780601f10611ef6576101008083540402835291820191611f18565b820191906000526020600020905b815481529060010190602001808311611f04575b5050915050908152602001604051809103902060050160006002600387815481101515611f4157fe5b906000526020600020906010020160080185815481101515611f5f57fe5b906000526020600020016040518082805460018160011615610100020316600290048015611fc45780601f10611fa2576101008083540402835291820191611fc4565b820191906000526020600020905b815481529060010190602001808311611fb0575b5050928352505060408051602092819003830190206004015483529082019290925201600020815461200c908290849060026001821615610100026000190190911604615740565b5060018201816001019080546001816001161561010002031660029004612034929190615740565b5060028281018054612059928481019291600019610100600183161502011604615740565b5050505b600101611c83565b505050565b6000806002836040518082805190602001908083835b6020831061209f5780518252601f199092019160209182019101612080565b51815160209384036101000a60001901801990921691161790529201948552506040805194859003820190942060008a8152600690910182528481208982526007019091529290922060030154929092119150612139905057604080517f08c379a0000000000000000000000000000000000000000000000000000000008152602060048201526000602482015290519081900360640190fd5b6002826040518082805190602001908083835b6020831061216b5780518252601f19909201916020918201910161214c565b51815160001960209485036101000a810191821691199290921617909152939091019586526040805196879003820190962060008b8152600690910182528681208a825260070190915294909420600390810180549092019091558054909350879250821090506121d857fe5b90600052602060002090601002016007016000848152602001908152602001600020600401546002836040518082805190602001908083835b602083106122305780518252601f199092019160209182019101612211565b51815160209384036101000a600019018019909216911617905292019485525060405193849003019092206002018054939093019092555050600380548590811061227757fe5b90600052602060002090601002016007016000848152602001908152602001600020600501546003858154811015156122ac57fe5b9060005260206000209060100201600901836040518082805190602001908083835b602083106122ed5780518252601f1990920191602091820191016122ce565b51815160209384036101000a600019018019909216911617905292019485525060405193849003019092206001018054939093019092555050600380548590811061233457fe5b90600052602060002090601002016007016000848152602001908152602001600020600501546002836040518082805190602001908083835b6020831061238c5780518252601f19909201916020918201910161236d565b51815160209384036101000a60001901801990921691161790529201948552506040519384900301909220600101805493909301909255505060038054859081106123d357fe5b9060005260206000209060100201600a01546003858154811015156123f457fe5b9060005260206000209060100201600901836040518082805190602001908083835b602083106124355780518252601f199092019160209182019101612416565b6001836020036101000a0380198251168184511680821785525050505050509050019150509081526020016040518091039020600101541415612779576003808581548110151561248257fe5b9060005260206000209060100201600e015410156127795760038054859081106124a857fe5b9060005260206000209060100201600d0160006003868154811015156124ca57fe5b9060005260206000209060100201600e015481526020019081526020016000206002836040518082805190602001908083835b6020831061251c5780518252601f1990920191602091820191016124fd565b6001836020036101000a038019825116818451168082178552505050505050905001915050908152602001604051809103902060050160006002856040518082805190602001908083835b602083106125865780518252601f199092019160209182019101612567565b6001836020036101000a0380198251168184511680821785525050505050509050019150509081526020016040518091039020600401805490508152602001908152602001600020600082018160000190805460018160011615610100020316600290046125f5929190615740565b506001820181600101908054600181600116156101000203166002900461261d929190615740565b5060028281018054612642928481019291600019610100600183161502011604615740565b509050506002826040518082805190602001908083835b602083106126785780518252601f199092019160209182019101612659565b6001836020036101000a03801982511681845116808217855250505050505090500191505090815260200160405180910390206004016002836040518082805190602001908083835b602083106126e05780518252601f1990920191602091820191016126c1565b51815160209384036101000a6000190180199092169116179052920194855250604051938490038101909320600401548454600181018655600095865293909420909201929092555050600380548590811061273857fe5b60009182526020909120600e6010909202010180546001019055600380548590811061276057fe5b9060005260206000209060100201600e0154905061277d565b5060005b9392505050565b606060006002836040518082805190602001908083835b602083106127ba5780518252601f19909201916020918201910161279b565b51815160209384036101000a600019018019909216911617905292019485525060408051948590038201852060008b8152600690910183528181208a82526007018352208751909460029450889350918291908401908083835b602083106128335780518252601f199092019160209182019101612814565b518151600019602094850361010090810a8201928316921993909316919091179092529490920196875260408051978890038201882060008f8152600690910183528181208e82526007018352819020600301548954601f6002600183161590980290950116959095049283018290048202880182019052818752929594508693509184019050828280156129095780601f106128de57610100808354040283529160200191612909565b820191906000526020600020905b8154815290600101906020018083116128ec57829003601f168201915b5050505050915091509150935093915050565b600380548290811061292a57fe5b60009182526020918290206010919091020180546040805160026001841615610100026000190190931692909204601f8101859004850283018501909152808252919350918391908301828280156129c35780601f10612998576101008083540402835291602001916129c3565b820191906000526020600020905b8154815290600101906020018083116129a657829003601f168201915b505050505090806001018054600181600116156101000203166002900480601f016020809104026020016040519081016040528092919081815260200182805460018160011615610100020316600290048015612a615780601f10612a3657610100808354040283529160200191612a61565b820191906000526020600020905b815481529060010190602001808311612a4457829003601f168201915b50505060028085018054604080516020601f6000196101006001871615020190941695909504928301859004850281018501909152818152959695945090925090830182828015612af35780601f10612ac857610100808354040283529160200191612af3565b820191906000526020600020905b815481529060010190602001808311612ad657829003601f168201915b5050505060038301805460408051602060026001851615610100026000190190941693909304601f8101849004840282018401909252818152949594935090830182828015612b835780601f10612b5857610100808354040283529160200191612b83565b820191906000526020600020905b815481529060010190602001808311612b6657829003601f168201915b5050505060048301805460408051602060026001851615610100026000190190941693909304601f8101849004840282018401909252818152949594935090830182828015612c135780601f10612be857610100808354040283529160200191612c13565b820191906000526020600020905b815481529060010190602001808311612bf657829003601f168201915b5050506005840154600a850154600e90950154939460ff80831695610100909304169350915089565b60045460009073ffffffffffffffffffffffffffffffffffffffff163314612c9f57604080517f08c379a0000000000000000000000000000000000000000000000000000000008152602060048201526000602482015290519081900360640190fd5b84600387815481101515612caf57fe5b90600052602060002090601002016007016000612ccb8961433d565b81526020019081526020016000206000019080519060200190612cef9291906157b5565b5083600387815481101515612d0057fe5b90600052602060002090601002016007016000612d1c8961433d565b81526020019081526020016000206001019080519060200190612d409291906157b5565b5082600387815481101515612d5157fe5b90600052602060002090601002016007016000612d6d8961433d565b81526020019081526020016000206002019080519060200190612d919291906157b5565b5081600387815481101515612da257fe5b90600052602060002090601002016007016000612dbe8961433d565b8152602081019190915260400160002060030155612ddb83615185565b6003805488908110612de957fe5b90600052602060002090601002016007016000612e058961433d565b8152602081019190915260400160002060050155612e2283615228565b6003805488908110612e3057fe5b90600052602060002090601002016007016000612e4c8961433d565b815260208101919091526040016000206004015581612e6a84615185565b02600387815481101515612e7a57fe5b600091825260208220600a60109092020101805490920190915590505b81811015612f0057612ead8584836001016152b4565b6003805488908110612ebb57fe5b90600052602060002090601002016007016000612ed78961433d565b815260208082019290925260409081016000908120858252600601909252902055600101612e97565b6003805487908110612f0e57fe5b9060005260206000209060100201600601612f288761433d565b81546001810183556000928352602090922090910155505050505050565b60608060606000806000600388815481101515612f5f57fe5b600091825260208083208a8452600760109093020191909101905260409020600380548a908110612f8c57fe5b9060005260206000209060100201600701600089815260200190815260200160002060010160038a815481101515612fc057fe5b906000526020600020906010020160070160008a815260200190815260200160002060020160038b815481101515612ff457fe5b906000526020600020906010020160070160008b81526020019081526020016000206003015460038c81548110151561302957fe5b906000526020600020906010020160070160008c81526020019081526020016000206005015460038d81548110151561305e57fe5b600091825260208083208f845260076010909302019190910181526040918290206004015487548351601f600260001961010060018616150201909316929092049182018490048402810184019094528084529092918891908301828280156131085780601f106130dd57610100808354040283529160200191613108565b820191906000526020600020905b8154815290600101906020018083116130eb57829003601f168201915b5050885460408051602060026001851615610100026000190190941693909304601f8101849004840282018401909252818152959b508a9450925084019050828280156131965780601f1061316b57610100808354040283529160200191613196565b820191906000526020600020905b81548152906001019060200180831161317957829003601f168201915b5050875460408051602060026001851615610100026000190190941693909304601f8101849004840282018401909252818152959a50899450925084019050828280156132245780601f106131f957610100808354040283529160200191613224565b820191906000526020600020905b81548152906001019060200180831161320757829003601f168201915b505050505093509550955095509550955095509295509295509295565b606060038381548110151561325257fe5b90600052602060002090601002016008018281548110151561327057fe5b600091825260209182902001805460408051601f60026000196101006001871615020190941693909304928301859004850281018501909152818152928301828280156132fe5780601f106132d3576101008083540402835291602001916132fe565b820191906000526020600020905b8154815290600101906020018083116132e157829003601f168201915b5050505050905092915050565b6000816002836040518082805190602001908083835b602083106133405780518252601f199092019160209182019101613321565b51815160209384036101000a6000190180199092169116179052920194855250604051938490038101909320845161338195919491909101925090506157b5565b5060006002836040518082805190602001908083835b602083106133b65780518252601f199092019160209182019101613397565b51815160209384036101000a600019018019909216911617905292019485525060405193849003810184206001019490945550508351600092600292869290918291908401908083835b6020831061341f5780518252601f199092019160209182019101613400565b51815160209384036101000a6000190180199092169116179052920194855250604051938490038101909320600201939093555060018054808201808355600092909252855191935061349a927fb10e2d527612073b26eecdfd717e6a320cf44b4afac2b0732d9fcbe2b7fa0cf690910191908601906157b5565b5050919050565b6060600080606060008060006003898154811015156134bc57fe5b9060005260206000209060100201600b01886040518082805190602001908083835b602083106134fd5780518252601f1990920191602091820191016134de565b51815160209384036101000a600019018019909216911617905292019485525060405193849003019092205460ff16159150613576905057604080517f08c379a0000000000000000000000000000000000000000000000000000000008152602060048201526000602482015290519081900360640190fd5b8760038a81548110151561358657fe5b9060005260206000209060100201600901896040518082805190602001908083835b602083106135c75780518252601f1990920191602091820191016135a8565b51815160209384036101000a6000190180199092169116179052920194855250604051938490038101909320845161360895919491909101925090506157b5565b50600060038a81548110151561361a57fe5b9060005260206000209060100201600901896040518082805190602001908083835b6020831061365b5780518252601f19909201916020918201910161363c565b51815160209384036101000a6000190180199092169116179052920194855250604051938490030190922060010192909255505060038054600091908b9081106136a157fe5b9060005260206000209060100201600901896040518082805190602001908083835b602083106136e25780518252601f1990920191602091820191016136c3565b51815160209384036101000a60001901801990921691161790529201948552506040519384900301909220600201929092555050600380548a90811061372457fe5b60009182526020808320600860109093020191909101805460018101808355918452928290208b51919361375e93910191908c01906157b5565b5050600380548a90811061376e57fe5b90600052602060002090601002016002896040518082805190602001908083835b602083106137ae5780518252601f19909201916020918201910161378f565b51815160209384036101000a600019018019909216911617905292019485525060405193849003019092206006019150600090506137eb8b611a7f565b81526020810191909152604001600020815461381d908290849060026000196101006001841615020190911604615740565b5060018201816001019080546001816001161561010002031660029004613845929190615740565b506002828101805461386a928481019291600019610100600183161502011604615740565b5060038201816003019080546001816001161561010002031660029004613892929190615740565b50600482018160040190805460018160011615610100020316600290046138ba929190615740565b5060058281018054918301805460ff938416151560ff1990911617808255915461010090819004909316151590920261ff0019909116179055600680830180546139079284019190615822565b506008828101805461391c9284019190615861565b50600a82015481600a0155600c820181600c0190805461393d929190615822565b50600e91820154910155600091505b6139558961433d565b82101561421f57600380548a90811061396a57fe5b906000526020600020906010020160070160008381526020019081526020016000206000016002896040518082805190602001908083835b602083106139c15780518252601f1990920191602091820191016139a2565b6001836020036101000a038019825116818451168082178552505050505050905001915050908152602001604051809103902060060160008b815260200190815260200160002060070160008481526020019081526020016000206000019080546001816001161561010002031660029004613a3e929190615740565b50600380548a908110613a4d57fe5b906000526020600020906010020160070160008381526020019081526020016000206001016002896040518082805190602001908083835b60208310613aa45780518252601f199092019160209182019101613a85565b6001836020036101000a038019825116818451168082178552505050505050905001915050908152602001604051809103902060060160008b815260200190815260200160002060070160008481526020019081526020016000206001019080546001816001161561010002031660029004613b21929190615740565b50600380548a908110613b3057fe5b906000526020600020906010020160070160008381526020019081526020016000206002016002896040518082805190602001908083835b60208310613b875780518252601f199092019160209182019101613b68565b6001836020036101000a038019825116818451168082178552505050505050905001915050908152602001604051809103902060060160008b815260200190815260200160002060070160008481526020019081526020016000206002019080546001816001161561010002031660029004613c04929190615740565b50600380548a908110613c1357fe5b90600052602060002090601002016007016000838152602001908152602001600020600301546002896040518082805190602001908083835b60208310613c6b5780518252601f199092019160209182019101613c4c565b51815160209384036101000a60001901801990921691161790529201948552506040805194859003820190942060008f81526006909101825284812088825260070190915292909220600390810193909355505080548a908110613ccb57fe5b90600052602060002090601002016007016000838152602001908152602001600020600501546002896040518082805190602001908083835b60208310613d235780518252601f199092019160209182019101613d04565b51815160209384036101000a60001901801990921691161790529201948552506040805194859003820190942060008f81526006909101825284812088825260070190915292909220600501929092555050600380548a908110613d8357fe5b90600052602060002090601002016007016000838152602001908152602001600020600401546002896040518082805190602001908083835b60208310613ddb5780518252601f199092019160209182019101613dbc565b51815160209384036101000a60001901801990921691161790529201948552506040805194859003820190942060008f8152600690910182528481208882526007019091529290922060040192909255505060038054613f2691908b908110613e4057fe5b6000918252602080832086845260109290920290910160070181526040918290206002908101805484516001821615610100026000190190911692909204601f810184900484028301840190945283825290929091830182828015613ee65780601f10613ebb57610100808354040283529160200191613ee6565b820191906000526020600020905b815481529060010190602001808311613ec957829003601f168201915b50505050506040805190810160405280600681526020017f7172636f64650000000000000000000000000000000000000000000000000000815250615568565b15614177575060005b600380548a908110613f3d57fe5b9060005260206000209060100201600701600083815260200190815260200160002060030154811015614177576140e360038a815481101515613f7c57fe5b60009182526020808320868452600760109093020191909101815260409182902080548351601f60026000196101006001861615020190931692909204918201849004840281018401909452808452909183018282801561401e5780601f10613ff35761010080835404028352916020019161401e565b820191906000526020600020905b81548152906001019060200180831161400157829003601f168201915b505050505060038b81548110151561403257fe5b6000918252602080832087845260109290920290910160070181526040918290206002908101805484516001821615610100026000190190911692909204601f8101849004840283018401909452838252909290918301828280156140d85780601f106140ad576101008083540402835291602001916140d8565b820191906000526020600020905b8154815290600101906020018083116140bb57829003601f168201915b5050505050836152b4565b6002896040518082805190602001908083835b602083106141155780518252601f1990920191602091820191016140f6565b51815160209384036101000a60001901801990921691161790529201948552506040805194859003820190942060008f815260069182018352858120898252600701835285812088825290910190915292909220929092555050600101613f2f565b6002886040518082805190602001908083835b602083106141a95780518252601f19909201916020918201910161418a565b51815160209384036101000a600019018019909216911617905292019485525060405193849003019092206006019150600090506141e68a611a7f565b815260200190815260200160002060060161420089611a7f565b815460018181018455600093845260209093200155919091019061394c565b6002886040518082805190602001908083835b602083106142515780518252601f199092019160209182019101614232565b51815160209384036101000a60001901801990921691161790529201948552506040519384900301909220600301915061428c905089611a7f565b815460018181018455600093845260209093200155600380548b9081106142af57fe5b9060005260206000209060100201600b01896040518082805190602001908083835b602083106142f05780518252601f1990920191602091820191016142d1565b51815160209384036101000a60001901801990921691161790529201948552506040519384900301909220805460ff19169315159390931790925550969995985093965091945092915050565b600060038281548110151561434e57fe5b600091825260209091206006601090920201015492915050565b6143706158cb565b60045473ffffffffffffffffffffffffffffffffffffffff1633146143d057604080517f08c379a0000000000000000000000000000000000000000000000000000000008152602060048201526000602482015290519081900360640190fd5b86815260208101869052604081018590526060810184905260808101839052600160c08201528160008061440261113f565b815260200190815260200160002090805190602001906144239291906157b5565b5060038054600181018083556000929092528251805184926010027fc2575a0e9e593c00f959f8c92f12db2869c3395a3b0502d05e2516446f71f85b0191614470918391602001906157b5565b50602082810151805161448992600185019201906157b5565b50604082015180516144a59160028401916020909101906157b5565b50606082015180516144c19160038401916020909101906157b5565b50608082015180516144dd9160048401916020909101906157b5565b5060a082015160058201805460c085015115156101000261ff001993151560ff19909216919091179290921691909117905560e0820151805161452a9160068401916020909101906156f5565b506101008201518051614547916008840191602090910190615931565b50610120820151600a820155610140820151805161456f91600c8401916020909101906156f5565b5061016082015181600e015550505050505050505050565b600060038481548110151561459857fe5b6000918252602080832095835260109190910290940160070184526040808220938252600690930190935250902054919050565b6060604051908101604052808381526020018281526020016003858154811015156145f357fe5b6000918252602091829020600460109092020101805460408051601f60026000196101006001871615020190941693909304928301859004850281018501909152818152928301828280156146895780601f1061465e57610100808354040283529160200191614689565b820191906000526020600020905b81548152906001019060200180831161466c57829003601f168201915b50505050508152506003848154811015156146a057fe5b9060005260206000209060100201600d0160006146bc86611769565b81526020808201929092526040016000208251805191926146e2928492909101906157b5565b5060208281015180516146fb92600185019201906157b5565b50604082015180516147179160028401916020909101906157b5565b5090505060038381548110151561472a57fe5b9060005260206000209060100201600c0161474484611769565b81546001810183556000928352602090922090910155505050565b6000806000806002866040518082805190602001908083835b602083106147975780518252601f199092019160209182019101614778565b51815160209384036101000a60001901801990921691161790529201948552506040805194859003820190942060008d8152600690910182528481208c82526007019091529290922060030154929092119150614831905057604080517f08c379a0000000000000000000000000000000000000000000000000000000008152602060048201526000602482015290519081900360640190fd5b5060009050805b600380548890811061484657fe5b9060005260206000209060100201600701600087815260200190815260200160002060030154811015614c7857600380548591908990811061488457fe5b600091825260208083208a84526007601090930201919091018152604080832085845260060190915290205414801561494757506002856040518082805190602001908083835b602083106148ea5780518252601f1990920191602091820191016148cb565b51815160209384036101000a60001901801990921691161790529201948552506040805194859003820190942060008c8152600690910182528481208b8252600790810183528582208a835201909152929092205460ff16159150505b15614c705760016002866040518082805190602001908083835b602083106149805780518252601f199092019160209182019101614961565b51815160209384036101000a600019018019909216911617905292019485525060408051948590038201852060008e8152600690910183528181208d8252600790810184528282208c835201835220805460ff1916951515959095179094555050865160029288929182918401908083835b60208310614a115780518252601f1990920191602091820191016149f2565b51815160001960209485036101000a810191821691199290921617909152939091019586526040805196879003820190962060008e8152600690910182528681208d8252600701909152949094206003908101805490920190915580549093508a925082109050614a7e57fe5b90600052602060002090601002016007016000878152602001908152602001600020600401546002866040518082805190602001908083835b60208310614ad65780518252601f199092019160209182019101614ab7565b51815160209384036101000a600019018019909216911617905292019485525060405193849003019092206002018054939093019092555050600380546001935088908110614b2157fe5b9060005260206000209060100201600701600087815260200190815260200160002060050154600388815481101515614b5657fe5b9060005260206000209060100201600901866040518082805190602001908083835b60208310614b975780518252601f199092019160209182019101614b78565b51815160209384036101000a6000190180199092169116179052920194855250604051938490030190922060010180549390930190925550506003805488908110614bde57fe5b90600052602060002090601002016007016000878152602001908152602001600020600501546002866040518082805190602001908083835b60208310614c365780518252601f199092019160209182019101614c17565b51815160209384036101000a6000190180199092169116179052920194855250604051938490030190922060010180549390930190925550505b600101614838565b8115615045576003805488908110614c8c57fe5b9060005260206000209060100201600a0154600388815481101515614cad57fe5b9060005260206000209060100201600901866040518082805190602001908083835b60208310614cee5780518252601f199092019160209182019101614ccf565b6001836020036101000a03801982511681845116808217855250505050505090500191505090815260200160405180910390206001015414156150375760038088815481101515614d3b57fe5b9060005260206000209060100201600e01541015615032576003805488908110614d6157fe5b9060005260206000209060100201600d016000600389815481101515614d8357fe5b9060005260206000209060100201600e015481526020019081526020016000206002866040518082805190602001908083835b60208310614dd55780518252601f199092019160209182019101614db6565b6001836020036101000a038019825116818451168082178552505050505050905001915050908152602001604051809103902060050160006002886040518082805190602001908083835b60208310614e3f5780518252601f199092019160209182019101614e20565b6001836020036101000a038019825116818451168082178552505050505050905001915050908152602001604051809103902060040180549050815260200190815260200160002060008201816000019080546001816001161561010002031660029004614eae929190615740565b5060018201816001019080546001816001161561010002031660029004614ed6929190615740565b5060028281018054614efb928481019291600019610100600183161502011604615740565b509050506002856040518082805190602001908083835b60208310614f315780518252601f199092019160209182019101614f12565b6001836020036101000a03801982511681845116808217855250505050505090500191505090815260200160405180910390206004016002866040518082805190602001908083835b60208310614f995780518252601f199092019160209182019101614f7a565b51815160209384036101000a60001901801990921691161790529201948552506040519384900381019093206004015484546001810186556000958652939094209092019290925550506003805488908110614ff157fe5b60009182526020909120600e6010909202010180546001019055600380548890811061501957fe5b9060005260206000209060100201600e0154925061504a565b615040565b6005925061504a565b61504a565b600092505b5050949350505050565b600060038381548110151561506557fe5b9060005260206000209060100201600b01826040518082805190602001908083835b602083106150a65780518252601f199092019160209182019101615087565b51815160209384036101000a600019018019909216911617905292019485525060405193849003019092205460ff1695945050505050565b60018054829081106150ec57fe5b600091825260209182902001805460408051601f600260001961010060018716150201909416939093049283018590048502810185019091528181529350909183018282801561517d5780601f106151525761010080835404028352916020019161517d565b820191906000526020600020905b81548152906001019060200180831161516057829003601f168201915b505050505081565b60006151c6826040805190810160405280600681526020017f7172636f64650000000000000000000000000000000000000000000000000000815250615568565b61521c57615209826040805190810160405280600881526020017f7175657374696f6e000000000000000000000000000000000000000000000000815250615568565b615214576064615217565b60325b61521f565b60c85b60ff1692915050565b6000615269826040805190810160405280600681526020017f7172636f64650000000000000000000000000000000000000000000000000000815250615568565b6152ac57615209826040805190810160405280600881526020017f7175657374696f6e000000000000000000000000000000000000000000000000815250615568565b506096919050565b6000808060608181818715156152ca576101b897505b8795505b85156152e557600190940193600a860495506152ce565b846040519080825280601f01601f191660200182016040528015615313578160200160208202803883390190505b5093506001850392505b871561539b5783516000198401937f01000000000000000000000000000000000000000000000000000000000000006030600a8c06010291869190811061536057fe5b9060200101907effffffffffffffffffffffffffffffffffffffffffffffffffffffffffffff1916908160001a905350600a8804975061531d565b8989856040516020018084805190602001908083835b602083106153d05780518252601f1990920191602091820191016153b1565b51815160209384036101000a600019018019909216911617905286519190930192860191508083835b602083106154185780518252601f1990920191602091820191016153f9565b51815160209384036101000a600019018019909216911617905285519190930192850191508083835b602083106154605780518252601f199092019160209182019101615441565b6001836020036101000a03801982511681845116808217855250505050505090500193505050506040516020818303038152906040529150816040516020018082805190602001908083835b602083106154cb5780518252601f1990920191602091820191016154ac565b6001836020036101000a0380198251168184511680821785525050505050509050019150506040516020818303038152906040526040518082805190602001908083835b6020831061552e5780518252601f19909201916020918201910161550f565b5181516020939093036101000a600019018019909116921691909117905260405192018290039091209d9c50505050505050505050505050565b6000816040516020018082805190602001908083835b6020831061559d5780518252601f19909201916020918201910161557e565b6001836020036101000a0380198251168184511680821785525050505050509050019150506040516020818303038152906040526040518082805190602001908083835b602083106156005780518252601f1990920191602091820191016155e1565b51815160209384036101000a60001901801990921691161790526040519190930181900381208851909550889450908301928392508401908083835b6020831061565b5780518252601f19909201916020918201910161563c565b6001836020036101000a0380198251168184511680821785525050505050509050019150506040516020818303038152906040526040518082805190602001908083835b602083106156be5780518252601f19909201916020918201910161569f565b5181516020939093036101000a60001901801990911692169190911790526040519201829003909120939093149695505050505050565b828054828255906000526020600020908101928215615730579160200282015b82811115615730578251825591602001919060010190615715565b5061573c92915061597e565b5090565b828054600181600116156101000203166002900490600052602060002090601f016020900481019282601f106157795780548555615730565b8280016001018555821561573057600052602060002091601f016020900482015b8281111561573057825482559160010191906001019061579a565b828054600181600116156101000203166002900490600052602060002090601f016020900481019282601f106157f657805160ff1916838001178555615730565b828001600101855582156157305791820182811115615730578251825591602001919060010190615715565b8280548282559060005260206000209081019282156157305760005260206000209182018281111561573057825482559160010191906001019061579a565b8280548282559060005260206000209081019282156158bf5760005260206000209182015b828111156158bf57828290805460018160011615610100020316600290046158af929190615740565b5091600101919060010190615886565b5061573c929150615998565b61018060405190810160405280606081526020016060815260200160608152602001606081526020016060815260200160001515815260200160001515815260200160608152602001606081526020016000815260200160608152602001600081525090565b8280548282559060005260206000209081019282156158bf579160200282015b828111156158bf578251805161596e9184916020909101906157b5565b5091602001919060010190615951565b61114391905b8082111561573c5760008155600101615984565b61114391905b8082111561573c5760006159b282826159bb565b5060010161599e565b50805460018160011615610100020316600290046000825580601f106159e157506159ff565b601f0160209004906000526020600020908101906159ff919061597e565b505600a165627a7a723058203df2ce092cad0c3cebe2003b6fcf4af29ea5de72c1de0c39fd8d9a832d20d4bb0029",
  "source": "pragma solidity >=0.4.21 <0.7.0;\n\n\ncontract Nomoriam {\n    struct Activity {\n        string title;\n        string image;\n        string category;\n        uint256 times;\n        uint256 exp;\n        uint256 point;\n        mapping(uint256 => bytes32) qrcode;\n        mapping(bytes32 => bool) qrcodeComplete;\n    }\n\n    struct Challenge {\n        string title;\n        string desc;\n        string image;\n        string create_time;\n        string end_time;\n        bool finished;\n        bool approved;\n        uint256[] activities;\n        mapping(uint256 => Activity) activity;\n        string[] players;\n        mapping(string => Player) player;\n        uint256 sum_point;\n        mapping(string => bool) joined;\n        uint256[] medals;\n        mapping(uint256 => Medal) medal;\n        uint256 countLeader;\n        mapping(uint256 => string) leaders;\n    }\n\n    struct Medal {\n        string title;\n        string image;\n        string create_time;\n    }\n\n    struct Player {\n        string uid;\n        uint256 point;\n        uint256 exp;\n        uint256[] challenges;\n        uint256[] medals;\n        mapping(uint256 => Medal) medal;\n        mapping(uint256 => Challenge) challenge;\n    }\n\n    mapping(uint256 => string) owner;\n    string[] public players;\n    mapping(string => Player) player;\n\n    Challenge[] public challenges;\n\n    address public manager;\n\n    constructor() public {\n        manager = msg.sender;\n    }\n\n    modifier restricted() {\n        require(msg.sender == manager, \"\");\n        _;\n    }\n\n    function compareString(string memory a, string memory b)\n        internal\n        pure\n        returns (bool)\n    {\n        return keccak256(abi.encodePacked(a)) == keccak256(abi.encodePacked(b));\n    }\n\n    /* \n        Challenge\n    */\n\n    function createChallenge(\n        string memory title,\n        string memory desc,\n        string memory image,\n        string memory create_time,\n        string memory end_time,\n        string memory _owner\n    ) public restricted {\n        Challenge memory newChallenge;\n        newChallenge.title = title;\n        newChallenge.desc = desc;\n        newChallenge.image = image;\n        newChallenge.create_time = create_time;\n        newChallenge.end_time = end_time;\n        newChallenge.approved = true;\n        owner[getChallengeCount()] = _owner;\n\n        challenges.push(newChallenge);\n    }\n\n    uint256[] points;\n\n    function finishChallenge(uint256 index) public {\n        require(challenges[index].approved, \"Check Approve\");\n        require(!challenges[index].finished, \"Check Finished\");\n        challenges[index].finished = true;\n\n        uint256[] memory temp;\n        points = temp;\n\n        for (uint256 i = 0; i < challenges[index].players.length - 1; i++) {\n            if (\n                (challenges[index].player[challenges[index].players[i]].point ==\n                    challenges[index].sum_point)\n            ) {\n                player[challenges[index].players[i]].point += 200;\n                player[challenges[index].players[i]]\n                    .medal[player[challenges[index].players[i]]\n                    .medals\n                    .length] = challenges[index].medal[3];\n            }\n        }\n    }\n\n    function joinChallenge(uint256 index, string memory uid)\n        public\n        returns (string memory, uint256, uint256, string memory, uint256)\n    {\n        require(!challenges[index].joined[uid], \"\");\n        // Challenge\n        challenges[index].player[uid].uid = uid;\n        challenges[index].player[uid].point = 0;\n        challenges[index].player[uid].exp = 0;\n        challenges[index].players.push(uid);\n\n        // Player\n        player[uid].challenge[getChallengeCountByPlayer(\n            uid\n        )] = challenges[index];\n\n        for (uint256 i = 0; i < getActivityCount(index); i++) {\n            player[uid].challenge[index].activity[i].title = challenges[index]\n                .activity[i]\n                .title;\n            player[uid].challenge[index].activity[i].image = challenges[index]\n                .activity[i]\n                .image;\n            player[uid].challenge[index].activity[i]\n                .category = challenges[index].activity[i].category;\n            player[uid].challenge[index].activity[i].times = challenges[index]\n                .activity[i]\n                .times;\n            player[uid].challenge[index].activity[i].point = challenges[index]\n                .activity[i]\n                .point;\n            player[uid].challenge[index].activity[i].exp = challenges[index]\n                .activity[i]\n                .exp;\n            if (\n                compareString(challenges[index].activity[i].category, \"qrcode\")\n            ) {\n                for (\n                    uint256 j = 0;\n                    j < challenges[index].activity[i].times;\n                    j++\n                ) {\n                    player[uid].challenge[index].activity[i]\n                        .qrcode[j] = generateQRcode(\n                        challenges[index].activity[i].title,\n                        challenges[index].activity[i].category,\n                        j\n                    );\n                }\n            }\n            player[uid].challenge[getChallengeCountByPlayer(uid)]\n                .activities\n                .push(getChallengeCountByPlayer(uid));\n        }\n        player[uid].challenges.push(getChallengeCountByPlayer(uid));\n        challenges[index].joined[uid] = true;\n    }\n\n    function addActivity(\n        uint256 _index,\n        string memory title,\n        string memory image,\n        string memory category,\n        uint256 times\n    ) public restricted {\n        challenges[_index].activity[getActivityCount(_index)].title = title;\n        challenges[_index].activity[getActivityCount(_index)].image = image;\n        challenges[_index].activity[getActivityCount(_index)]\n            .category = category;\n        challenges[_index].activity[getActivityCount(_index)].times = times;\n        challenges[_index].activity[getActivityCount(_index)]\n            .point = generatePoint(category);\n        challenges[_index].activity[getActivityCount(_index)].exp = generateExp(\n            category\n        );\n        challenges[_index].sum_point += generatePoint(category) * times;\n        // if (compareString(category, \"qrcode\")) {\n        for (uint256 i = 0; i < times; i++) {\n            challenges[_index].activity[getActivityCount(_index)]\n                .qrcode[i] = generateQRcode(title, category, i + 1);\n        }\n        // }\n        challenges[_index].activities.push(getActivityCount(_index));\n    }\n\n    function generateQRcode(string memory word, string memory word2, uint256 _i)\n        internal\n        pure\n        returns (bytes32)\n    {\n        if (_i == 0) {\n            _i = 440;\n        }\n        uint256 j = _i;\n        uint256 len;\n        while (j != 0) {\n            len++;\n            j /= 10;\n        }\n        bytes memory bstr = new bytes(len);\n        uint256 k = len - 1;\n        while (_i != 0) {\n            bstr[k--] = bytes1(uint8(48 + (_i % 10)));\n            _i /= 10;\n        }\n        string memory concat = string(\n            abi.encodePacked(word, word2, string(bstr))\n        );\n        bytes32 hash = keccak256(abi.encodePacked(concat));\n        return hash;\n    }\n\n    function doPost(uint256 _index, uint256 _count, string memory uid)\n        public\n        returns (uint256)\n    {\n        require(player[uid].challenge[_index].activity[_count].times > 0, \"\");\n\n        // Add Exp to Player\n        player[uid].challenge[_index].activity[_count].times--;\n        player[uid].exp += challenges[_index].activity[_count].exp;\n        // Add Point to Challenge\n        challenges[_index].player[uid].point += challenges[_index]\n            .activity[_count]\n            .point;\n        player[uid].point += challenges[_index].activity[_count].point;\n\n        if (\n            challenges[_index].player[uid].point == challenges[_index].sum_point\n        ) {\n            if (challenges[_index].countLeader < 3) {\n                player[uid].medal[player[uid]\n                    .medals\n                    .length] = challenges[_index].medal[challenges[_index]\n                    .countLeader];\n                player[uid].medals.push(player[uid].medals.length);\n                challenges[_index].countLeader++;\n                return challenges[_index].countLeader;\n            }\n        }\n\n        return 0;\n    }\n\n    function doQRCode(\n        uint256 _index,\n        uint256 _count,\n        string memory uid,\n        bytes32 qrcode\n    ) public returns (uint256) {\n        require(player[uid].challenge[_index].activity[_count].times > 0, \"\");\n        bool isExist = false;\n        for (\n            uint256 i = 0;\n            i < challenges[_index].activity[_count].times;\n            i++\n        ) {\n            if (\n                challenges[_index].activity[_count].qrcode[i] == qrcode &&\n                !player[uid].challenge[_index].activity[_count]\n                    .qrcodeComplete[qrcode]\n            ) {\n                player[uid].challenge[_index].activity[_count]\n                    .qrcodeComplete[qrcode] = true;\n                // add exp to player\n                player[uid].challenge[_index].activity[_count].times--;\n                player[uid].exp += challenges[_index].activity[_count].exp;\n                // add Point to challenge\n                isExist = true;\n                challenges[_index].player[uid].point += challenges[_index]\n                    .activity[_count]\n                    .point;\n                player[uid].point += challenges[_index].activity[_count].point;\n            }\n        }\n        if (isExist) {\n            if (\n                challenges[_index].player[uid].point ==\n                challenges[_index].sum_point\n            ) {\n                if (challenges[_index].countLeader < 3) {\n                    player[uid].medal[player[uid]\n                        .medals\n                        .length] = challenges[_index].medal[challenges[_index]\n                        .countLeader];\n                    player[uid].medals.push(player[uid].medals.length);\n                    challenges[_index].countLeader++;\n                    return challenges[_index].countLeader;\n                }\n            } else {\n                return 5;\n            }\n        } else {\n            return 0;\n        }\n    }\n\n    function generatePoint(string memory category)\n        internal\n        pure\n        returns (uint256)\n    {\n        return\n            compareString(category, \"qrcode\")\n                ? 200\n                : compareString(category, \"question\")\n                ? 50\n                : 100;\n    }\n\n    function generateExp(string memory category)\n        internal\n        pure\n        returns (uint256)\n    {\n        return\n            compareString(category, \"qrcode\")\n                ? 150\n                : compareString(category, \"question\")\n                ? 50\n                : 100;\n    }\n\n    /*\n        Player\n    */\n\n    function createPlayer(string memory uid) public returns (bool) {\n        player[uid].uid = uid;\n        player[uid].point = 0;\n        player[uid].exp = 0;\n        players.push(uid);\n    }\n\n    /*\n    \n        Medal\n    \n    */\n\n    function addMedal(\n        uint256 _index,\n        string memory _title,\n        string memory _image\n    ) public {\n        challenges[_index].medal[getMedalByChallenge(_index)] = Medal({\n            title: _title,\n            image: _image,\n            create_time: challenges[_index].end_time\n        });\n        challenges[_index].medals.push(getMedalByChallenge(_index));\n    }\n\n    /* get Data from contract */\n\n    function getMedalByChallenge(uint256 _index) public view returns (uint256) {\n        return challenges[_index].medals.length;\n    }\n\n    function getMedalByIndex(uint256 _index, uint256 _count)\n        public\n        view\n        returns (string memory, string memory, string memory)\n    {\n        return (\n            challenges[_index].medal[_count].title,\n            challenges[_index].medal[_count].image,\n            challenges[_index].medal[_count].create_time\n        );\n    }\n\n    function getActivityCount(uint256 _index) public view returns (uint256) {\n        return challenges[_index].activities.length;\n    }\n\n    function getChallengeCountByPlayer(string memory uid)\n        public\n        view\n        returns (uint256)\n    {\n        return player[uid].challenges.length;\n    }\n\n    function getChallengeCount() public view returns (uint256) {\n        return challenges.length;\n    }\n\n    function getPlayer(string memory uid)\n        public\n        view\n        returns (string memory, uint256, uint256, uint256)\n    {\n        return (\n            player[uid].uid,\n            player[uid].point,\n            player[uid].exp,\n            player[uid].challenges.length\n        );\n    }\n\n    function getMedalCountByPlayer(string memory uid)\n        public\n        view\n        returns (uint256)\n    {\n        return player[uid].medals.length;\n    }\n\n    function getMedalByPlayer(string memory uid, uint256 _count)\n        public\n        view\n        returns (string memory, string memory, string memory)\n    {\n        return (\n            player[uid].medal[_count].title,\n            player[uid].medal[_count].image,\n            player[uid].medal[_count].create_time\n        );\n    }\n\n    function getActivityChallengeByPlayer(\n        uint256 index,\n        uint256 count,\n        string memory uid\n    ) public view returns (string memory, uint256) {\n        return (\n            player[uid].challenge[index].activity[count].title,\n            player[uid].challenge[index].activity[count].times\n        );\n    }\n\n    function getJoinedChallenge(uint256 index, string memory uid)\n        public\n        view\n        returns (bool)\n    {\n        return challenges[index].joined[uid];\n    }\n\n    function getPlayerCountByChallenge(uint256 index)\n        public\n        view\n        returns (uint256)\n    {\n        return challenges[index].players.length;\n    }\n\n    function getPlayerUID(uint256 index, uint256 count)\n        public\n        view\n        returns (string memory)\n    {\n        return challenges[index].players[count];\n    }\n\n    function getPlayerByChallenge(uint256 index, string memory uid)\n        public\n        view\n        returns (string memory, uint256)\n    {\n        return (\n            challenges[index].player[uid].uid,\n            challenges[index].player[uid].point\n        );\n    }\n\n    // function getQuestionByChallenge(uint _index, uint _count) public view returns(string memory, string memory){\n    //     return (challenges[_index].activity[_count].question, challenges[_index].activity[_count].answer);\n    // }\n\n    function getQRcodeByChallenge(\n        uint256 _index,\n        uint256 _count,\n        uint256 _times\n    ) public view returns (bytes32) {\n        return challenges[_index].activity[_count].qrcode[_times];\n    }\n\n    function getActivityByChallenge(uint256 _index, uint256 _count)\n        public\n        view\n        returns (\n            string memory,\n            string memory,\n            string memory,\n            uint256,\n            uint256,\n            uint256\n        )\n    {\n        return (\n            challenges[_index].activity[_count].title,\n            challenges[_index].activity[_count].image,\n            challenges[_index].activity[_count].category,\n            challenges[_index].activity[_count].times,\n            challenges[_index].activity[_count].point,\n            challenges[_index].activity[_count].exp\n        );\n    }\n\n    function getOwnerByChallenge(uint256 index)\n        public\n        view\n        returns (string memory)\n    {\n        return owner[index];\n    }\n}\n",
  "sourcePath": "/Users/chayutaroonsang/Downloads/Project/APP_NOMORIAM/Nomoriam/contracts/Nomoriam.sol",
  "compiler": {
    "name": "solc",
    "version": "0.4.25+commit.59dbf8f1.Emscripten.clang"
  },
  "schemaVersion": "3.0.23",
  "updatedAt": "2020-04-27T14:13:53.889Z",
  "networkType": "ethereum",
  "devdoc": {
    "methods": {}
  },
  "userdoc": {
    "methods": {}
  }
}